S02B00002F686F6D652F6B673437322F576172702D6669726D776172652F6275696C642F6B73646B312E312F31
S113000000060020310500005905000059050000D4
S113001000000000000000000000000000000000DC
S1130020000000000000000000000000590500006E
S11300300000000000000000590500005905000000
S11300405905000059050000590500005905000034
S11300505905000059050000590500005905000024
S1130060792A000059050000832A00005905000080
S11300705905000059050000590500005905000004
S113008059050000590500005905000059050000F4
S1130090E5080000FD0800005905000059050000AE
S11300A059050000590500005905000059050000D4
S11300B059050000590500005905000059050000C4
S1130400FFFFFFFFFFFFFFFFFFFFFFFFFE3DFFFFBB
S113041008B5054B054803331B1A062B03D9044BB7
S1130420002B00D0984708BDACFFFF1FACFFFF1F97
S1130430000000000648074908B5091A8910CB0FC7
S11304405918491003D0044B002B00D0984708BD1D
S1130450ACFFFF1FACFFFF1F0000000010B5074CEE
S11304602378002B09D1FFF7D3FF054B002B02D0D3
S1130470044800E000BF0123237010BDACFFFF1F40
S1130480000000002865000008B5094B002B03D0CC
S11304900848094900E000BF08480368002B02D15E
S11304A0FFF7C8FF08BD064B002BF9D09847F7E7C4
S11304B00000000028650000B0FFFF1FA8FFFF1F19
S11304C000000000144B002B00D1124B9D4640222B
S11304D092029A1A924600218B460F461148124AFC
S11304E0121A04F0E0FA0D4B002B00D098470C4B85
S11304F0002B00D098470020002104000D000B4879
S113050004F055FA04F08CFA2000290000F0AEFE45
S113051004F05CFA0000080000060020000000005F
S113052000000000ACFFFF1FC8020020F9490000D2
S113053072B606480649074A02600A6002F0A6FA43
S113054002F0E6FA62B6FFF7BDFF000080E100E0CA
S113055080E200E0FFFFFFFF00480047590500006C
S113056002B4714649084900095649008E4402BC48
S11305707047C04602B4714649084900095C490005
S11305808E4402BC7047C046002243088B4274D399
S113059003098B425FD3030A8B4244D3030B8B4280
S11305A028D3030C8B420DD3FF22090212BA030C89
S11305B08B4202D31212090265D0030B8B4219D36A
S11305C000E0090AC30B8B4201D3CB03C01A52418A
S11305D0830B8B4201D38B03C01A5241430B8B42D2
S11305E001D34B03C01A5241030B8B4201D30B03BB
S11305F0C01A5241C30A8B4201D3CB02C01A5241E2
S1130600830A8B4201D38B02C01A5241430A8B42A4
S113061001D34B02C01A5241030A8B4201D30B028D
S1130620C01A5241CDD2C3098B4201D3CB01C01AA7
S1130630524183098B4201D38B01C01A52414309B1
S11306408B4201D34B01C01A524103098B4201D39F
S11306500B01C01A5241C3088B4201D3CB00C01A0C
S1130660524183088B4201D38B00C01A5241430884
S11306708B4201D34B00C01A5241411A00D20146A9
S1130680524110467047FFE701B5002000F0FCF826
S113069002BDC0460029F7D003B5FFF775FF0EBCB5
S11306A04243891A1847C04603460B437FD40022AD
S11306B043088B4274D303098B425FD3030A8B42F2
S11306C044D3030B8B4228D3030C8B420DD3FF225C
S11306D0090212BA030C8B4202D31212090265D02A
S11306E0030B8B4219D300E0090AC30B8B4201D3DD
S11306F0CB03C01A5241830B8B4201D38B03C01A24
S11307005241430B8B4201D34B03C01A5241030B9A
S11307108B4201D30B03C01A5241C30A8B4201D34B
S1130720CB02C01A5241830A8B4201D38B02C01AF6
S11307305241430A8B4201D34B02C01A5241030A6D
S11307408B4201D30B02C01A5241CDD2C3098B4252
S113075001D3CB01C01A524183098B4201D38B01CF
S1130760C01A524143098B4201D34B01C01A524172
S113077003098B4201D30B01C01A5241C3088B42B7
S113078001D3CB00C01A524183088B4201D38B00A2
S1130790C01A524143088B4201D34B00C01A524144
S11307A0411A00D201465241104670475DE0CA0F1B
S11307B000D04942031000D34042534000229C46DB
S11307C003098B422DD3030A8B4212D3FC228901E5
S11307D012BA030A8B420CD3890192118B4208D3BB
S11307E0890192118B4204D389013AD0921100E01D
S11307F08909C3098B4201D3CB01C01A5241830931
S11308008B4201D38B01C01A524143098B4201D35D
S11308104B01C01A524103098B4201D30B01C01A88
S11308205241C3088B4201D3CB00C01A5241830802
S11308308B4201D38B00C01A5241D9D243088B4258
S113084001D34B00C01A5241411A00D201466346FB
S113085052415B10104601D34042002B00D549425F
S1130860704763465B1000D3404201B5002000F09E
S11308700BF802BD0029F8D003B5FFF715FF0EBC35
S11308804243891A1847C0467047C04608B50A4B08
S11308901A68002A01D1094A1A601A68084910180E
S11308A0884206D904F08CF80C23036001204042EE
S11308B001E01860101C08BDC8FFFF1FC80200201B
S11308C0C80200200223807883428041404270475E
S11308D0437A0020013B012B03D901200B7801331B
S11308E00B70704708B5002003F0A8FC002803D063
S11308F00020011C03F096FC08BD0000024A1368A6
S1130900013313607047C0461800002037B500203B
S113091002F098FBC02300250D4A9B0013600D4A8A
S11309200D4C13600D4A281C13600D4B2571657125
S1130930A5711A68FA239B0053430A49236003F004
S1130940CBFC281C211C01AA03F02EFD37BDC04698
S1130950189014541C9014540000002000A0145447
S113096018FEFF1F1C00002010B58024002003F097
S1130970F7FC0A4B64001C60094B07201C60094B00
S11309801C6002F0F9FD062002F0F6FD201C02F0C6
S1130990F3FD002002F05BFB10BDC0461890145418
S11309A01C90145400A0145408B5002002F054FB09
S11309B08023054A9B001360044A00201360044905
S11309C002F0BAFE08BDC0460CA0145410A0145482
S11309D0CCFFFF1F08B5002002F0EAFE802382202E
S11309E0074A5B001360074A4000136002F0C4FD2D
S11309F00420FF3002F0C0FD002002F032FB08BDED
S1130A000CA0145410A0145408B50023354A3649D8
S1130A101360364A1360364A0133FF331360354A94
S1130A201360354A1360354A1360354A1360354AFA
S1130A301360354A1360012208780240081C3349C8
S1130A40002A01D00B6000E00A60314A314913608A
S1130A5000220A6030490A60304A1360304A136049
S1130A60304A1360304A1360304A1360304A1360CE
S1130A700378DB0703D50220FF3002F06FFD092065
S1130A8002F07AFD0C2002F077FD052002F074FDDF
S1130A90082002F071FD0620FF3002F06DFD0E20EB
S1130AA0FF3002F069FD8320400002F065FD08205C
S1130AB0FF3002F061FD0C20FF3002F04FFD822078
S1130AC0400002F059FD0420FF3002F055FD0720DC
S1130AD002F052FD062002F04FFD8020400002F09B
S1130AE04BFD08BD0C90145410FEFF1F10901454BD
S1130AF014901454189014541C90145420901454AA
S1130B00249014543090145400A0145404A0145489
S1130B1008A014540CA0145410A0145414A0145479
S1130B2018A014541CA0145428A014542CA0145419
S1130B3034A0145408B5092002F01EFD08BD08B500
S1130B400C2002F019FD08BD08B5384B984259D065
S1130B5013D8374B984243D007D8364B984230D0FD
S1130B606433984238D0C83B12E0334B98423ED0AD
S1130B706433984242D0314B15E0314B98422FD028
S1130B800CD8304B98421CD06433984224D02E4B5E
S1130B90984242D1052002F0EFFC15E02B4B98421D
S1130BA025D006D82A4B984237D1052002F0E4FC20
S1130BB020E0C8231B01984220D0264B984221D024
S1130BC02BE0052002F0CAFC082002F0D5FC062028
S1130BD0FF3002F0D1FC24E0052002F0CDFC02E05D
S1130BE0052002F0BBFC082002F0B8FCEFE705206A
S1130BF002F0B4FC082002F0BFFC09E0052002F07A
S1130C00BBFC02E0052002F0A9FC082002F0A6FCCF
S1130C100620FF3002F0A2FC03E000200E4901F0A0
S1130C201FFF0E4B186802F037F808BDC409000016
S1130C30340800006C070000FC080000980800005D
S1130C40540B00008C0A0000280A00001C0C000051
S1130C50B80B0000E40C0000DC4D00000CFEFF1F8C
S1130C6008B5FFF771FF092002F078FC0C2002F0B0
S1130C7083FC8320400002F07FFC08BD08B5FFF729
S1130C8063FF092002F078FC0C2002F067FC83204B
S1130C90400002F063FC08BDAF2108B50B4B021CF9
S1130CA0C3189BB289008B4202D8FFF7D9FF0BE02F
S1130CB0074BC3189BB28B4202D8FFF7DFFF03E058
S1130CC00020044901F0CCFE08BDC046F8F8FFFF3F
S1130CD0D8F5FFFF094E000008B5FFF72BFFFFF71B
S1130CE02EFF8320400002F039FC024B186801F00B
S1130CF0D3FF08BD0CFEFF1F10B5041C002901D052
S1130D00FFF782FE0021022001F092F8211C04204A
S1130D1001F08EF810BD08B501200021FFF7ECFFAB
S1130D203C200121FFF7E8FFF6E70000F0B59DB293
S1130D3085B0041C0E1C171C01212A1C002001F084
S1130D4036F90290281C01F0E7F90390002C23D017
S1130D502249002001F074FC214C206801F09CFF22
S1130D602049002001F06CFC206801F095FF1E4929
S1130D70002001F065FC206801F08EFF1B49002073
S1130D8001F05EFC206801F087FF0020184901F0A3
S1130D9057FC206801F080FF0025164C1649236893
S1130DA06268002000922A1C01F05AFE301C01F0F7
S1130DB03FF9301C01F0E8F90398029922680918F8
S1130DC06368002000910D4901F04AFE002F02DD06
S1130DD0381C01F061FF0135DFE7C046414E0000D9
S1130DE000FEFF1F694E00008B4E00009C4E000069
S1130DF0185E000000D00340C14E0000CD4E00003C
S1130E00F0B591B01D1C16AB0C91197817AB059277
S1130E101A7818AB1B78041C0D931CAB1B780EA816
S1130E200E931DAB1B88089321231B18DB7F0993AA
S1130E301FAB1B880F9320AB1B780A930B1C9142AA
S1130E4000D9131CDFB2059B002D02D1002B06D163
S1130E5001E0002B03D00020544901F001FE089862
S1130E60FFF71AFF211C002001F0EAFB0023089C75
S1130E70029303930793049300230693069A199B02
S1130E8093426BDB00261A9B9E4264DABB190B93D8
S1130E902C226B469B18187801210C9B984700283C
S1130EA038D1049B01330493089B9C4204D9643CCD
S1130EB0A4B2201CFFF7F0FE002D16D0099A6B7B1C
S1130EC0D31A5A425341039AD31803930A9B002B13
S1130ED039D0EB7A287B697B00900191DBB2F2195F
S1130EE03349002001F0BCFD2DE0059B099A1B7AD3
S1130EF0D31A5A425341039AD31803930A9B002BE3
S1130F0021D0059BF2191B7A281CDBB2294901F078
S1130F10A7FD18E0022810D1002027490B9A01F000
S1130F209FFD079B013307930F9B9C420BD26434B4
S1130F30A4B2201CFFF7B0FE05E003384342584139
S1130F40029B1B1802931B9B002B02DD181C01F053
S1130F50A3FE013697E7069B01338EE70E9B002B19
S1130F6004D07B1CDFB20D9B9F4285D9049A079B5A
S1130F70944612496344002001F072FD322001F0CE
S1130F808BFE099B039A00930D49049B002001F0FA
S1130F9067FD322001F080FE0A49029A002001F028
S1130FA05FFD322001F078FE11B0F0BDDC4D000091
S1130FB0DA4E0000FF4E0000144F0000274F0000DF
S1130FC03F4F0000704F0000F0B591B01D1C16ABF0
S1130FD040CB041C1B780F1C0C931AAB1B880D937D
S1130FE01BAB1B880E931CAB1B780F93002810D0EF
S1130FF0101CFFF7D9FC601E112858D8FFF7BAFA65
S11310000D26292C2F573235383B3E41444A475749
S11310104D502B4901F014FB4FE031220023029282
S1131020199A00970392189A019305920D9A0496BF
S113103007920F9A069508920E9A224809920C9AE2
S113104021490A92214AFFF7DBFE2DE000202049C6
S113105028E000201F4925E000201F4922E000204D
S11310601E491FE000201E491CE000201D4919E014
S113107000201D4916E000201C4913E000201C49F3
S113108010E000201B490DE000201B490AE000206D
S11310901A4907E000201A4904E00020194901E038
S11310A00020194901F0CCFAFFF794FC05E0174938
S11310B0221C002001F0D4FCF6E711B0F0BDC046BC
S11310C0854F0000B14F0000CD1F0000F0FFFF1F4F
S11310D0BF4F0000EA4F00001B5000004B500000BF
S11310E07B500000A8500000D550000001510000C2
S11310F02F5100005B51000088510000B4510000E2
S1131100E05100000D520000395200006552000009
S1131110031C303B021C181E09280CD9131C613B0C
S1131120052B01D8573A05E0131C413B0020052B41
S113113001D8373A101C704770B501F09CFA051CB1
S113114001F099FAFF24061C281C2040FFF7E0FF59
S1131150051C301C2040FFF7DBFF2D012818C0B20E
S113116070BD70B501F087FA041C01F084FA061C06
S113117001F081FA051C01F07EFAFF23FA221C40DB
S11311801D409200303C544364212A1C1E40303ED2
S11311904E43303A5A394A43A4190340A218303B0B
S11311A0D01870BD70B50C1C161C88B00CAA15782C
S11311B006A908800A4A05A805700A4D12682D6818
S11311C04A6004AA1670009001930295231C002023
S11311D002F014FC431E9841400008B070BDC046A4
S11311E014FEFF1F08FEFF1FF7B56A46CB1DDB0880
S11311F0DB00D31A02AF9D46051C0C1CFFF786FBCF
S1131200FA23002002AE9B002A1C00940193011CC7
S1131210331C03F025F9041CFFF7A6FB201CBD4674
S1131220441EA0418000F2BD08B50020014901F030
S113123007FA08BDB752000010B5094C0020211C64
S113124001F0FEF9211C002001F0FAF90549002003
S113125001F0F6F90449002001F0F2F910BDC0468E
S1131260E35200001353000044530000F0B5B9B03A
S113127025AC00210722201C03F015FCFA4A0125A5
S11312802C92032215AB2F9317AB309319AB3293E7
S11312901DAB34931FAB359321AB369323AB3793FC
S11312A02CAB1BAF1A71002011AA2E921493339702
S11312B02570319401F0BEFE281C01F0BBFE802293
S11312C0EA4B12021A6001F005FD00200095021C91
S11312D0031C011C01F0D6F9E549002001F0B0F926
S11312E0C82001F0D9FCE349002001F0A9F9C82085
S11312F001F0D2FCE049002001F0A2F9C82001F07D
S1131300CBFCDE4A2B1C0221DD4801F007FD291C21
S1131310281C01F00FFD002002F0CCFE0026FC2367
S113132029A9DB00301C0B804D808D80CE800E817E
S11313308E7202F0EDFE311C2A1C11A803F0B3FBDF
S11313404820259B08A91993A28809180A80A27924
S1131350023008A909180A70442108AA5218413910
S113136011701B93A28808A9BA80A2791038BA71A7
S113137005223A701593A28802270A87A2790918D0
S11313800A70342108AA521817701793A2880630DD
S113139008A909180A80A279C01908A909180A70AD
S11313A00422063808A909180A701D93A2881C3063
S11313B008A909180A80A279C01908A909180A708D
S11313C00822063808A909180A701F93A2880C304D
S11313D008A909180A80C019A27908A909180A706D
S11313E00921063808AA121811702193A3880C3019
S11313F008AA12181380A379C01908AA1218137026
S11314000A23063808AA121813706C2208AB9B181A
S11314101E7014AA2B1C2FA801F06CFE311C381C62
S113142000F006FD9749984802F07CF8FFF7ECFAC3
S11314300820FF3002F092F8C82001F02DFC0820AB
S1131440FF3002F099F8C82001F026FC0820FF3094
S113145002F084F8C82001F01FFC0820FF3002F0DD
S11314608BF8C82001F018FC0820FF3002F076F851
S1131470C82001F011FC0820FF3002F07DF81D2087
S1131480824900F08FFD4020814900F043FEFFF7C0
S113149023FC00F0CFFE80231B020A93331C089622
S11314A009960C9603330B937A49002001F0C8F88F
S11314B0794C7A4F206801F0EFFB7949002001F064
S11314C0BFF8206801F0E8FB7649089A099B0020E0
S11314D001F0C6FA206801F0DFFB734D734E7449C6
S11314E02A6833680968002000910A9901917149BA
S11314F001F0B6FA206801F0CFFB6F4B6F4A002071
S1131500D2587B69396800916D4901F0A9FA2068C5
S113151001F0C2FB6B4B6B491A785B788979D2B2C4
S1131520DBB200910020684901F09AFA206801F0CA
S1131530B3FB644B65491A7A1B7E0978D2B2DBB2DD
S113154000910020624901F08BFA206801F0A4FBAD
S1131550604B61491A785B780969D2B2DBB20091B9
S113156000205E4901F07CFA206801F095FB5C4B99
S113157052499A785B4BD2B2CB58796800200091DB
S1131580594901F06DFA206801F086FB574B584920
S11315901A6811AB1B78002001F062FA206801F090
S11315A07BFB5449002001F04BF8206801F074FBE8
S11315B05149002001F044F8206801F06DFB4F49C7
S11315C0002001F03DF8206801F066FB4C49002042
S11315D001F036F8206801F05FFB4A49002001F071
S11315E02FF8206801F058FB4749002001F028F843
S11315F0206801F051FB4549002001F021F82068E2
S113160001F04AFB4249002001F01AF8206801F079
S113161043FB4049002001F013F8206801F03CFB33
S11316203D49002001F00CF8206801F035FB099ACF
S11316300B9B3A49002001F013FA206801F02CFBBF
S11316403749002000F0FCFF206801F025FB3549F4
S1131650002000F0F5FF206801F01EFB3249002055
S113166000F0EEFF206861E0D108000020020020B5
S113167076530000915300009753000028FEFF1F8B
S11316802CFFFF1F3CFEFF1F2CFEFF1FF0FFFF1F60
S1131690080000209E53000000FEFF1F00D00340FE
S11316A0C2530000F453000014FEFF1F18FEFF1F76
S11316B004FEFF1F285400003C100000007004408A
S11316C0605400000040064096540000005006405C
S11316D0C554000000E0074000ED00E0F5540000B0
S11316E000D00740341000002F55000018000020DF
S11316F067550000955500009F550000BC5500003B
S1131700D8550000F455000011560000385600006A
S11317105756000076560000A1560000C45600003B
S1131720F35600000F5700003357000001F0B4FADD
S1131730DD49002000F084FF206801F0ADFADB49A8
S1131740002000F07DFF206801F0A6FAD8490020AF
S113175000F076FF206801F09FFAD649002000F0DF
S11317606FFF206801F098FAD349002000F068FF69
S1131770206801F091FAD149002000F061FF20684F
S113178001F08AFACE49002000F05AFF206801F0E7
S113179083FACC49002000F053FF206801F07CFA62
S11317A0C949002000F04CFF206801F075FAC749D0
S11317B0002000F045FF206801F06EFA00F05BFFA6
S11317C0FF22071C02406B2A00D150E200DD94E0A6
S11317D0652A00D1EAE11CDC622A00D1C4E106DCFE
S11317E00A2A00D1BBE2612A00D1CFE0BDE2632A1C
S11317F000D1CAE1642A00D0B7E2B549002000F064
S11318001FFFFFF7AEFCB34BB34918601A68002002
S1131810ADE2682A00D116E211DC662A00D1D0E1DB
S1131820672A00D0A1E2AD49002000F009FFFFF7CC
S113183098FC83B208931A1C0020A94997E2692AEC
S113184000D108E26A2A00D08FE2099AA549002053
S113185001F006F900F00FFFA349041C002000F07A
S1131860EFFE00F008FFA1490D90002000F0E8FE13
S113187000F001FF9E490E90002000F0E1FEFFF70A
S113188070FC9C49051C002000F0DAFEFFF769FC9F
S11318909949061C002000F0D3FEFFF762FC97492B
S11318A00F90002000F0CCFEFFF746FC0A9B071CBB
S11318B00193029592490B9A099B0096002001F02E
S11318C0CFF8231C0D9A303B303A00920E9A1C1C20
S11318D0303A511E8A410192089A631E9C41049237
S11318E06A4602950396958FE3B2059506970B9881
S11318F009990A9AFFF768FBD6E5722A00D106E235
S11319000CDC6E2A00D1F9E100DAB6E16F2A00D1CD
S1131910F9E10220702A00D1FAE126E2752A00D109
S113192003E206DC732A00D1F7E1742A00D1BBE597
S11319301BE2782A00D108E27A2A00D015E2714924
S1131940002000F07DFE0A98FFF72EF86E49002073
S113195000F076FE00F08FFE6C49051C002000F0BC
S11319606FFEFFF7FEFB86B26949321C002001F0CE
S113197077F8206801F090F9E9B268394D4269417D
S11319800120C9B2321C0A9BFFF7D0F9614900203B
S113199000F056FE6049002000F052FE206801F07D
S11319A07BF95E49002000F04BFE5D49002000F009
S11319B047FE5C49002000F043FE206801F06CF90A
S11319C05949002000F03CFE206801F065F95749B0
S11319D0002000F035FE206801F05EF95449002033
S11319E000F02EFE206801F057F95249002000F063
S11319F027FE206801F050F94F49002000F020FE36
S1131A00206801F049F94D49002000F019FE2068D2
S1131A1001F042F94A49002000F012FE206801F06A
S1131A203BF94849002000F00BFE206801F034F92E
S1131A304549002000F004FE206801F02DF94349D7
S1131A40002000F0FDFD206801F026F94049002047
S1131A5000F0F6FD206801F01FF93E49002000F077
S1131A60EFFD206801F018F93B49002000F0E8FD83
S1131A70206801F011F93949002000F0E1FD2068E7
S1131A8001F00AF93649002000F0DAFD206801F07F
S1131A9003F900F0F0FDFF220240352A00D064E192
S1131AA0304B0C930123FEE457570000715700009C
S1131AB08C570000AA570000C7570000E6570000E3
S1131AC0055800001F5800004A5800006A580000DA
S1131AD0845D000004FEFF1FB35D0000D45E0000BF
S1131AE0005F0000A95F0000E35F00000C600000DD
S1131AF0256000006460000090600000C860000081
S1131B00F9600000C7620000E062000009630000A1
S1131B10516300007D58000088580000C65800003A
S1131B20085900004959000089590000B9590000BA
S1131B30F6590000355A0000735A0000B05A0000EC
S1131B40EE5A00002B5B00006A5B0000A75B0000FC
S1131B50D05B00000D5C0000445C0000815C000070
S1131B60BE5C0000F0FFFF1F8349002000F068FD09
S1131B70FFF7F7FA28602A68804B9A4201D1804B1C
S1131B802B602A6800207F49F1E07F49002000F0A3
S1131B9057FDFFF7E6FA30603268784B9A4201D17C
S1131BA0774B3360326800207849E0E078490020C0
S1131BB000F046FDFFF7C0FA099076490020099A23
S1131BC0D5E07549002000F03BFDFFF7B5FA061C8F
S1131BD0724C321C211C002000F042FF704900208E
S1131BE000F02EFDFFF7A8FA12AF021C3870211C7A
S1131BF0002000F035FF992E02D100206949B0E0A1
S1131C002B6827AC089828932680FFF745F80A9894
S1131C10FEF7CAFE24216B465B181B7813AA1370C7
S1131C20614B002019680123029100970193211C44
S1131C3001F0E4FE021E03D000205C4900F010FF16
S1131C40FEF7C8FE30E45A49002000F0F9FC0120F8
S1131C50FFF7F2FA28E45749002000F0F1FCFFF7FF
S1131C6080FA83B20A931A1C002053497FE0534937
S1131C70002000F0E5FCFFF74EF84D49002000F08D
S1131C80DFFC4F49002000F0DBFCFFF755FA27ADDD
S1131C9028704C49002000F0D3FCFFF762FAFFB231
S1131CA0041C2B786C2F17D10A9A00200092089AF2
S1131CB045490192221C00F0D3FE0025A54201DB18
S1131CC0FFF7F2FB27AB1A780023FF2000930121D2
S1131CD0FFF768FA0135F1E7089A002000923B49C2
S1131CE0221C00F0BDFE0025A54201DBFFF7DCFB52
S1131CF027A80121FFF778FA0135F5E70898FEF7E0
S1131D00CBFFFFF7D1FBFEF7E7FFFFF7CDFB082082
S1131D10002100F08DF8FFF7C7FB2549002000F0F3
S1131D208FFCFFF781FAFFF7BFFB0C9B002B02D15E
S1131D30181C274915E02749002000F081FCFFF713
S1131D40FBF90C9B1870FFF7AFFB2349002000F050
S1131D5077FC0B4800F0A0FF0020204901E00020A0
S1131D601F4900F06DFCFFF79FFB00201D4900F0A8
S1131D7077FEFFF799FBC046EE5C00000F270000DA
S1131D80102700001C5D00003C5D00006A5D00003F
S1131D90CE5D0000045E00001B5E00004E5E00008D
S1131DA0645E00008D5E000008FEFF1FB35E00004D
S1131DB0225F0000505F00008C5F0000366100006D
S1131DC0596100007861000098610000EA61000038
S1131DD028620000666200009E620000BD6200008E
S1131DE089630000D25C00001FB5041C01A9002017
S1131DF002F0B6F901A8694602F0F0F8009B6846C3
S1131E001C1901A9009402F071F801A90122002013
S1131E1002F0D2F91FBD00000022034B1A60802299
S1131E20024B1206DA67704700A01C5804E100E078
S1131E3010B50A2308286FD80C1CFEF79BFB051B62
S1131E40283C48626466570001F0EAFA0523012839
S1131E5062D0FFF7E1FF201CFFF7C6FF0020011C42
S1131E6001F06CF9041C0020012100F063FF002C38
S1131E704FD150E001F0D4FA062301284CD0FFF7EB
S1131E80CBFF201CFFF7B0FF01200021E8E701F0A1
S1131E90C7FA082301283FD000F0D4FF002803D05C
S1131EA00020012100F046FF0220002101F046F944
S1131EB000282ED12FE001F0B3FA072300282BD0FD
S1131EC0FFF7AAFF201CFFF78FFF032005E0FFF7B1
S1131ED0A3FF201CFFF788FF0420002101F02EF946
S1131EE0041C01F09DFA0028C1D1BDE7082000219F
S1131EF001F024F900280CD10120011C00F01AFF84
S1131F0009E0052002E0062000E00720002101F09E
S1131F1015F9092300E00023181C10BD10B50C1C92
S1131F200C4B88B01B7806A90B800B4B05AA1B68C9
S1131F3010700A484B6004AB1C70006800930123C6
S1131F4002900193002001F059FD431E9841400086
S1131F5008B010BDF0FFFF1F14FEFF1F08FEFF1F97
S1131F6010B50C1C0C4B88B01B7806A90B800B4BCE
S1131F7005AA1B6810700A484B6004AB1C7000680B
S1131F800093012302900193002001F037FD431ECA
S1131F909841400008B010BD0800002014FEFF1F47
S1131FA008FEFF1FC223FF3308704B60704738B52B
S1131FB0031C0D1C0920191CFFF7B0FF291C041C6D
S1131FC02A20FFF7ABFF0443E0B238BDFF2310B56E
S1131FD088B005AA1370182804D8092806D2062840
S1131FE01BD803E0031C1D3B142B16D80C4B10709C
S1131FF01C7806AB1C800B4C0B48246800680794C3
S11320000A4C01910290191C00940123002001F054
S113201002FD431E9841400000E0032008B010BDBB
S1132020F0FFFF1F14FEFF1F08FEFF1FF8FFFF1F36
S113203038B50221041C0120FFF7C8FF304D2A7A6D
S11320406B7AD2B2DBB2002804D02E49002000F013
S1132050F7FA11E0002C03D02B4900F001FD0BE04E
S113206092019B081343802292015A40274B201C63
S1132070D218274900F0F4FC02210320FFF7A6FF41
S11320802A7A697AD2B2CBB2002804D01D49002042
S113209000F0D6FA11E0002C03D01B4900F0E0FC5C
S11320A00BE092019B081343802292015A40174B84
S11320B0201CD218164900F0D3FC02210520FFF79A
S11320C085FF2A7A697AD2B2CBB2002804D00D49AE
S11320D0002000F0B5FA11E0002C03D00A4900F00A
S11320E0BFFC0BE092019B081343802292015A40EB
S11320F0064B201CD218064900F0B2FC38BDC0467D
S1132100F0FFFF1FBB630000C263000000E0FFFF9D
S1132110C84E00000870704710B500210520FFF775
S11321201FFF9821041C0020FFF71AFF0443E0B2AC
S113213010BD0000FF2310B588B005AA041C13705D
S11321400320052C15D80C4B1470187806AB188096
S11321500A480B4C006807900A48006801910290F5
S1132160191C00940123002001F055FC431E9841E2
S1132170400008B010BDC0460800002014FEFF1F38
S11321801000002008FEFF1F10B50221041C0420CB
S1132190FFF7D0FF0F4B1A7A597AD2B2CBB200288C
S11321A004D00D49002000F04BFA11E0002C03D0BC
S11321B00A4900F055FC0BE092019B08134380226E
S11321C092015A40064B201CD218064900F048FCE4
S11321D010BDC04608000020BB630000C2630000BD
S11321E000E0FFFFC84E000037B50E24FF34051C85
S11321F0201C01F0B3F90A2000F04EFD201C01F070
S1132200BBF90C2001F0B8F90123084A002015702D
S11322100093FA239B000193011C054B02F020F963
S1132220051C201C01F09AF9281C3EBD4D0000201D
S11322304C000020C02310B58024634A9B00136027
S1132240624A64001360FEF761FB614B201C1C6052
S1132250604B1C60604B1C6001F080F9642000F04E
S11322601BFD201C01F088F9642000F015FD201CE2
S113227001F074F9642000F00FFDAE20FFF7B4FF05
S1132280A020FFF7B1FF7220FFF7AEFFA120FFF7F8
S1132290ABFF0020FFF7A8FFA220FFF7A5FF002057
S11322A0FFF7A2FFA420FFF79FFFA820FFF79CFFE2
S11322B03F20FFF799FFAD20FFF796FF8E20FFF731
S11322C093FFB020FFF790FF0B20FFF78DFFB120A5
S11322D0FFF78AFF3120FFF787FFB320FFF784FF62
S11322E0F020FFF781FF8A20FFF77EFF6420FFF7CD
S11322F07BFF8B20FFF778FF7820FFF775FF8A209C
S1132300FFF772FF6420FFF76FFFBB20FFF76CFF3E
S11323103A20FFF769FFBE20FFF766FF3E20FFF774
S113232063FF8720FFF760FF0620FFF75DFF812032
S1132330FFF75AFF9120FFF757FF8220FFF754FF62
S11323405020FFF751FF8320FFF74EFF7D20FFF75A
S11323504BFFAF20FFF748FF2620FFF745FF012082
S1132360FFF742FF2520FFF73FFF0020FFF73CFF68
S11323700020FFF739FF5F20FFF736FF3F20FFF70C
S113238033FF2220FFF730FF0020FFF72DFF00204E
S1132390FFF72AFF5F20FFF727FF3F20FFF724FF07
S11323A00020FFF721FFFF20FFF71EFF0020FFF7AB
S11323B01BFF0020FFF718FFFF20FFF715FF002089
S11323C0FFF712FF002010BD2090145424901454E1
S11323D034A014543090145400A014540269C368F7
S11323E09A4203D880681018013800E0501EC01AC1
S11323F07047F7B58368C668051C40680191141CD2
S11324009F1B8019974203D902F044FBA4190AE0E8
S113241001993A1C02F03EFB019BE41BD919686840
S1132420221C02F037FBEC60F7BD0023F7B5061C55
S1132430171CC568019100933369B468AB4200D896
S11324401B19013B5B1B641BBC4200D93C1C9C4216
S113245000D91C1C7368221C5819019902F01AFB3C
S1132460009B2D191B190093019B3F1B1B19019302
S1132470B368EB1A5A1E93415B421D40F560002F6E
S1132480DAD10098FEBD0000022310B50F4C104AAB
S1132490236163610F4BA261E361C823A2640E4A06
S11324A02362E26400230422A3626362E362A365FD
S11324B06365E3652265E01D084902F0ADFB201C5D
S11324C0074902F0A9FB2023A37110BD1C010020C1
S11324D0D2630000520000204E000020DB630000A5
S11324E0DF630000F0B5294B171C1A7885B0009003
S11324F001910293002A01D1FFF7C6FF1823009A25
S113250000255343029AD3181A1C503252689C6D0A
S1132510039294421BD91B6D3D1C1B1B9F4200D987
S11325201D1C1826009B2A1C5E43029B01989E19C1
S1132530F36C7F1B191902F0ADFA019B64195B1946
S11325400193336DE31A5A1E93415B421C40039B73
S11325501E1BBE4200D93E1C002E0CD01823009A2C
S113256001985343029AAD19D318D96C321C091936
S113257002F090FAA419002D05D01823009A5343B1
S1132580024AD3189C65281C05B0F0BD1C0100202C
S113259010B50B1CEFF31084012181F31088191C72
S11325A0FFF7A0FF84F3108810BD0000F8B51823CE
S11325B0451C5D434343141C134A0E1CD018C76AC0
S11325C05519012F0FD0002F07D0022F17D1221C2D
S11325D0281CFFF72AFF041C14E0281CFFF7FEFE4A
S11325E0A0420ED305E0281CFFF7F8FE844200D970
S11325F0041C281C311C221CFFF7FBFE02E00024F3
S113260000E03C1C201CF8BD1C010020F8B50B4B5D
S1132610071C1B780E1C151C002B01D1FFF734FF7F
S1132620EFF31084012181F31088381C311C2A1C1B
S1132630FFF7BCFF84F31088F8BDC0461C010020DE
S113264038B5051C081C0C1C02F0EEFA211C021CF7
S1132650281CFFF7DBFF38BD13B56B46DC1D0020DB
S1132660211C0122FFF794FF012801D1207801E009
S11326700120404216BD08B5FFF7EEFF0028FBDB42
S113268008BD0000F7B5164C01932378051C0F1CF8
S1132690161C002B01D1FFF7F7FE23699D421CD2C3
S11326A0EFF31082012181F31088002D0CD0182340
S11326B0691C59436B43675061184E600199E318D4
S11326C0196200219962596218235D43089B6419B9
S11326D0E36282F31088002001E001204042FEBD45
S11326E01C010020826810B5041C4068531C8342FE
S11326F005D820688154A360E3680133E360A268CD
S113270063689A420CD120692168FFF77FFFA368B0
S1132710984203D001235B42E36001E00023A360FD
S113272010BD0000F0B5051C1F1C081C012685B057
S11327300A9C00910192019B984204D30199FDF7F0
S113274023FF0136F7E70296BE4200D20297012327
S11327500B9A1A40039218D1002C01D1002414E0E2
S11327600B9B20269B070DD5002F0BD1103609E0BB
S1132770281C311CFFF7B6FFEB68013C002B04DB7F
S1132780002CEBD0029BA342F2D3EB68002B35DB89
S11327900126012F01D9013F06E00098311CFDF705
S11327A0F3FE019B984208D3019B5E43F1E7301C82
S11327B00199FDF7E9FE061E10D00098311CFDF7C3
S11327C0E3FE331C4343009AD31A00930C4B195C69
S11327D0281CFFF787FFEB68002BE8DA039B002B2C
S11327E00CD0002C0AD0029BA34207D2281C202123
S11327F0FFF778FFEB68013C002BF2DA05B0F0BD7F
S1132800E6630000F0B59FB00EAB099340230A9332
S11328100023161C06900B930D900C930B784C1C04
S1132820002B04D10C9B0393002B22DC15E1252BF8
S113283016D1002502314F1E3B782B2B0CD003D828
S1132840232B27D1082308E02D2B03D0302B21D1B3
S1132850022302E0012300E004231D430131EAE7DF
S1132860191C09A8FFF73EFF211C0C9B002BD5DA8D
S1132870D8E70B9A002A03D006980EA9FFF7C6FEE4
S11328800C9B03930B9B0493049A039B944663440D
S11328900C93E2E000243A78131C303B092B05D852
S11328A00A235C43303C0137A418F4E70023039364
S11328B02E2A0DD101373A78131C303B092B07D847
S11328C00A23039901374B43303B9B180393F2E7E8
S11328D0397804230A1C9A43682A01D10137F7E79F
S11328E0642926D008D8582900D195E063291AD044
S11328F0252900D0AFE0ABE0732900D195E00DD8D5
S1132900702900D0A7E032680021131D336008232A
S113291001910093116809A8102296E0752971D0DD
S1132920782979D097E0336819681A1D3260C9B2E2
S11329308EE033681A1D1B683260DA179818049306
S1132940012350400593092805DD0A21FDF7ACFE5B
S1132950059B0133F6E7059B039A934200D2059247
S1132960002C05D0049B002B01DB6B0700D5013C38
S1132970AB0702D5039B002B10D0EB070ED4002C21
S113298001D100240AE0059BA34207D209A8202113
S1132990FFF7A8FE0C9B013C002BF0DA0C9B07937D
S11329A0002B58DB049B002B04DA5B42049309A838
S11329B02D2103E06B0703D52B2109A8FFF792FE15
S11329C00C9B002B47DB03232B40022B11D1039BD1
S11329D0002B0ED1002C01D100240AE0059BA34258
S11329E007D209A83021FFF77DFE0C9B013C002B88
S11329F0F0DA0C9B0593002B2DDB0094019509A8BC
S1132A00049906E03368009401951A1D1968326030
S1132A1009A80A22039B18E0336800941A1D019543
S1132A20326009A819681022F4E733681A1D32606D
S1132A301C682178013400290DD009A8FFF752FE43
S1132A400C9B0393002BF4DA05E0FFF76BFE02E026
S1132A5009A8FFF747FE791C07E70C981FB0F0BDE3
S1132A600EB403B503AB02CB01AA0193FFF7CAFE70
S1132A7002B008BC03B0184708B5002000F08AFD76
S1132A8008BD08B5002001F0F5FB08BD082110B50C
S1132A90164B9A780A4202D09A780A439A7088228E
S1132AA000212220124B52019950124A10708020AA
S1132AB0114A400298501868104A024010481A609F
S1132AC01C58104A2240C024A40422431A508022D5
S1132AD00D4B19721A767F3A19705A700B4A11709D
S1132AE00C2299791142FBD110BDC04600D0074099
S1132AF00070044000E0074044100000FFFFF3FFB3
S1132B0004100000FFFFFFF00040064000500640A4
S1132B10154B164810B5191E81420CD00022144BD7
S1132B209B089B009A4203D084588C500432F9E7E6
S1132B30104B996001E00F4A936000230E4A0F493D
S1132B40891A8B4204D0D45C0D48C4540133F8E78D
S1132B5000230C4A0C49891A8B4204D00024D01853
S1132B6004700133F8E710BD00000000000000000D
S1132B700000000000ED00E050650000FC6600006D
S1132B8000FEFF1FACFFFF1FC8020020002341709E
S1132B90436003708360181C704710B54378041CAD
S1132BA00120FF2B08D000F06DFA63780133DBB20B
S1132BB0637000F05BFA002010BD0020704738B548
S1132BC0041C0D1C00F05EFAE1682943E16000F08A
S1132BD04DFA002038BD000000220A4B9A641A1CEA
S1132BE040329A631A1C30329A621A1C20329A615B
S1132BF01A1C10329A60044A1360044B9B60DB6019
S1132C007047C046A8010020A401002094010020C0
S1132C100022024B1A60186880B270470C007C5086
S1132C2038B54378041C0D1C002B0BD0002500F094
S1132C3029FA6378013BDBB26370257000F016FA61
S1132C40281C28E00220002925D02378002B15D049
S1132C50FFF7DEFF6368A268984201D3C01A03E05D
S1132C60C01A80235B02C018824213D200F00AFA11
S1132C700023237000F0FAF902200CE04B1C09D069
S1132C8000F000FA0123237000F0F0F9FFF7C0FF11
S1132C90A5606060032038BD38B5051CFFF7B8FF98
S1132CA0041CFFF7B5FFA04201D3001B03E08023FF
S1132CB0001B5B02C0188542F3D238BD08B5012859
S1132CC001D100F0DFF908BD08B5012801D100F0F9
S1132CD0CDF908BD10B5FFF77FFF01230020084A96
S1132CE008491360084A094C1060086004212160F7
S1132CF0074C216007490B6007490860136010BD49
S1132D003880045000008450000004500000045136
S1132D100400045104000C500000045310B5044C8A
S1132D20206021710020A2602373637310BDC0462C
S1132D30F8010020F0B587B06B4602901B7A05AC11
S1132D4023706B4603911B7B3D4D63702B79029A74
S1132D500420934271D92B7B6B730123A37000234E
S1132D600193374E0093337B009A371C93421AD950
S1132D70009BB2689B009B58002B10D01A79D20795
S1132D800DD51A68201C99689047002807D06B4617
S1132D901B787373039B002B3AD005230193009B8C
S1132DA00133DBB2DDE7019E002E02D0039B012B31
S1132DB02FD10120FFF782FF0C20029B58432B6880
S1132DC0181800F0A7F86B461B7A01206B71FFF707
S1132DD07BFF02230025A3703B7BAB4216D9BA6864
S1132DE0AB009B58002B0ED01A7992070BD51A68AA
S1132DF0201C99689047002805D0039B7D73002B05
S1132E001AD0062301930135EDB2E5E7019814E0E9
S1132E1005260023009FA370013FFFB2FF2F09D0B6
S1132E20AA68BB009B58002BF6D01A68201C99682E
S1132E309047F1E7301C00E0062007B0F0BDC04623
S1132E40F8010020014B58797047C046F801002072
S1132E5013B500210378041C0191022B07D0032B26
S1132E600BD0012B0ED10279191C134801E0027911
S1132E70114801AB00F0CEFF08E001A90E4801F0B3
S1132E800BF803E00C4801A900F0A8FF002812D1B8
S1132E90A3790A4ADB01DBB213706378084A5B004A
S1132EA0DBB21370A278074B1A70E278064B1A70E3
S1132EB06279064B1A7016BD0040064018408653CE
S1132EC000408650004006500140065018401650FD
S1132ED01F22802302405B05D2051A43034943099C
S1132EE09B005B181A43002313607047288004403A
S1132EF01F2280210240D305490519434309044890
S1132F009B001B1819430123081C9340036070475E
S1132F10288004400022072373B5041C104D00933D
S1132F20281C131C012101F097F9201CFFF790FFC6
S1132F300022637A217A0093281C131C01F08CF977
S1132F40E379084A9B041360074BA17A1D68281C87
S1132F5000F0BEFF281CE17A00F0C1FF002076BD1E
S1132F600070044000700C594464000008B5054822
S1132F7000F0F6FE044B1968C9B20131FDF704FBF9
S1132F8008BDC0460040064044801C5E08B50548A4
S1132F9000F0E6FE044B1968C9B20131FDF7F4FAFA
S1132FA008BDC0460040064044801C5E08B5054884
S1132FB000F0D6FE044B1968C9B20131FDF7E4FAFA
S1132FC008BDC046004006404480145808B5054872
S1132FD000F0C6FE044B1968C9B20131FDF7D4FAFA
S1132FE008BDC04600400640448014580C4B1B6882
S1132FF0DBB2022B0DD0032B0ED0002B01D000200E
S11330000CE08021074A09021268101E8842F6D19A
S113301004E0054B186801E0FA2080007047C046C0
S113302000700C59200200202402002008B5FFF78C
S1133030DDFF08BD08B5024B185CFFF759FF08BD5A
S1133040F663000008B57620FFF752FF08BD08B507
S11330507620FFF73DFF08BD08B56620FFF748FF5F
S113306008BD08B56620FFF733FF08BD044A13689E
S1133070002B04D0013B1360002B00D162B67047D3
S11330800802002072B6024A1368013313607047C5
S11330900802002010B50B4B0B4A1278002A04D109
S11330A0013B002BF8D103200AE0064C074801F04D
S11330B069FB012803D0013C002CF7D1F3E7002081
S11330C010BDC046EA03000002D0075100E00740EB
S11330D010B5064C064801F055FB042804D0013C09
S11330E0002CF7D1032000E0002010BDEA0300000B
S11330F000E00740F7B5071C0E1C151C01930120C6
S1133100002F18D0002916D0FFF7D8FD0A4C002153
S1133110201C102201F0C7FC27602671002D06D068
S11331206B461B79A56023736B461B79637301207F
S1133130FFF7CAFD0020FEBD0C020020F0B5B24C22
S11331408BB002900191237B01206373FFF7B6FDDE
S11331502379029A934204D80120FFF7B5FD022097
S113316050E1029A23689200D6586B461B7907AC4B
S1133170357823726B461B7A2A1C237002239A43E8
S113318066600392012A01D0052D0AD101219F48CE
S113319001F04AFA002809D10120FFF795FD01202A
S11331A030E1072D02D999480321F1E70123637225
S11331B000240094944F009A3B7B93421AD9009BBD
S11331C0BA689B009B58002B0FD01A79D2070CD5F4
S11331D01A6807A899689047002806D06B461B78A0
S11331E004247B73019B012B04D1009B0133DBB2CC
S11331F00093DFE70120FFF767FD854800F0D4FD69
S1133200039B012B1DD10138C0B2022811D8FFF74E
S1133210DDFE804B98420CD8FFF7A8FE7E4FB842E3
S113322007D8FFF7C3FEB84203D8FFF7AFFEB84292
S113323007D9019B012B01D1062407E0002C05D1FD
S1133240FAE7019B012B52D0002C50D00120FFF74C
S113325035FD002307AE009D7372013DEDB2FF2DD5
S113326040D0694BAA009B68D358002BF5D01A793B
S1133270D207F2D51A68301C99689047EDE7072207
S113328005AB1A7000225A70F2789A703279DA70AB
S11332902B1C083B05A9022B03D873798B71B379D6
S11332A0CB717378002B00D084E0584801F0F0F91A
S11332B0002800D00324002D00D08AE0FFF7EAFEA6
S11332C00024002800D09DE00120FFF7F7FC6B46A6
S11332D04D4E1B7A0025B373022307AF7B72337BF9
S11332E0AB427CD80120FFF7EFFC201C8AE00320CE
S11332F00A2D00D986E0281CFDF732F906080A19C0
S113330040583339C1282D00002250E003224EE0FA
S11333103E4801F037FA012807D03C48002101F06B
S113332093F9FFF7B7FE041E6CD101223FE0374842
S113333001F028FA042807D03448022101F084F966
S1133340FFF7C6FE041E5DD1042230E0072205AB60
S11333501A70063A03E0072205AB1A70043A5A7051
S113336096E7022205AB1A70013A1A7104E00222B0
S1133370012105AB1A7019715A7189E702220027DD
S113338005AB1A702148013A1A715F7101F0FAF91C
S1133390012800D17CE71D48391C01F055F9FFF7DD
S11333A079FE041EBC4200D172E72BE0052205AB76
S11333B01A706DE7012D00D877E7B2780220174B19
S11333C0002A02D01A69024301E01A6982431A6191
S11333D06BE7012D00D077E7FFF77AFE70E7B2685C
S11333E0AB009B58002B0AD01A79920707D51A68AC
S11333F0381C99689047002801D00524757301355D
S1133400EDB26CE70BB0F0BD0C02002000E0074009
S11334100040064040420F0080841E0000ED00E0A2
S113342008B5064801F0AEF90023012803D00133A2
S1133430042800D00A33181C08BDC04600E0074029
S1133440F7B5FF2403681C4A1D0A25401C40AB0045
S11334509F581A4A061C9B58281C0193FFF7EAFD43
S1133460211C0022381C01F095F9019BA4001C19B1
S1133470842332795B05234352001A6080237279D6
S11334805B0523431A609023B2795B052343120141
S11334901A60F3790A4A14431A042260002B0AD0F2
S11334A0084B5A5D002A06D01F23134001229A407C
S11334B0131C054A1360F7BD506400004864000003
S11334C0000018185864000000E100E0F8B5FF247B
S11334D0051C0368114A180A20401C4083009F58A9
S11334E00F4A9E58FFF7A6FD381C211C012201F04B
S11334F051F96A68381C211C01F05CF988232A7A86
S1133500A40034195B05234392001A6098235B05D9
S11335101C436B7A9B012360F8BDC04650640000D5
S11335204864000038B50C1C002802D1002C09D1D5
S113353012E003680133F9D0051C0835FFF780FF5A
S1133540281CF6E72368013306D0251C201C0C3503
S1133550FFF7BCFF2C1CF5E738BD0000FF22030A6F
S1133560134002400120904002499B005B58586080
S11335707047C04650640000FF22030A1340024013
S11335800120904002499B005B5898607047C046F8
S11335905064000008B5084B8200D35894220233CB
S11335A0520513431B78002B02D000F041FA01E0CE
S11335B000F096FA08BDC046FC630000031C80229C
S11335C00C33520513431B78002BF7D0017170475D
S11335D038B50D1C084B8000C458201C291C183019
S11335E0FFF71EFB0328F8D0002801D0042323741E
S11335F0207CC0B238BDC0461C020020F0B589B0A2
S11336000290161C82003748059310580EAB0190A7
S113361035481B781458002007AA1080A27C8F0A12
S113362004920122E274A2745A4253411E3FDBB257
S113363003937B425F41FFB2CDB2874202D0CBB24B
S11336409C460D0A00216D00EDB28F4204D1391C55
S1133650002E01D16B46197B0D4307AB1D7001226F
S1133660002F02D062465A700222A360E2600198E1
S1133670291CFFF7A3FF02980F99FFF7A9FF237CEA
S1133680002B0CD1002E0AD0059BA660E360317894
S11336900198FFF793FF02980F99FFF799FF237C96
S11336A0002B16D1039B002B13D0002F01D1002E29
S11336B00FD000230127A3600198E76001F0D2F83E
S11336C0391C01982943FFF779FF02980F99FFF7F6
S11336D07FFF0023E3746B46207C1B7CC0B2A37481
S11336E009B0F0BDFC6300001C020020104A8300F6
S11336F010B598580F4A9C58E37C002B05D0237CC6
S1133700052B02D0237C042B09D19822831C52055B
S1133710134300221A7001F0B7F801236374A37CE9
S1133720002B03D0201C1830FFF737FA10BDC04619
S1133730FC6300001C020020F7B5194B8700FB58FE
S113374001250093174BFE58002E26D10C1C242271
S11337500190081C311C01F0A6F9201C311C183002
S1133760FFF714FA0198FFF777FC009801F02AF8A4
S11337700C4B019AFC500C4B9A5C1F2313402A1CDF
S11337809A40131C094A13609C22009B5205023381
S1133790134380226574351C1A70281CFEBDC04674
S11337A0FC6300001C020020F863000000E100E05C
S11337B0F7B59C220027051C0D4E8400A359520521
S11337C001930C4BE358023313431F70FFF749FC7A
S11337D0094B01985A5D1F23134001229A40131C80
S11337E0064A1830D367FFF7E8F9A751F7BDC0467A
S11337F01C020020FC630000F863000004E100E008
S11338000A4B800070B5C558094BC6584B6872699D
S113381093420AD00C1CFFF7C9FB0023011C626809
S1133820281C00F0DDFF6368736170BDFC63000059
S11338301C020020F0B587B00FAC334F334D26780F
S113384084006559E459677C002F02D10320207459
S113385058E0002E01D11E270E9705930023A6746D
S1133860E360A360237423606374071C04920391D0
S1133870FFF7C6FF90231021AA1C5B0513431970A0
S11338808421EB1C49050B430221197098235B0525
S1133890134302934023029A281C137000F0E2FFA2
S11338A0039B381C1988012300930E9B049A0193EF
S11338B0059BFFF7A3FE0D9B002B15D0237C002B4B
S11338C00FD10C9B281CA3600D9BE3600C9B197803
S11338D0FFF774FE002E13D0381C0E99FFF778FE04
S11338E00EE0237C042B0BD100230126029A1370D3
S11338F0EB785B09334202D0281C00F0C5FF6674E4
S1133900207CC0B207B0F0BD1C020020FC630000A4
S1133910F0B58BB013AC2478364E374D0394840045
S11339206559A459667C002E02D1032020745FE0FF
S1133930039E002E01D11E3612960993109B002679
S11339402360119BA66063606B461B7BE660A374D7
S113395026746674079108920490FFF751FF902330
S1133960AF1C5B053B4305931023059A281C137079
S11339708422EB1C5205134302221A7098235B0520
S11339803B4306934023069A137000F06BFF079B9A
S1133990089A1988129B009601930498099BFFF7D3
S11339A02DFE227CD2B2B24212D1059B11991A701B
S11339B08C235B053B43012900D108221A702B7923
S11339C0039B002B12D004981299FFF701FE0DE01F
S11339D0237C042B0AD1069B1E700126EB785B091D
S11339E0334202D0281C00F04FFF6674207CC0B222
S11339F00BB0F0BD1C020020FC6300001FB5069C48
S1133A000094079C0194089C029401240394FFF7FA
S1133A1011FF04B010BD1FB5069C0094079C0194CF
S1133A20089C029401240394FFF772FF04B010BDB4
S1133A30842138B5244B8200D5584905EB1C0B432F
S1133A4002211970214BD45890226B1852051A4345
S1133A501278E978D2B2890634D5942149051943FC
S1133A60097800292ED0012A15D1EB78134202D00F
S1133A70052323740CE0E368013BE360002B07D0CB
S1133A80A368281C5A1CA2605978FFF797FD19E017
S1133A90FFF72CFE16E06268013A6260002A06D045
S1133AA08C214905012A05D10B43082204E0FFF7C4
S1133AB01DFE02E000220B431A7023685A1C226088
S1133AC02A791A7038BDC046FC6300001C0200202D
S1133AD0842303305B0518430223037070470000FE
S1133AE0902149050A1CF0B58F4B071C8000C5586E
S1133AF089B0EB1C0493EB78EE78DBB20593F3B258
S1133B000693AB1D1A43944612789826D2B20792B4
S1133B10942252051A4314787605621E9441E2B247
S1133B20824C33430459A81C0090084301921A782C
S1133B300178D2B2C9B203910199029000292FD021
S1133B40079900290CD010236246281C1370FFF734
S1133B50BFFF236BF8B20121002B00D0DCE0E0E0D2
S1133B60002A1DD04022281C1A70FFF7B1FF231C25
S1133B702C331B78002B02D1009A16433370236B2D
S1133B80002B03D0F8B28021626B9847E37D002BB1
S1133B9004D0201C80211830FFF711F80A23BFE05D
S1133BA0069B281C9E1101231E40FFF791FF012252
S1133BB0059B1B11134219D09023049A5B051343F0
S1133BC010221A70002E04D0EB785B07DB0F10D1A3
S1133BD01AE0082323702C342278002A00D0A0E0B5
S1133BE0982300995B050B431A709AE0002E16D0B7
S1133BF0EAE71023029A1370236B002B6ED0F8B2FD
S1133C000221626B984769E0029A1370236B002BC0
S1133C1003D0F8B20421626B98472B7981E0039BAF
S1133C20012B29D1EB78039A134257D0029B1E70C3
S1133C302B79231C2C331B78002B09D1019B002BDF
S1133C4006D19823009A5B0513436A4612791A70C9
S1133C50236B002B03D0F8B20821626B9847A37D35
S1133C60002B04D0201C08211830FEF7A8FF0023E5
S1133C706360E360237554E02B79A268DBB2002A09
S1133C802AD022691370236901332361A368013B9D
S1133C90A360A368002B44D1019B002B13D1231CE8
S1133CA02C331B78002B06D19823009A5B05134311
S1133CB06A4612791A70E37D002B04D0201C20215F
S1133CC01830FEF77CFF002363752361236BF8B281
S1133CD02021002B20D124E0072321E06368002B5E
S1133CE01DD0E3681A782B1C80210C3349050B4343
S1133CF01B78002BF7D02A71E3680133E360636813
S1133D00013B63606368002B0BD1E3602375236B75
S1133D10002B06D01021F8B2626B984701E006230D
S1133D20237009B0F0BDC046FC6300001C020020F3
S1133D3084235B0503431A7800239A4209D0802325
S1133D4001305B0518430378012B01D0024B00E0DE
S1133D50024B181C7047C04680841E0000127A0073
S1133D6010B50D4A831D13431B78DBB2002B10D012
S1133D70012B08D1041CFFF7DBFF084B08341C435C
S1133D802378D84006E00020022B03D1044B1868A6
S1133D9000E0044810BDC046000008110000901067
S1133DA020020020006CDC020B4A831D13431B78A5
S1133DB0DBB2012B06D0181E0CD00320022B09D035
S1133DC0052007E0802301305B0518430078434257
S1133DD0584101307047C04600000811021C031C02
S1133DE09C20183340050343802018700020064BA4
S1133DF0134318700548931D03431B78D8B2002859
S1133E00F8D1034B0B607047000008130000081141
S1133E10006CDC02F8B5041C0D1C171C1E1CFFF7FB
S1133E20C3FF012802D1002D04D007E0022805D1E8
S1133E30012D03D1201C311CFFF7D0FF8022631C0D
S1133E40520513431D70842302225B0523431A7019
S1133E50231C0C4A083313437A00D2B21A7040224E
S1133E60094B23431A70094AA31D13431B78012BE2
S1133E70F9D1002D01D1064A00E0064A3A4100205A
S1133E803260F8BD00009010000008130000081113
S1133E9080841E0000127A000A4B10B51C681A1C9C
S1133EA00123002C0CD08024074B03431C70074CC7
S1133EB0831D23431B78022BF9D113680B60002365
S1133EC0181C10BD20020020000008130000081177
S1133ED09C23C9015B051843C9B201707047942340
S1133EE049015B051843C9B20170704770B5066893
S1133EF00C1C301C2049FCF747FB1F49051C301CD7
S1133F00FCF7C8FB0E1C081CE1210901FCF73CFB73
S1133F10E121E0800901301CFCF7BCFB0E1C081CED
S1133F203C21FCF731FB3C212081301CFCF7B2FB27
S1133F306E22124BA1722380FF32238895420BD943
S1133F40AD1A032201339BB22380B72113405A1EBA
S1133F5093414900CA1AF0E709499B0700D109496E
S1133F600123CA5C954201D8638003E00133AD1A92
S1133F700D2BF6D1A58070BD80510100B207000061
S1133F80276400001A64000030B5114A0188031C3C
S1133F908A180020812A19D85A88541E0B2C15D847
S1133FA09C88651E1E2D11D8DD88172D0ED81D89FD
S1133FB03B2D0BD89B7A3B2B08D88B0701D0054BA4
S1133FC000E0054B9B5CA3424041C0B230BDC046FB
S1133FD04EF8FFFF276400001A64000070B5124A0F
S1133FE0838804889A186E23FF3363434588D31863
S1133FF0A2089B180D4A6E00B25A9B18A20702D160
S1134000022D00D8013B0B60E1233C22C4881B0134
S11340105C4303895343827AE3189A180868044B73
S11340204343D3180B6070BD4A05F5FF00640000DC
S113403080510100084B1A6880231B029A4209D15F
S1134040A02310305B0518430368002B02D1013311
S1134050FF3303607047C04620020020021C802109
S113406010B500230124490510320A43146013607B
S113407090224360520504601C300243136088227E
S1134080520502431360842252050243084313601D
S1134090036010BD031C9022143352051343002205
S11340A01A604260103201601A60704703680B6046
S11340B070470000114B820070B5D5588022104B18
S11340C092051A60041C281CFFF7C8FF281CFFF780
S11340D0B1FF01201F22011C0A4B0B4E1B5D345DF6
S11340E0134099402240C0250B1C904007496D00A5
S11340F04B5148510B60086070BDC04638640000E5
S11341003C80845E356400003464000000E100E01B
S1134110F7B50027114B8000C658081C0D1C0197E9
S1134120FFF732FF041EBC4216D001A9281CFFF77A
S113413055FF381CFEF77AFF011C802000028142E3
S113414006D0FCF721FA011C0198FCF71DFA019036
S1134150301C0199FFF79EFF201CFEBD386400004F
S1134160F7B50025124B8000C4580E1C201C01A971
S11341700195FFF79BFF281CFEF758FF051C8020C4
S1134180000285420ED00B4B291C04341C43FCF75F
S1134190FBF92768019C291C4443B8B2FCF7F4F9E5
S11341A020180190311C01A8FFF7A0FEF7BDC046FE
S11341B03864000000007810F0B50026184B800029
S11341C085B0C458081C0F1C01920396FFF7DCFE4F
S11341D0051EB54201D100251EE0381C03A9FFF7D6
S11341E0FDFE301C2768FEF721FF011C8020000221
S11341F0814206D0FCF7C8F9011C0398FCF7C4F906
S11342000390039BBB42E6D3A36088231C345B0565
S11342101C43019B9B002360281C05B0F0BDC046D5
S1134220386400008822044B8000C35852051C33B4
S11342301343890019607047386400008822054BD5
S11342408000C3585205143313431868431E984121
S1134250C0B27047386400006B46E0221B78D2027B
S11342601B04134009071943014BC0180160704730
S11342704410000008B5084B8200D3589022033341
S1134280520513431B78002B02D000F015F901E00E
S113429000F07AF908BDC0464064000008B50C4B34
S11342A08000C2580B4B0021C3589C2003334005A7
S11342B01843117101709420400503431970137F52
S11342C08B4203D02032101CFEF767FC08BDC046A9
S11342D02802002040640000F7B5061C1C4B302265
S11342E00C1C8700081C0021FD5800F0DCFB301C6E
S11342F0FEF7A8FEFEF75AFE2060281C00F0E1FA43
S1134300201C00212030FEF741FCEB1C019390237C
S1134310019A5B0513431022281C1A70032100F034
S113432010FB281C002100F032FB0A4BFC500A4B06
S11343309A5D1F23134001229A40131C074A1360FD
S11343409823019A5B05134340221A70F7BDC046B7
S113435040640000280200203C64000000E100E00A
S1134360F8B50D4E84000D4BA759051CE05800F01C
S1134370A8FA381C2030FEF720FC094B281C5A5D93
S11343801F23134001229A40131C064AD367FEF7E9
S11343905EFE0023A351F8BD280200204064000003
S11343A03C64000004E100E00A4B800070B5C6588C
S11343B0094B0C1CC358151C301C1A68096800F002
S11343C087FA28602179301C6279A37900F0CCFA4D
S11343D070BDC0464064000028020020F7B51E4AA4
S11343E083009C581D4A9E5822790423002A31D107
S11343F0071C002902D001AAFFF7D6FF9823002149
S11344004020F21C5B0513431970187025698D4216
S113441003D1381CFFF742FF1BE0012323719423CF
S11344205B053343A16119780723002912D0A368DF
S1134430191E02D019780133A360B1712369013BBD
S11344402361A3690133A3619C235B051A43802381
S113445013700023181CFEBD2802002040640000D5
S1134460F8B5134F134C85002C59ED590127069EBE
S11344702777A2602661E3606661FFF7AFFF061E3F
S113448014D1201C07992030FEF7CAFB0328F8D06A
S113449000280BD09C210022EB1C490519432271F2
S11344A00A709421032649050B431A70301CF8BD89
S11344B0406400002802002010B51E4B8200D3582F
S11344C01D4951581A79002A32D05A69002A11D04C
S11344D09C2252050A431278002A0BD08A79DC68A0
S11344E0D2B2002C03D02270DA680132DA605A6941
S11344F0013A5A611A69002A12D0942252050A43D9
S11345001278002A0CD09A68141E02D01478013252
S11345109A608C711A69013A1A619A6901329A6136
S11345201A69002A04D15B69002B01D1FFF7B6FE9A
S113453010BDC0462802002040640000104A8000DC
S11345408158002208B50F4B0331C358581CC27759
S11345509C2040050843DA621A701A835A629A62F0
S11345601A6302709420400501430A701A1C383201
S11345701278002A03D0181D0121FEF720FB08BD84
S1134580406400002802002038B5254B8200D3582F
S113459024495258591CC97F00293FD0D96A00299F
S11345A016DB9421490511430978002910D0596A72
S11345B01C7F002905D0DD6A002D02DD0C78013155
S11345C059629471D96A0139D962596B01315963BD
S11345D0D96A002905DA9424D11C640521430024F6
S11345E00C70196B002911DD9C21490511430978D0
S11345F000290BD09279996AD2B2002903D00A70AB
S11346009A6A01329A621A6B013A1A63DA6A002AC8
S113461004DC1B6B002B01DCFFF790FF38BDC046A8
S11346202802002040640000012903D0032909D195
S1134630842300E094235B0518430078431E9841CB
S1134640C0B200E000207047034B01304901184319
S1134650C9B201707047C04600008812942302302A
S11346605B0549011843C9B201707047034B02301E
S113467089011843C9B201707047C046000008138D
S11346808C2302305B05C9001843C9B2017070471E
S1134690F7B5384EC21C164337780B78FFB20122A7
S11346A0072B65D8041C181C0D1CFBF763FF0419A9
S11346B02A0D192A2A3A00232F480134044323706F
S11346C03378012BFCD152E00322012F50D1402337
S11346D029480134044323703378042BFCD146E089
S11346E00021012B01D004230221307803229842B7
S11346F03ED1201CFFF7A8FF0421204A13698B43F5
S113470033E00227BB4207D100270B79BB4203D019
S11347104979201CFFF7AAFF194801340443277084
S113472019E004231649621C0A4313706A78A31C17
S11347300B431A706B78002B06D1AB78002B03D097
S1134740E978201CFFF78AFFAB79002B03D0E979C5
S1134750201CFFF795FF04213378084ADBB201934C
S1134760019B0133019313690B43136130BF002292
S1134770101CFEBD000030100000881200ED00E0A7
S113478000001010024B033018430078C0B2704789
S11347900000301014308023012A04D18A401B0504
S11347A01843026005E0DB04184301238B40D9431E
S11347B00160704701238B40002A01D0436000E070
S11347C0836070470023C222037043708370C370F8
S11347D043718371C371037242728372C3727047EF
S11347E0F0B5002789B00393FA2301253C1C9B00F4
S11347F053430690079102936D4201970123A3400E
S11348000493174B9E1CCA330593049B3188079865
S11348105943FBF7B9FE029B029AC31A824200D99C
S1134820131AAB4204D2B21E177801941D1E03D092
S1134830059B04369E42E8D10134032C01D0002D9F
S1134840DCD1039B002B00D01D603F231F40019B44
S11348509B011F43069BFFB25F7009B0F0BDC046C9
S11348605A640000942302305B0503431B78002B39
S113487004D088235B051843042303E080231B052D
S113488018433023037070479422831C52051A4343
S11348901278011C0220012A12D18022D20413436F
S11348A0CF221A708022D2002023C878034004D07B
S11348B0013A002A03D0C046F6E7181C00E009209C
S11348C070470423C37000238370437003717047DF
S11348D0F0B5130B89B001250493082300266D421B
S11348E003935B1907900591069202930227002413
S11348F0731C191C069879430193FBF745FE059B2D
S1134900834206D31B1A9D4203D91D1C04900394B1
S1134910029601347F00092C02D0002DE8D104E076
S1134920072E02D0019E002DE0D17022029B049834
S11349301B011340039A1343079ADBB2537009B067
S1134940F0BD8422C31C52051A4301230B405B00B3
S1134950DBB2137090238907C90F5B05023009018C
S11349601843C9B20170704710B58C240330640534
S1134970C9000443C9B2217088219200490501434A
S1134980D2B20A70802252051043037010BD8023F6
S1134990012202305B0503430A401A708C23890705
S11349A0C90F5B05C9001843C9B201707047011CE7
S11349B0002008B5021C031C00F03EF908BD0000ED
S11349C0014B18687047C046A4FFFF1F084B10B581
S11349D0041C002B02D0002100F08AF9054B186852
S11349E0836A002B00D09847201C00F0F5F9C046DC
S11349F0F14C00002465000038B5074B074C1D1C22
S1134A00E41AA410002C04D0013CA300EB589847EE
S1134A10F8E701F08FFD38BD4C65000050650000DB
S1134A200E4B70B500251E1C0D4CE41AA410A542B3
S1134A3004D0AB00F35898470135F8E701F074FD52
S1134A40084B00251E1C084CE41AA410A54204D0EF
S1134A50AB00F35898470135F8E770BD486500008E
S1134A6048650000486500004C65000008B5034B2C
S1134A70011C186800F066F808BDC046A4FFFF1FBB
S1134A8008B5034B011C186800F016F808BDC046B1
S1134A90A4FFFF1F002310B5934203D0CC5CC45481
S1134AA00133F9E710BD031C8218934202D0197038
S1134AB00133FAE77047000030B500293ED00439CD
S1134AC00B68002B00DAC9181D4A1368141C002B4C
S1134AD002D14B60116031E099420DD208680A1886
S1134AE09A4203D11368C3180B6053684B6021606A
S1134AF024E08A4203D8131C5A68002AF9D11D689D
S1134B005C198C420BD109686918581819609042D5
S1134B1014D110685268091819605A600EE08C426A
S1134B2002D90C23036009E008680C18944203D1ED
S1134B3014685268001908604A60596030BDC04664
S1134B4030020020032370B5CC1C9C430834051CA0
S1134B500C2C01D20C2405E0002C03DA0C230020D9
S1134B602B6042E08C42F9D3204A1368101C191CB4
S1134B70002913D00A68121B0DD40B2A02D90A602B
S1134B808B181FE08B4202D15A6802601BE04A680E
S1134B905A600B1C17E00B1C4968E9E7144E336894
S1134BA0002B03D1281C00F025F83060281C211CA0
S1134BB000F020F8031C421CD0D00322C61C9643EC
S1134BC086420AD11C60181C07210B301A1D884329
S1134BD0821A0AD05142995007E0311A281C00F079
S1134BE009F8431CBAD0331CECE770BD3002002036
S1134BF02C02002038B50023064C051C081C236039
S1134C00FBF744FE431C03D12368002B00D02B6028
S1134C1038BDC046C4020020031C0A7801311A7052
S1134C200133002AF9D170470023C25C0133002A02
S1134C30FBD1581E70470000F7B52A4D061C2C689E
S1134C400091171C0193002C01D1274C2C60636840
S1134C501F2B15DD254B002B02D10120404240E0E3
S1134C608C20FFF703FF041EF7D02A68002302609C
S1134C70021C88324360286013609E420AD128E0F7
S1134C80002E26D0231C88331868002810D1174B17
S1134C90002BE2D084204000FFF7E8FE0028DCD09F
S1134CA0031C0022FC335A609A60231C883318606A
S1134CB0012261688A408B00C31880C3FC304168BC
S1134CC0114341600199D967022E02D183681A43C6
S1134CD08260002063685A1C62600233009A9B0061
S1134CE01A51FEBDC0020020340200206D4A0000AB
S1134CF0F0B587B005900391344D2C68002C63D037
S1134D00231C88331E6863685A1E0192304A9B181C
S1134D109B00F7180433E3180293019B002B3DDB3F
S1134D20039B002B07D0002E31D03B1C80331B6823
S1134D30039A93422BD16268029B0199013A5B6802
S1134D40914201D1616002E0002202994A60002B85
S1134D501DD062680492002E07D0012201998A4076
S1134D60311CFC314868104201D1984708E0896839
S1134D70114203D105983968984701E0386898478B
S1134D80049B62689342B7D12B68A342B4D1019BC0
S1134D90043F013B0193029B043BBDE70D4B002BF9
S1134DA012D062682368002A0BD1002B09D02B6033
S1134DB0002E02D0301CFFF763FE201CFFF760FEBC
S1134DC09BE7251C1C1C99E707B0F0BDC00200201E
S1134DD0FFFFFF3F814A0000FEE7C0461B5B306DCA
S1134DE01B5B343B34336D1B5B313B33376D0D53ED
S1134DF0616E69747920636865636B206661696CB0
S1134E006564211B5B306D0A001B5B306D1B5B34DA
S1134E103B34316D1B5B313B33376D0D496E76612D
S1134E206C696420737570706C7920766F6C746132
S1134E306765205B25645D206D56211B5B306D0A20
S1134E40004D6561737572656D656E74206E756D68
S1134E506265722C205254432D3E5453522C2052DE
S1134E6054432D3E5450522C00204D4D413834357E
S1134E703120782C204D4D413834353120792C2087
S1134E804D4D4138343531207A2C0020494E413281
S1134E9031392063757272656E7420002052544358
S1134EA02D3E5453522C205254432D3E5450522CD8
S1134EB0202320436F6E666967204572726F727398
S1134EC00025752C2025642C2025642C00202564C5
S1134ED02C2025642C2025640A000D093078253007
S1134EE03278202D2D3E205B3078253032782030EA
S1134EF07825303278203078253032785D0A000DFC
S1134F0009307825303278202D2D3E203078253018
S1134F1032780A000D09307825303278202D2D3E64
S1134F20202D2D2D2D0A000D0A0925642F2564201E
S1134F307375636365737320726174652E0A000D63
S1134F400925642F25642073756363657373657322
S1134F50206D617463686564207265662E207661D5
S1134F606C7565206F66203078253032782E0A0003
S1134F700D0925642062616420636F6D6D616E6448
S1134F80732E0A0A000D0A094144584C3336322064
S1134F90526561642041626F727465642E204465B9
S1134FA0766963652044697361626C6564203A289C
S1134FB0000D0A4D4D4138343531513A0A0D000D7A
S1134FC00A0A424D453638302052656164204162F8
S1134FD06F727465642E2044657669636520446944
S1134FE07361626C6564203A28000D0A09424D58C9
S1134FF0303535616363656C2052656164204162BC
S11350006F727465642E2044657669636520446913
S11350107361626C6564203A2820000D0A09424DD0
S1135020583035356779726F20526561642041626A
S11350306F727465642E20446576696365204469E3
S11350407361626C6564203A2820000D0A092042CD
S11350504D583035356D6167205265616420416279
S11350606F727465642E20446576696365204469B3
S11350707361626C6564203A2820000D0A094D4171
S1135080473331313020526561642041626F72745C
S113509065642E20446576696365204469736162A2
S11350A06C6564203A2820000D0A094C33474432C9
S11350B0304820526561642041626F727465642EC9
S11350C0204465766963652044697361626C656434
S11350D0203A2820000D0A094C50533235482052FA
S11350E06561642041626F727465642E2044657644
S11350F06963652044697361626C6564203A2820A1
S1135100000D0A0954435333343732352052656154
S1135110642041626F727465642E2044657669630D
S1135120652044697361626C6564203A2820000D2F
S11351300A0953493437303520526561642041628D
S11351406F727465642E20446576696365204469D2
S11351507361626C6564203A2820000D0A09484492
S1135160433130303020526561642041626F727483
S113517065642E20446576696365204469736162C1
S11351806C6564203A2820000D0A095349373032EF
S11351903120526561642041626F727465642E200F
S11351A04465766963652044697361626C65642053
S11351B03A2820000D0A09434353383131205265FF
S11351C061642041626F727465642E20446576695F
S11351D063652044697361626C6564203A28200029
S11351E00D0A09414D473838333420526561642033
S11351F041626F727465642E20446576696365202C
S113520044697361626C6564203A2820000D0A09C0
S113521041533732363220526561642041626F72E5
S11352207465642E204465766963652044697361FE
S1135230626C6564203A2820000D0A094153373214
S1135240363320526561642041626F727465642E46
S1135250204465766963652044697361626C6564A2
S1135260203A2820000D09496E76616C6964207724
S113527061727053656E736F7244657669636520FD
S11352805B25645D2070617373656420746F2072A4
S1135290657065617452656769737465725265619E
S11352A064466F72446576696365416E6441646403
S11352B0726573732E0A000D09506F7765727570ED
S11352C020636F6D6D616E64206661696C65642E28
S11352D020424D583035352064697361626C6564D1
S11352E0200A000D09506F776572646F776E206332
S11352F06F6D6D616E64206162616E646F6E656472
S11353002E20424D583035352064697361626C65D6
S1135310640A000D09506F776572646F776E2063BD
S11353206F6D6D616E64206162616E646F6E656441
S11353302E204C3347443230482064697361626CD8
S113534065640A000D09506F776572646F776E208B
S1135350636F6D6D616E64206162616E646F6E6512
S1135360642E2054435333343732352064697361D7
S1135370626C65640A000A0A0A0D426F6F74696EF2
S11353806720576172702C20696E20332E2E2E20D8
S113539000322E2E2E2000312E2E2E0A0D000D0A44
S11353A00A0A0A5B202A09090909570961097209CD
S11353B07009287265762E2062290909092A205D60
S11353C00A000D5B20200909090920202020202043
S11353D043616D627269646765202F205068797338
S11353E0636F6D706C616220202009090909202017
S11353F05D0A0A000D09537570706C793D25646D62
S1135400562C0944656661756C7420546172676535
S11354107420526561642052656769737465723DD6
S11354203078253032780A000D094932433D25642D
S11354306B622F732C095350493D25646B622F73A3
S11354402C09554152543D25646B622F732C094934
S113545032432050756C6C2D55703D25640A0A004A
S11354600D0953494D2D3E53434743363D3078256E
S113547030327809095254432D3E53523D30782539
S113548030327809095254432D3E5453523D3078FA
S1135490253032780A000D094D43475F43313D30D2
S11354A078253032780909094D43475F43323D304E
S11354B0782530327809094D43475F533D307825CC
S11354C03032780A000D094D43475F53433D30782D
S11354D0253032780909094D43475F4D433D307803
S11354E02530327809094F53435F43523D307825C4
S11354F03032780A000D09534D435F504D50524FDE
S1135500543D307825303278090909534D435F50B2
S11355104D4354524C3D3078253032780909534379
S1135520422D3E5343523D3078253032780A000DE7
S113553009504D435F52454753433D30782530323F
S11355407809090953494D5F53434743343D307843
S113555025303278095254432D3E5450523D307810
S1135560253032780A0A000D0925647320696E20FB
S11355705254432048616E646C657220746F2D64CC
S11355806174652C09256420506D67722045727220
S11355906F72730A000D53656C6563743A0A000DEB
S11355A02D202761273A2073657420646566617530
S11355B06C742073656E736F722E0A000D2D202794
S11355C062273A207365742049324320626175640E
S11355D020726174652E0A000D2D202763273A205E
S11355E0736574205350492062617564207261743C
S11355F0652E0A000D2D202764273A207365742038
S113560055415254206261756420726174652E0A9A
S1135610000D2D202765273A207365742064656684
S113562061756C7420726567697374657220616456
S113563064726573732E0A000D2D202766273A20A5
S11356407772697465206279746520746F2073655C
S11356506E736F722E0A000D2D202767273A207370
S113566065742064656661756C742053535355509A
S1135670504C592E0A000D2D202768273A20706FB0
S1135680776572646F776E20636F6D6D616E6420F1
S1135690746F20616C6C2073656E736F72732E0A65
S11356A0000D2D202769273A207365742070756CCE
S11356B06C2D757020656E61626C652076616C7509
S11356C0652E0A000D2D20276A273A207265706521
S11356D061742072656164207265672030782530BA
S11356E03278206F6E2073656E736F722023256489
S11356F02E0A000D2D20276B273A20736C656570E8
S113570020756E74696C2072657365742E0A000DC1
S11357102D20276C273A2073656E642072657065AE
S1135720617465642062797465206F6E2049324328
S11357302E0A000D2D20276D273A2073656E6420F4
S113574072657065617465642062797465206F6E3A
S1135750205350492E0A000D2D20276E273A20652C
S11357606E61626C65205353535550504C592E0A48
S1135770000D2D20276F273A2064697361626C65E0
S1135780205353535550504C592E0A000D2D2027A9
S113579070273A2073776974636820746F20564CBD
S11357A05052206D6F64652E0A000D2D202772273C
S11357B03A2073776974636820746F2052554E20C1
S11357C06D6F64652E0A000D2D202773273A207013
S11357D06F77657220757020616C6C2073656E73D1
S11357E06F72732E0A000D2D202774273A206475DA
S11357F06D702070726F636573736F722073746160
S113580074652E0A000D2D202775273A20736574C0
S11358102049324320616464726573732E0A000D5B
S11358202D202778273A2064697361626C652053C0
S1135830574420616E64207370696E20666F722015
S1135840313020736563732E0A000D2D20277A27CB
S11358503A2064756D7020616C6C2073656E736F93
S1135860727320646174612E0A000D456E74657252
S11358702073656C656374696F6E3E20000D095377
S1135880656C6563743A0A000D092D2027312720C1
S11358904144584C33363209090928307830302DC8
S11358A02D30783244293A20312E3656202D2D20A1
S11358B0332E35562028636F6D70696C6564206FD4
S11358C0757429200A000D092D2027322720424D06
S11358D058303535616363656C20090928307830A8
S11358E0302D2D30783346293A20322E3456202D4F
S11358F02D20332E36562028636F6D70696C6564D5
S1135900206F757429200A000D092D2027332720C4
S1135910424D583035356779726F09090928307856
S113592030302D2D30783346293A20322E3456200B
S11359302D2D20332E36562028636F6D70696C65CB
S113594064206F757429200A000D092D202734273F
S113595020424D583035356D616709090928307882
S113596034302D2D30783532293A20322E345620D9
S11359702D2D20332E36562028636F6D70696C658B
S113598064206F757429200A000D092D20273527FE
S1135990204D4D41383435315109090928307830CA
S11359A0302D2D30783331293A20312E3935562097
S11359B02D2D20332E36560A000D092D202736278B
S11359C0204C505332354809090928307830382D95
S11359D02D30783234293A20312E3756202D2D207F
S11359E0332E36562028636F6D70696C6564206FA2
S11359F0757429200A000D092D20273727204D41D1
S1135A00473331313009090928307830302D2D30B1
S1135A10783131293A20312E393556202D2D203335
S1135A202E36562028636F6D70696C6564206F751F
S1135A307429200A000D092D2027382720484443C3
S1135A403130303009090928307830302D2D307844
S1135A503146293A20332E3056202D2D20352E3034
S1135A60562028636F6D70696C6564206F757429A6
S1135A70200A000D092D20273927205349373032B9
S1135A803109090928307830302D2D3078304629F5
S1135A903A20312E3956202D2D20332E36562028EB
S1135AA0636F6D70696C6564206F757429200A00DA
S1135AB00D092D20276127204C33474432304809F3
S1135AC0090928307830462D2D30783339293A2089
S1135AD0322E3256202D2D20332E36562028636F39
S1135AE06D70696C6564206F757429200A000D0956
S1135AF02D2027622720424D4536383009090928D0
S1135B00307841412D2D30784638293A20312E36CF
S1135B1056202D2D20332E36562028636F6D706944
S1135B206C6564206F757429200A000D092D2027E7
S1135B306427205443533334373235090909283054
S1135B407830302D2D30783144293A20322E375692
S1135B50202D2D20332E33562028636F6D70696CF1
S1135B606564206F757429200A000D092D202765AE
S1135B702720534934373035090909286E2F612904
S1135B803A2020202020202020322E3756202D2D70
S1135B9020352E35562028636F6D70696C6564203E
S1135BA06F757429200A000D092D202766272050BF
S1135BB0414E31333236090909286E2F61292028D4
S1135BC0636F6D70696C6564206F757429200A00B9
S1135BD00D092D2027672720434353383131090904
S1135BE00928307830302D2D30784646293A203136
S1135BF02E3856202D2D20332E36562028636F6DD7
S1135C0070696C6564206F757429200A000D092D74
S1135C102027682720414D4738383334090909289B
S1135C20307830302D2D3F293A203F56202D2D201D
S1135C303F562028636F6D70696C6564206F7574BE
S1135C4029200A000D092D20276A272041533732C5
S1135C50363209090928307830302D2D3078324217
S1135C60293A20322E3756202D2D20332E36562019
S1135C7028636F6D70696C6564206F757429200AE0
S1135C80000D092D20276B27204153373236330965
S1135C90090928307830302D2D30783242293A20C5
S1135CA0322E3756202D2D20332E36562028636F62
S1135CB06D70696C6564206F757429200A000D0984
S1135CC0456E7465722073656C656374696F6E3EAE
S1135CD020000D09496E76616C69642073656C65FA
S1135CE06374696F6E202725632720210A000D0A3B
S1135CF009536574204932432062617564207261DE
S1135D00746520696E206B6270732028652E672E7F
S1135D102C20273030303127293E20000D0A094934
S1135D203243206261756420726174652073657406
S1135D3020746F202564206B622F73000D0A0953B1
S1135D4065742053504920626175642072617465E2
S1135D5020696E206B6270732028652E672E2C20BC
S1135D60273030303127293E20000D0A095350498D
S1135D70206261756420726174653A202564206B29
S1135D80622F73000D0A0953657420554152542043
S1135D9062617564207261746520696E206B627043
S1135DA0732028652E672E2C202730303031272988
S1135DB03E20000D0A095541525420626175642049
S1135DC0726174653A202564206B622F73000D0A9A
S1135DD009456E74657220322D6E7962626C65209D
S1135DE0726567697374657220686578206164649C
S1135DF0726573732028652E672E2C202733652740
S1135E00293E20000D0A09456E7465726564205BA5
S1135E103078253032785D2E0A0A000D0A09456E65
S1135E207465722049324320616464722E202865AF
S1135E302E672E2C202730662729206F72202739C1
S1135E40392720666F7220535049203E20000D0AE6
S1135E5009456E7465726564205B3078253032784C
S1135E605D2E0A000D0A09456E7465722068657816
S1135E70206279746520746F2073656E64202865D0
S1135E802E672E2C2027306627293E20000D0A0974
S1135E90535049207772697465206661696C656442
S1135EA02E204144584C3336322044697361626C6D
S1135EB06564000D0A0949324320777269746520CC
S1135EC06661696C65642C206572726F722025644A
S1135ED02E0A0A000D0A094F7665727269646520FC
S1135EE05353535550504C5920696E206D562028F9
S1135EF0652E672E2C20273138303027293E20008C
S1135F000D0A094F766572726964652053535355BF
S1135F1050504C592073657420746F202564206D93
S1135F2056000D0A094E4F54453A2046697273745F
S1135F3020706F7765722073656E736F7273206162
S1135F406E6420656E61626C65204932430A0A0002
S1135F500D0A0944656661756C742070756C6C7506
S1135F607020656E61626C652076616C7565206970
S1135F706E206B696C6F4F686D732028652E672ED9
S1135F802C20273030303027293E20000D0A0949C3
S1135F90326350756C6C757056616C7565207365F1
S1135FA07420746F2025640A000D0A094175746F0A
S1135FB02D696E6372656D656E742066726F6D20F7
S1135FC0626173652061646472657373203078253F
S1135FD03032783F205B273027207C202731275D13
S1135FE03E20000D0A094368756E6B20726561647A
S1135FF07320706572206164647265737320286510
S11360002E672E2C20273127293E20000D0A094314
S113601068617474793F205B273027207C20273106
