S02B00002F686F6D652F6B673437322F576172702D6669726D776172652F6275696C642F6B73646B312E312F31
S113000000060020310500005905000059050000D4
S113001000000000000000000000000000000000DC
S1130020000000000000000000000000590500006E
S11300300000000000000000590500005905000000
S11300405905000059050000590500005905000034
S11300505905000059050000590500005905000024
S11300603D270000590500004727000059050000FE
S11300705905000059050000590500005905000004
S113008059050000590500005905000059050000F4
S1130090E5080000FD0800005905000059050000AE
S11300A059050000590500005905000059050000D4
S11300B059050000590500005905000059050000C4
S1130400FFFFFFFFFFFFFFFFFFFFFFFFFE3DFFFFBB
S113041008B5054B054803331B1A062B03D9044BB7
S1130420002B00D0984708BDACFFFF1FACFFFF1F97
S1130430000000000648074908B5091A8910CB0FC7
S11304405918491003D0044B002B00D0984708BD1D
S1130450ACFFFF1FACFFFF1F0000000010B5074CEE
S11304602378002B09D1FFF7D3FF054B002B02D0D3
S1130470044800E000BF0123237010BDACFFFF1F40
S1130480000000000462000008B5094B002B03D0F3
S11304900848094900E000BF08480368002B02D15E
S11304A0FFF7C8FF08BD064B002BF9D09847F7E7C4
S11304B00000000004620000B0FFFF1FA8FFFF1F40
S11304C000000000144B002B00D1124B9D4640222B
S11304D092029A1A924600218B460F461148124AFC
S11304E0121A04F042F90D4B002B00D098470C4B24
S11304F0002B00D098470020002104000D000B4879
S113050004F0B7F804F0EEF82000290000F09AFE99
S113051004F0BEF8000008000006002000000000FF
S113052000000000ACFFFF1FB4020020BD46000025
S113053072B606480649074A02600A6002F008F9E2
S113054002F048F962B6FFF7BDFF000080E100E069
S113055080E200E0FFFFFFFF00480047590500006C
S113056002B4714649084900095649008E4402BC48
S11305707047C04602B4714649084900095C490005
S11305808E4402BC7047C046002243088B4274D399
S113059003098B425FD3030A8B4244D3030B8B4280
S11305A028D3030C8B420DD3FF22090212BA030C89
S11305B08B4202D31212090265D0030B8B4219D36A
S11305C000E0090AC30B8B4201D3CB03C01A52418A
S11305D0830B8B4201D38B03C01A5241430B8B42D2
S11305E001D34B03C01A5241030B8B4201D30B03BB
S11305F0C01A5241C30A8B4201D3CB02C01A5241E2
S1130600830A8B4201D38B02C01A5241430A8B42A4
S113061001D34B02C01A5241030A8B4201D30B028D
S1130620C01A5241CDD2C3098B4201D3CB01C01AA7
S1130630524183098B4201D38B01C01A52414309B1
S11306408B4201D34B01C01A524103098B4201D39F
S11306500B01C01A5241C3088B4201D3CB00C01A0C
S1130660524183088B4201D38B00C01A5241430884
S11306708B4201D34B00C01A5241411A00D20146A9
S1130680524110467047FFE701B5002000F0FCF826
S113069002BDC0460029F7D003B5FFF775FF0EBCB5
S11306A04243891A1847C04603460B437FD40022AD
S11306B043088B4274D303098B425FD3030A8B42F2
S11306C044D3030B8B4228D3030C8B420DD3FF225C
S11306D0090212BA030C8B4202D31212090265D02A
S11306E0030B8B4219D300E0090AC30B8B4201D3DD
S11306F0CB03C01A5241830B8B4201D38B03C01A24
S11307005241430B8B4201D34B03C01A5241030B9A
S11307108B4201D30B03C01A5241C30A8B4201D34B
S1130720CB02C01A5241830A8B4201D38B02C01AF6
S11307305241430A8B4201D34B02C01A5241030A6D
S11307408B4201D30B02C01A5241CDD2C3098B4252
S113075001D3CB01C01A524183098B4201D38B01CF
S1130760C01A524143098B4201D34B01C01A524172
S113077003098B4201D30B01C01A5241C3088B42B7
S113078001D3CB00C01A524183088B4201D38B00A2
S1130790C01A524143088B4201D34B00C01A524144
S11307A0411A00D201465241104670475DE0CA0F1B
S11307B000D04942031000D34042534000229C46DB
S11307C003098B422DD3030A8B4212D3FC228901E5
S11307D012BA030A8B420CD3890192118B4208D3BB
S11307E0890192118B4204D389013AD0921100E01D
S11307F08909C3098B4201D3CB01C01A5241830931
S11308008B4201D38B01C01A524143098B4201D35D
S11308104B01C01A524103098B4201D30B01C01A88
S11308205241C3088B4201D3CB00C01A5241830802
S11308308B4201D38B00C01A5241D9D243088B4258
S113084001D34B00C01A5241411A00D201466346FB
S113085052415B10104601D34042002B00D549425F
S1130860704763465B1000D3404201B5002000F09E
S11308700BF802BD0029F8D003B5FFF715FF0EBC35
S11308804243891A1847C0467047C04608B50A4B08
S11308901A68002A01D1094A1A601A68084910180E
S11308A0884206D903F0EEFE0C2303600120404287
S11308B001E01860101C08BDC8FFFF1FB80200202B
S11308C0B80200200223807883428041404270476E
S11308D0437A0020013B012B03D901200B7801331B
S11308E00B70704708B5002003F00AFB002803D002
S11308F00020011C03F0F8FA08BD0000024A136846
S1130900013313607047C0460800002037B500204B
S113091002F0FAF9C02300250D4A9B0013600D4A2A
S11309200D4C13600D4A281C13600D4B2571657125
S1130930A5711A68FA239B0053430A49236003F004
S11309402DFB281C211C01AA03F090FB37BDC046D7
S1130950189014541C9014540000002000A0145447
S113096014FEFF1F0C00002010B58024002003F0AB
S113097059FB0A4B64001C60094B07201C60094B9F
S11309801C6002F05BFC062002F058FC201C02F004
S113099055FC002002F0BDF910BDC0461890145457
S11309A01C90145400A0145408B5002002F0B6F9A9
S11309B08023054A9B001360044A00201360044905
S11309C002F01CFD08BDC0460CA0145410A0145421
S11309D0CCFFFF1F08B5002002F04CFD80238220CD
S11309E0074A5B001360074A4000136002F026FCCC
S11309F00420FF3002F022FC002002F094F908BD2C
S1130A000CA0145410A0145408B50023354A3649D8
S1130A101360364A1360364A0133FF331360354A94
S1130A201360354A1360354A1360354A1360354AFA
S1130A301360354A1360012208780240081C3349C8
S1130A40002A01D00B6000E00A60314A314913608A
S1130A5000220A6030490A60304A1360304A136049
S1130A60304A1360304A1360304A1360304A1360CE
S1130A700378DB0703D50220FF3002F0D1FB092005
S1130A8002F0DCFB0C2002F0D9FB052002F0D6FBBF
S1130A90082002F0D3FB0620FF3002F0CFFB0E202B
S1130AA0FF3002F0CBFB8320400002F0C7FB08209C
S1130AB0FF3002F0C3FB0C20FF3002F0B1FB8220B8
S1130AC0400002F0BBFB0420FF3002F0B7FB07201C
S1130AD002F0B4FB062002F0B1FB8020400002F0DB
S1130AE0ADFB08BD0C9014540CFEFF1F1090145461
S1130AF014901454189014541C90145420901454AA
S1130B00249014543090145400A0145404A0145489
S1130B1008A014540CA0145410A0145414A0145479
S1130B2018A014541CA0145428A014542CA0145419
S1130B3034A0145408B5092002F080FB08BD08B5A0
S1130B400C2002F07BFB08BD08B5384B984259D005
S1130B5013D8374B984243D007D8364B984230D0FD
S1130B606433984238D0C83B12E0334B98423ED0AD
S1130B706433984242D0314B15E0314B98422FD028
S1130B800CD8304B98421CD06433984224D02E4B5E
S1130B90984242D1052002F051FB15E02B4B9842BC
S1130BA025D006D82A4B984237D1052002F046FBBF
S1130BB020E0C8231B01984220D0264B984221D024
S1130BC02BE0052002F02CFB082002F037FB062066
S1130BD0FF3002F033FB24E0052002F02FFB02E09B
S1130BE0052002F01DFB082002F01AFBEFE70520A8
S1130BF002F016FB082002F021FB09E0052002F0B8
S1130C001DFB02E0052002F00BFB082002F008FBAC
S1130C100620FF3002F004FB03E000200E4901F03F
S1130C2081FD0E4B186801F099FE08BDC40900004F
S1130C30340800006C070000FC080000980800005D
S1130C40540B00008C0A0000280A00001C0C000051
S1130C50B80B0000E40C0000A04A000008FEFF1FCF
S1130C6008B5FFF771FF092002F0DAFA0C2002F050
S1130C70E5FA8320400002F0E1FA08BD08B5FFF769
S1130C8063FF092002F0DAFA0C2002F0C9FA83208B
S1130C90400002F0C5FA08BDAF2108B50B4B021C99
S1130CA0C3189BB289008B4202D8FFF7D9FF0BE02F
S1130CB0074BC3189BB28B4202D8FFF7DFFF03E058
S1130CC00020044901F02EFD08BDC046F8F8FFFFDE
S1130CD0D8F5FFFFCD4A000008B5FFF72BFFFFF75B
S1130CE02EFF8320400002F09BFA024B186801F0AB
S1130CF035FE08BD08FEFF1F10B5041C002901D0F5
S1130D00FFF782FE0021022001F07AF8211C042062
S1130D1001F076F810BD08B501200021FFF7ECFFC3
S1130D203C200121FFF7E8FFF6E70000F0B585B0AD
S1130D300391041C161C00209AB2012101F0FDF855
S1130D40071C002C1CD01C49002001F0DBFA1B4CB2
S1130D50206801F003FE1A49002001F0D3FA20684C
S1130D6001F0FCFD1749002001F0CCFA206801F0E5
S1130D70F5FD0020144901F0C5FA206801F0EEFDEC
S1130D800025124C124923686268002000922A1C34
S1130D9001F0C8FC039801F011F92268002063688F
S1130DA00C49009701F0BEFC002E02DD301C01F05E
S1130DB0D5FD0135E5E7C046304B000000FEFF1FBE
S1130DC0584B00007A4B0000F65A000000D0034054
S1130DD09F4B0000AB4B0000F0B591B01D1C16AB4F
S1130DE00C91197817AB05921A7818AB1B78041C70
S1130DF00D931CAB1B780EA80E931DAB1B88089398
S1130E0021231B18DB7F09931FAB1B880F9320AB97
S1130E101B780A930B1C914200D9131CDFB2059B6B
S1130E20002D02D1002B06D101E0002B03D00020BD
S1130E30544901F077FC0898FFF72EFF211C00208D
S1130E4001F060FA0023089C029303930793049330
S1130E5000230693069A199B93426BDB00261A9B88
S1130E609E4264DABB190B932C226B469B181878AC
S1130E7001210C9B9847002838D1049B013304932B
S1130E80089B9C4204D9643CA4B2201CFFF704FFD5
S1130E90002D16D0099A6B7BD31A5A425341039AF8
S1130EA0D31803930A9B002B39D0EB7A287B697BF8
S1130EB000900191DBB2F2193349002001F032FCB9
S1130EC02DE0059B099A1B7AD31A5A425341039A7F
S1130ED0D31803930A9B002B21D0059BF2191B7A8C
S1130EE0281CDBB2294901F01DFC18E0022810D1AE
S1130EF0002027490B9A01F015FC079B0133079347
S1130F000F9B9C420BD26434A4B2201CFFF7C4FE96
S1130F1005E0033843425841029B1B1802931B9B74
S1130F20002B02DD181C01F019FD013697E7069B22
S1130F3001338EE70E9B002B04D07B1CDFB20D9B8C
S1130F409F4285D9049A079B944612496344002022
S1130F5001F0E8FB322001F001FD099B039A0093A4
S1130F600D49049B002001F0DDFB322001F0F6FC6A
S1130F700A49029A002001F0D5FB322001F0EEFC70
S1130F8011B0F0BDA04A0000B84B0000DD4B0000DA
S1130F90F24B0000054C00001D4C00004E4C0000BC
S1130FA0F0B591B01D1C16AB40CB041C1B780F1C74
S1130FB00C931AAB1B880D931BAB1B880E931CABB5
S1130FC01B780F93002810D0101CFFF7EDFC601E57
S1130FD0112858D8FFF7CEFA0D26292C2F57323571
S1130FE0383B3E41444A47574D502B4901F08AF95A
S1130FF04FE0312200230292199A00970392189A23
S1131000019305920D9A049607920F9A06950892F9
S11310100E9A224809920C9A21490A92214AFFF712
S1131020DBFE2DE00020204928E000201F4925E0B8
S113103000201F4922E000201E491FE000201E4915
S11310401CE000201D4919E000201D4916E0002085
S11310501C4913E000201C4910E000201B490DE04E
S113106000201B490AE000201A4907E000201A4921
S113107004E00020194901E00020194901F042F977
S1131080FFF7A8FC05E01749221C002001F04AFBE9
S1131090F6E711B0F0BDC046634C00008F4C000071
S11310A0591F0000F0FFFF1F9D4C0000C84C0000BA
S11310B0F94C0000294D0000594D0000864D0000F8
S11310C0B34D0000DF4D00000D4E0000394E00000E
S11310D0664E0000924E0000BE4E0000EB4E000033
S11310E0174F0000434F0000031C303B021C181E26
S11310F009280CD9131C613B052B01D8573A05E08C
S1131100131C413B0020052B01D8373A101C7047B3
S113111070B501F012F9051C01F00FF9FF24061C4B
S1131120281C2040FFF7E0FF051C301C2040FFF77F
S1131130DBFF2D012818C0B270BD70B501F0FDF8B9
S1131140041C01F0FAF8061C01F0F7F8051C01F084
S1131150F4F8FF23FA221C401D409200303C544313
S113116064212A1C1E40303E4E43303A5A394A43C9
S1131170A4190340A218303BD01870BD70B50C1CE4
S1131180161C88B00CAA157806A908800A4A05A876
S113119005700A4D12682D684A6004AA1670009002
S11311A001930295231C002002F08AFA431E984101
S11311B0400008B070BDC04610FEFF1F18FEFF1FA0
S11311C0F7B56A46CB1DDB08DB00D31A02AF9D4698
S11311D0051C0C1CFFF79AFBFA23002002AE9B00AF
S11311E02A1C00940193011C331C02F09BFF041C75
S11311F0FFF7BAFB201CBD46441EA0418000F2BD8F
S113120008B50020014901F07DF808BD954F0000A4
S113121010B5094C0020211C01F074F8211C002099
S113122001F070F80549002001F06CF80449002031
S113123001F068F810BDC046C14F0000F14F000036
S113124022500000F0B5B9B025AC00210722201CC3
S113125003F08BFAFA4A01252C92032215AB2F9343
S113126017AB309319AB32931DAB34931FAB35934B
S113127021AB369323AB37932CAB1BAF1A710020F1
S113128011AA2E92149333972570319401F034FDF2
S1131290281C01F031FD8022EA4B12021A6001F091
S11312A07BFB00200095021C031C011C01F04CF880
S11312B0E549002001F026F8C82001F04FFBE3497E
S11312C0002001F01FF8C82001F048FBE04900208D
S11312D001F018F8C82001F041FBDE4A2B1C022162
S11312E0DD4801F07DFB291C281C01F085FB002052
S11312F002F042FD0026FC2329A9DB00301C0B80F0
S11313004D808D80CE800E818E7202F063FD311C83
S11313102A1C11A803F029FA4820259B08A919932F
S1131320A28809180A80A279023008A909180A704B
S1131330442108AA5218413911701B93A28808A9A4
S1131340BA80A2791038BA7105223A701593A2882E
S113135002270A87A27909180A70342108AA5218A8
S113136017701793A288063008A909180A80A27971
S1131370C01908A909180A700422063808A909180E
S11313800A701D93A2881C3008A909180A80A27942
S1131390C01908A909180A700822063808A90918EA
S11313A00A701F93A2880C3008A909180A80C01972
S11313B0A27908A909180A700921063808AA12187E
S11313C011702193A3880C3008AA12181380A379F2
S11313D0C01908AA121813700A23063808AA12188A
S11313E013706C2208AB9B181E7014AA2B1C2FA818
S11313F001F0E2FC311C381C00F002FD97499848CA
S113140001F0F2FEFFF700FB0820FF3001F008FFB7
S1131410C82001F0A3FA0820FF3001F00FFFC82014
S113142001F09CFA0820FF3001F0FAFEC82001F018
S113143095FA0820FF3001F001FFC82001F08EFA70
S11314400820FF3001F0ECFEC82001F087FA0820E4
S1131450FF3001F0F3FE1D20824900F069FDFFF723
S11314603BFC80231B020A93331C089609960C96B6
S113147003330B937C49002000F044FF7B4C7C4FEA
S1131480206801F06BFA7B49002000F03BFF2068E4
S113149001F064FA7849089A099B002001F042F9A6
S11314A0206801F05BFA754D754E76492A683368F9
S11314B00968002000910A990191734901F032F9F9
S11314C0206801F04BFA714B714A0020D2587B69B5
S11314D0396800916F4901F025F9206801F03EFA5E
S11314E06D4B6D491A785B788979D2B2DBB2009181
S11314F000206A4901F016F9206801F02FFA664BC2
S113150067491A7A1B7E0978D2B2DBB200910020B7
S1131510644901F007F9206801F020FA624B63493D
S11315201A785B780969D2B2DBB200910020604975
S113153001F0F8F8206801F011FA5E4B54499A78EA
S11315405D4BD2B2CB587968002000915B4901F021
S1131550E9F8206801F002FA594B5A491A6811ABAC
S11315601B78002001F0DEF8206801F0F7F95649F5
S1131570002000F0C7FE206801F0F0F95349002074
S113158000F0C0FE206801F0E9F95149002000F0A4
S1131590B9FE206801F0E2F94E49002000F0B2FEE5
S11315A0206801F0DBF94C49002000F0ABFE206814
S11315B001F0D4F94949002000F0A4FE206801F0AC
S11315C0CDF94749002000F09DFE206801F0C6F9DE
S11315D04449002000F096FE206801F0BFF942491A
S11315E0002000F08FFE206801F0B8F93F49002088
S11315F000F088FE206801F0B1F9099A0B9B3C4980
S1131600002001F08FF8206801F0A8F93949002082
S113161000F078FE206801F0A1F93749002000F0BD
S113162071FE206801F09AF93449002000F06AFE46
S1131630206801F093F93249002000F063FE61E074
S1131640D10800000C020020545000006F5000002C
S11316507550000028FEFF1F2CFFFF1F3CFEFF1FDC
S11316602CFEFF1FF0FFFF1F7C50000000FEFF1F39
S113167000D00340A0500000D250000010FEFF1F15
S113168014FEFF1F04FEFF1F065100003C10000063
S1131690007004403E5100000040064074510000B8
S11316A000500640A351000000E0074000ED00E0B8
S11316B0D351000000D00740341000000D52000048
S11316C00800002045520000735200007D520000C3
S11316D09A520000B6520000D2520000EF520000AD
S11316E01653000035530000545300007F5300008C
S11316F0A2530000D1530000ED5300001154000028
S113170035540000206801F029F9E349002000F075
S1131710F9FD206801F022F9E049002000F0F2FD13
S1131720206801F01BF9DE49002000F0EBFD206881
S113173001F014F9DB49002000F0E4FD206801F019
S11317400DF9D949002000F0DDFD206801F006F90B
S1131750D649002000F0D6FD206801F0FFF8D449F6
S1131760002000F0CFFD206801F0F8F8D1490020F6
S113177000F0C8FD206801F0F1F8CF49002000F026
S1131780C1FD206801F0EAF800F0D7FDFF22071C34
S113179002406B2A00D157E200DD94E0652A00D1B3
S11317A0F1E11CDC622A00D164E106DC0A2A00D1E2
S11317B0C2E2612A00D1CFE0C4E2632A00D1D1E1C0
S11317C0642A00D0BEE2BD49002000F09BFDFFF773
S11317D0B4FCBB4BBB4918601A680020B4E2682A09
S11317E000D11DE211DC662A00D1D7E1672A00D0BE
S11317F0A8E2B549002000F085FDFFF79EFC83B206
S113180008931A1C0020B1499EE2692A00D10FE214
S11318106A2A00D096E2099AAD49002000F082FFBE
S113182000F08BFDAB49041C002000F06BFD00F0C0
S113183084FDA9490D90002000F064FD00F07DFDB9
S1131840A6490E90002000F05DFDFFF776FCA44948
S1131850051C002000F056FDFFF76FFCA149061C93
S1131860002000F04FFDFFF768FC9F490F90002017
S113187000F048FDFFF74CFC0A9B071C01930295FE
S11318809A490B9A099B0096002000F04BFF231CF9
S11318900D9A303B303A00920E9A1C1C303A511E7D
S11318A08A410192089A631E9C4104926A460295F9
S11318B00396958FE3B2059506970B9809990A9AB2
S11318C0FFF76EFBD6E5722A00D10DE20CDC6E2A1E
S11318D000D100E200DABDE16F2A00D100E202206B
S11318E0702A00D101E22DE2752A00D10AE206DC59
S11318F0732A00D1FEE1742A00D1BBE522E2782AE2
S113190000D10FE27A2A00D01CE27949002000F0CD
S1131910F9FC0A98FFF748F87649002000F0F2FC39
S113192000F00BFD7449051C002000F0EBFCFFF7F0
S113193004FC86B27149321C002000F0F3FE2068DA
S113194001F00CF8E9B268394D4269410120C9B28D
S1131950321C0A9BFFF7EAF96949002000F0D2FC27
S11319606849002000F0CEFC206800F0F7FF6649CB
S1131970002000F0C7FC6549002000F0C3FC644966
S1131980002000F0BFFC206800F0E8FF614900205F
S113199000F0B8FC206800F0E1FF5F49002000F08F
S11319A0B1FC206800F0DAFF5C49002000F0AAFCDA
S11319B0206800F0D3FF5A49002000F0A3FC2068FF
S11319C000F0CCFF5749002000F09CFC206800F098
S11319D0C5FF5549002000F095FC206800F0BEFFCB
S11319E05249002000F08EFC206800F0B7FF5049F7
S11319F0002000F087FC206800F0B0FF4D49002073
S1131A0000F080FC206800F0A9FF4B49002000F0A2
S1131A1079FC206800F0A2FF4849002000F072FC25
S1131A20206800F09BFF4649002000F06BFC206812
S1131A3000F094FF4349002000F064FC206800F0AB
S1131A408DFF4149002000F05DFC206800F086FF16
S1131A503E49002000F056FC206800F07FFF00F0B3
S1131A606CFCFF220240352A00D06BE1384B0C930A
S1131A700123FEE43749002000F044FCFFF75DFB3E
S1131A8028602A68344B9A4201D1344B2B602A686F
S1131A900020334958E1C0464F5400006A54000006
S1131AA088540000A5540000C4540000E35400000E
S1131AB0FD5400002855000048550000625A0000FB
S1131AC004FEFF1F915A0000B25B0000DE5B0000C1
S1131AD0875C0000C15C0000EA5C0000035D00005C
S1131AE0425D00006E5D0000A65D0000D75D000051
S1131AF0A55F0000BE5F0000E75F00002F600000EC
S1131B005B55000066550000A4550000E655000032
S1131B10275600006756000097560000D456000070
S1131B2013570000515700008E570000CC57000097
S1131B30095800004858000085580000AE580000BD
S1131B40EB580000225900005F5900009C59000026
S1131B50F0FFFF1FCC5900000F27000010270000E2
S1131B60FA5900007A49002000F0CCFBFFF7E5FAAF
S1131B7030603268774B9A4201D1774B33603268D8
S1131B8000207649E0E07649002000F0BBFBFFF737
S1131B90BFFA099073490020099AD5E072490020E0
S1131BA000F0B0FBFFF7B4FA061C704C321C211C89
S1131BB0002000F0B7FD6E49002000F0A3FBFFF702
S1131BC0A7FA12AF021C3870211C002000F0AAFDF5
S1131BD0992E02D100206749B0E02B6827AC089801
S1131BE028932680FFF758F80A98FEF7DDFE242193
S1131BF06B465B181B7813AA13705F4B002019689F
S1131C000123029100970193211C01F059FD021E4A
S1131C1003D00020594900F085FDFEF7DBFE29E4DE
S1131C205749002000F06EFB0120FFF7F1FA21E490
S1131C305449002000F066FBFFF77FFA83B20A9351
S1131C401A1C002050497FE05049002000F05AFB44
S1131C50FFF761F84A49002000F054FB4C4900208A
S1131C6000F050FBFFF754FA27AD287049490020D3
S1131C7000F048FBFFF761FAFFB2041C2B786C2FCD
S1131C8017D10A9A00200092089A43490192221C13
S1131C9000F048FD0025A54201DBFFF7EBFB27AB75
S1131CA01A780023FF2000930121FFF767FA01351A
S1131CB0F1E7089A002000923849221C00F032FD16
S1131CC00025A54201DBFFF7D5FB27A80121FFF77B
S1131CD077FA0135F5E70898FEF7DEFFFFF7CAFB50
S1131CE0FEF7FAFFFFF7C6FB0820002100F088F892
S1131CF0FFF7C0FB2249002000F004FBFFF780FA45
S1131D00FFF7B8FB0C9B002B02D1181C244915E0EB
S1131D102449002000F0F6FAFFF7FAF90C9B18703A
S1131D20FFF7A8FB2049002000F0ECFA0A4800F075
S1131D3015FE00201D4901E000201D4900F0E2FAD3
S1131D40FFF798FB00201B4900F0ECFCFFF792FB27
S1131D501A5A00000F27000010270000485A0000FC
S1131D60AC5A0000E25A0000F95A00002C5B000053
S1131D70425B00006B5B000018FEFF1F915B0000DC
S1131D80005C00002E5C00006A5C0000145E000031
S1131D90375E0000565E0000765E0000C85E0000FC
S1131DA0065F0000445F00007C5F00009B5F000052
S1131DB067600000B05900001FB5041C01A9002091
S1131DC002F030F801A8694601F06AFF009B6846FA
S1131DD01C1901A9009401F0EBFE01A901220020C5
S1131DE002F04CF81FBD00000022034B1A60802251
S1131DF0024B1206DA67704700A01C5804E100E0A9
S1131E0010B50A2308286FD80C1CFEF7B3FB051B7A
S1131E10283C48626466570001F064F905230128F0
S1131E2062D0FFF7E1FF201CFFF7C6FF0020011C72
S1131E3000F0E6FF041C0020012100F0DDFD002C71
S1131E404FD150E001F04EF9062301284CD0FFF7A2
S1131E50CBFF201CFFF7B0FF01200021E8E701F0D1
S1131E6041F9082301283FD000F04EFE002803D09A
S1131E700020012100F0C0FD0220002100F0C0FF7D
S1131E8000282ED12FE001F02DF9072300282BD0B4
S1131E90FFF7AAFF201CFFF78FFF032005E0FFF7E1
S1131EA0A3FF201CFFF788FF0420002100F0A8FFF7
S1131EB0041C01F017F90028C1D1BDE70820002156
S1131EC000F09EFF00280CD10120011C00F094FDBD
S1131ED009E0052002E0062000E00720002100F0D0
S1131EE08FFF092300E00023181C10BD10B50C1C43
S1131EF00C4B88B01B7806A90B800B4B05AA1B68FA
S1131F0010700A484B6004AB1C70006800930123F6
S1131F1002900193002001F0D3FB431E984140003E
S1131F2008B010BDF0FFFF1F10FEFF1F18FEFF1FBB
S1131F30C223FF3308704B60704738B5031C0D1C77
S1131F400920191CFFF7D2FF291C041C2A20FFF7C3
S1131F50CDFF0443E0B238BDFF2310B588B005AA15
S1131F601370182804D8092806D206281BD803E0C1
S1131F70031C1D3B142B16D80C4B10701C7806AB9D
S1131F801C800B4C0B482468006807940A4C019190
S1131F900290191C00940123002001F09EFB431EB3
S1131FA09841400000E0032008B010BDF0FFFF1F7F
S1131FB010FEFF1F18FEFF1FF8FFFF1F38B5022198
S1131FC0041C0120FFF7C8FF304D2A7A6B7AD2B285
S1131FD0DBB2002804D02E49002000F093F911E070
S1131FE0002C03D02B4900F09DFB0BE092019B08D1
S1131FF01343802292015A40274B201CD2182749B0
S113200000F090FB02210320FFF7A6FF2A7A697AE9
S1132010D2B2CBB2002804D01D49002000F072F9DE
S113202011E0002C03D01B4900F07CFB0BE0920173
S11320309B081343802292015A40174B201CD2184C
S1132040164900F06FFB02210520FFF785FF2A7A6D
S1132050697AD2B2CBB2002804D00D49002000F036
S113206051F911E0002C03D00A4900F05BFB0BE0AE
S113207092019B081343802292015A40064B201C74
S1132080D218064900F04EFB38BDC046F0FFFF1FD2
S113209099600000A060000000E0FFFFA64B000074
S11320A00269C3689A4203D880681018013800E0B6
S11320B0501EC01A7047F7B58368C668051C40688F
S11320C00191141C9F1B8019974203D902F044FB11
S11320D0A4190AE001993A1C02F03EFB019BE41B9F
S11320E0D9196868221C02F037FBEC60F7BD0023A5
S11320F0F7B5061C171CC568019100933369B468D1
S1132100AB4200D81B19013B5B1B641BBC4200D9CA
S11321103C1C9C4200D91C1C7368221C5819019950
S113212002F01AFB009B2D191B190093019B3F1B06
S11321301B190193B368EB1A5A1E93415B421D406D
S1132140F560002FDAD10098FEBD0000022310B51F
S11321500F4C104A236163610F4BA261E361C823F2
S1132160A2640E4A2362E26400230422A36263622F
S1132170E362A3656365E3652265E01D084902F037
S1132180ADFB201C074902F0A9FB2023A37110BD5D
S113219008010020B0600000400000203C00002046
S11321A0B9600000BD600000F0B5294B171C1A7817
S11321B085B0009001910293002A01D1FFF7C6FF78
S11321C01823009A00255343029AD3181A1C50323C
S11321D052689C6D039294421BD91B6D3D1C1B1BC2
S11321E09F4200D91D1C1826009B2A1C5E43029B9B
S11321F001989E19F36C7F1B191902F0ADFA019B2B
S113220064195B190193336DE31A5A1E93415B42BF
S11322101C40039B1E1BBE4200D93E1C002E0CD04A
S11322201823009A01985343029AAD19D318D96C14
S1132230321C091902F090FAA419002D05D01823B4
S1132240009A5343024AD3189C65281C05B0F0BD7C
S11322500801002010B50B1CEFF31084012181F359
S11322601088191CFFF7A0FF84F3108810BD00002C
S1132270F8B51823451C5D434343141C134A0E1C34
S1132280D018C76A5519012F0FD0002F07D0022F7D
S113229017D1221C281CFFF72AFF041C14E0281C59
S11322A0FFF7FEFEA0420ED305E0281CFFF7F8FE60
S11322B0844200D9041C281C311C221CFFF7FBFE9D
S11322C002E0002400E03C1C201CF8BD08010020B2
S11322D0F8B50B4B071C1B780E1C151C002B01D1E9
S11322E0FFF734FFEFF31084012181F31088381CC9
S11322F0311C2A1CFFF7BCFF84F31088F8BDC046CC
S11323000801002038B5051C081C0C1C02F0EEFA6C
S1132310211C021C281CFFF7DBFF38BD13B56B46DC
S1132320DC1D0020211C0122FFF794FF012801D1AC
S1132330207801E00120404216BD08B5FFF7EEFF0A
S11323400028FBDB08BD0000F7B5164C0193237889
S1132350051C0F1C161C002B01D1FFF7F7FE236987
S11323609D421CD2EFF31082012181F31088002DCD
S11323700CD01823691C59436B43675061184E6095
S11323800199E318196200219962596218235D4387
S1132390089B6419E36282F31088002001E00120A5
S11323A04042FEBD08010020826810B5041C40684C
S11323B0531C834205D820688154A360E368013329
S11323C0E360A26863689A420CD120692168FFF730
S11323D07FFFA368984203D001235B42E36001E0DE
S11323E00023A36010BD0000F0B5051C1F1C081CD1
S11323F0012685B00A9C00910192019B984204D366
S11324000199FEF7C1F80136F7E70296BE4200D201
S1132410029701230B9A1A40039218D1002C01D180
S1132420002414E00B9B20269B070DD5002F0BD115
S1132430103609E0281C311CFFF7B6FFEB68013C9D
S1132440002B04DB002CEBD0029BA342F2D3EB68FD
S1132450002B35DB0126012F01D9013F06E000984E
S1132460311CFEF791F8019B984208D3019B5E430F
S1132470F1E7301C0199FEF787F8061E10D000988A
S1132480311CFEF781F8331C4343009AD31A00939E
S11324900C4B195C281CFFF787FFEB68002BE8DA6C
S11324A0039B002B0CD0002C0AD0029BA34207D222
S11324B0281C2021FFF778FFEB68013C002BF2DA9F
S11324C005B0F0BDC4600000F0B59FB00EAB099339
S11324D040230A930023161C06900B930D900C9333
S11324E00B784C1C002B04D10C9B0393002B22DC97
S11324F015E1252B16D1002502314F1E3B782B2BDD
S11325000CD003D8232B27D1082308E02D2B03D08C
S1132510302B21D1022302E0012300E004231D43D8
S11325200131EAE7191C09A8FFF73EFF211C0C9BA7
S1132530002BD5DAD8E70B9A002A03D006980EA907
S1132540FFF7C6FE0C9B03930B9B0493049A039B17
S1132550944663440C93E2E000243A78131C303B25
S1132560092B05D80A235C43303C0137A418F4E74F
S1132570002303932E2A0DD101373A78131C303BE4
S1132580092B07D80A23039901374B43303B9B1887
S11325900393F2E7397804230A1C9A43682A01D189
S11325A00137F7E7642926D008D8582900D195E0E7
S11325B063291AD0252900D0AFE0ABE0732900D1FC
S11325C095E00DD8702900D0A7E032680021131DD2
S11325D03360082301910093116809A8102296E042
S11325E0752971D0782979D097E0336819681A1D54
S11325F03260C9B28EE033681A1D1B683260DA1784
S113260098180493012350400593092805DD0A21F5
S1132610FEF74AF8059B0133F6E7059B039A9342BC
S113262000D20592002C05D0049B002B01DB6B0724
S113263000D5013CAB0702D5039B002B10D0EB0760
S11326400ED4002C01D100240AE0059BA34207D23A
S113265009A82021FFF7A8FE0C9B013C002BF0DA0F
S11326600C9B0793002B58DB049B002B04DA5B4282
S1132670049309A82D2103E06B0703D52B2109A896
S1132680FFF792FE0C9B002B47DB03232B40022B0E
S113269011D1039B002B0ED1002C01D100240AE0A0
S11326A0059BA34207D209A83021FFF77DFE0C9BAE
S11326B0013C002BF0DA0C9B0593002B2DDB0094DE
S11326C0019509A8049906E03368009401951A1D40
S11326D01968326009A80A22039B18E03368009441
S11326E01A1D0195326009A819681022F4E73368AD
S11326F01A1D32601C682178013400290DD009A804
S1132700FFF752FE0C9B0393002BF4DA05E0FFF76E
S11327106BFE02E009A8FFF747FE791C07E70C9857
S11327201FB0F0BD0EB403B503AB02CB01AA0193F5
S1132730FFF7CAFE02B008BC03B0184708B5002072
S113274000F08AFD08BD08B5002001F0F5FB08BDC6
S1132750082110B5164B9A780A4202D09A780A4397
S11327609A70882200212220124B52019950124A59
S113277010708020114A400298501868104A024094
S113278010481A601C58104A2240C024A404224352
S11327901A5080220D4B19721A767F3A19705A70AA
S11327A00B4A11700C2299791142FBD110BDC0461D
S11327B000D007400070044000E0074044100000CF
S11327C0FFFFF3FF04100000FFFFFFF0004006408E
S11327D000500640154B164810B5191E81420CD006
S11327E00022144B9B089B009A4203D084588C50BF
S11327F00432F9E7104B996001E00F4A936000231B
S11328000E4A0F49891A8B4204D0D45C0D48C45433
S11328100133F8E700230C4A0C49891A8B4204D08F
S11328200024D01804700133F8E710BD0000000044
S1132830000000000000000000ED00E02C62000039
S1132840D863000000FEFF1FACFFFF1FB40200208E
S113285000234170436003708360181C704710B5F7
S11328604378041C0120FF2B08D000F06DFA637834
S11328700133DBB2637000F05BFA002010BD00206E
S1132880704738B5041C0D1C00F05EFAE16829435A
S1132890E16000F04DFA002038BD000000220A4B30
S11328A09A641A1C40329A631A1C30329A621A1CB7
S11328B020329A611A1C10329A60044A1360044B45
S11328C09B60DB607047C0469401002090010020AB
S11328D0800100200022024B1A60186880B2704701
S11328E00C007C5038B54378041C0D1C002B0BD015
S11328F0002500F029FA6378013BDBB26370257090
S113290000F016FA281C28E00220002925D023789C
S1132910002B15D0FFF7DEFF6368A268984201D34D
S1132920C01A03E0C01A80235B02C018824213D28B
S113293000F00AFA0023237000F0FAF902200CE0F8
S11329404B1C09D000F000FA0123237000F0F0F9C9
S1132950FFF7C0FFA5606060032038BD38B5051CD3
S1132960FFF7B8FF041CFFF7B5FFA04201D3001B1B
S113297003E08023001B5B02C0188542F3D238BDFC
S113298008B5012801D100F0DFF908BD08B5012818
S113299001D100F0CDF908BD10B5FFF77FFF012389
S11329A00020084A08491360084A094C106008606E
S11329B004212160074C216007490B600749086026
S11329C0136010BD3880045000008450000004508F
S11329D0000004510400045104000C50000004538E
S11329E010B5044C206021710020A260237363732E
S11329F010BDC046E4010020F0B587B06B460290DC
S1132A001B7A05AC23706B4603911B7B3D4D6370B1
S1132A102B79029A0420934271D92B7B6B73012387
S1132A20A37000230193374E0093337B009A371C25
S1132A3093421AD9009BB2689B009B58002B10D07C
S1132A401A79D2070DD51A68201C99689047002876
S1132A5007D06B461B787373039B002B3AD0052376
S1132A600193009B0133DBB2DDE7019E002E02D00F
S1132A70039B012B2FD10120FFF782FF0C20029B27
S1132A8058432B68181800F0A7F86B461B7A0120EE
S1132A906B71FFF77BFF02230025A3703B7BAB42E6
S1132AA016D9BA68AB009B58002B0ED01A7992073E
S1132AB00BD51A68201C99689047002805D0039B01
S1132AC07D73002B1AD0062301930135EDB2E5E79F
S1132AD0019814E005260023009FA370013FFFB274
S1132AE0FF2F09D0AA68BB009B58002BF6D01A68A8
S1132AF0201C99689047F1E7301C00E0062007B0DD
S1132B00F0BDC046E4010020014B58797047C0462F
S1132B10E401002013B500210378041C0191022B69
S1132B2007D0032B0BD0012B0ED10279191C1348AB
S1132B3001E00279114801AB00F0CEFF08E001A9E1
S1132B400E4801F00BF803E00C4801A900F0A8FFBF
S1132B50002812D1A3790A4ADB01DBB2137063782F
S1132B60084A5B00DBB21370A278074B1A70E27854
S1132B70064B1A706279064B1A7016BD0040064067
S1132B8018408653004086500040065001400650CD
S1132B90184016501F22802302405B05D2051A43B9
S1132BA0034943099B005B181A43002313607047D1
S1132BB0288004401F2280210240D305490519437F
S1132BC0430904489B001B1819430123081C934024
S1132BD003607047288004400022072373B5041C57
S1132BE0104D0093281C131C012101F097F9201C9F
S1132BF0FFF790FF0022637A217A0093281C131CAC
S1132C0001F08CF9E379084A9B041360074BA17A1D
S1132C101D68281C00F0BEFF281CE17A00F0C1FFEB
S1132C20002076BD0070044000700C592061000043
S1132C3008B5054800F0F6FE044B1968C9B2013125
S1132C40FDF7A2FC08BDC0460040064044801C5E5F
S1132C5008B5054800F0E6FE044B1968C9B2013115
S1132C60FDF792FC08BDC0460040064044801C5E4F
S1132C7008B5054800F0D6FE044B1968C9B2013105
S1132C80FDF782FC08BDC04600400640448014584D
S1132C9008B5054800F0C6FE044B1968C9B20131F5
S1132CA0FDF772FC08BDC04600400640448014583D
S1132CB00C4B1B68DBB2022B0DD0032B0ED0002B68
S1132CC001D000200CE08021074A09021268101E7E
S1132CD08842F6D104E0054B186801E0FA20800030
S1132CE07047C04600700C590C02002010020020EE
S1132CF008B5FFF7DDFF08BD08B5024B185CFFF708
S1132D0059FF08BDD460000008B57620FFF752FFD4
S1132D1008BD08B57620FFF73DFF08BD08B566205D
S1132D20FFF748FF08BD08B56620FFF733FF08BD6D
S1132D30044A1368002B04D0013B1360002B00D11C
S1132D4062B67047F401002072B6024A1368013378
S1132D5013607047F401002010B50B4B0B4A127836
S1132D60002A04D1013B002BF8D103200AE0064CD1
S1132D70074801F069FB012803D0013C002CF7D17E
S1132D80F3E7002010BDC046EA03000002D007515B
S1132D9000E0074010B5064C064801F055FB042836
S1132DA004D0013C002CF7D1032000E0002010BD2A
S1132DB0EA03000000E00740F7B5071C0E1C151CD1
S1132DC001930120002F18D0002916D0FFF7D8FD59
S1132DD00A4C0021201C102201F0C7FC2760267138
S1132DE0002D06D06B461B79A56023736B461B79B7
S1132DF063730120FFF7CAFD0020FEBDF801002027
S1132E00F0B5B24C8BB002900191237B0120637327
S1132E10FFF7B6FD2379029A934204D80120FFF705
S1132E20B5FD022050E1029A23689200D6586B4601
S1132E301B7907AC357823726B461B7A2A1C2370E6
S1132E4002239A4366600392012A01D0052D0AD118
S1132E5001219F4801F04AFA002809D10120FFF717
S1132E6095FD012030E1072D02D999480321F1E7AE
S1132E700123637200240094944F009A3B7B934295
S1132E801AD9009BBA689B009B58002B0FD01A7963
S1132E90D2070CD51A6807A899689047002806D06D
S1132EA06B461B7804247B73019B012B04D1009B8C
S1132EB00133DBB20093DFE70120FFF767FD8548AC
S1132EC000F0D4FD039B012B1DD10138C0B20228B0
S1132ED011D8FFF7DDFE804B98420CD8FFF7A8FE0F
S1132EE07E4FB84207D8FFF7C3FEB84203D8FFF7B6
S1132EF0AFFEB84207D9019B012B01D1062407E09C
S1132F00002C05D1FAE7019B012B52D0002C50D0A4
S1132F100120FFF735FD002307AE009D7372013DCC
S1132F20EDB2FF2D40D0694BAA009B68D358002B0B
S1132F30F5D01A79D207F2D51A68301C99689047EF
S1132F40EDE7072205AB1A7000225A70F2789A70E6
S1132F503279DA702B1C083B05A9022B03D873794C
S1132F608B71B379CB717378002B00D084E058480F
S1132F7001F0F0F9002800D00324002D00D08AE0ED
S1132F80FFF7EAFE0024002800D09DE00120FFF7AF
S1132F90F7FC6B464D4E1B7A0025B373022307AF33
S1132FA07B72337BAB427CD80120FFF7EFFC201C03
S1132FB08AE003200A2D00D986E0281CFDF7D0FA08
S1132FC006080A1940583339C1282D00002250E060
S1132FD003224EE03E4801F037FA012807D03C486E
S1132FE0002101F093F9FFF7B7FE041E6CD1012212
S1132FF03FE0374801F028FA042807D0344802217A
S113300001F084F9FFF7C6FE041E5DD1042230E00E
S1133010072205AB1A70063A03E0072205AB1A70C3
S1133020043A5A7096E7022205AB1A70013A1A71F3
S113303004E00222012105AB1A7019715A7189E763
S11330400222002705AB1A702148013A1A715F71F8
S113305001F0FAF9012800D17CE71D48391C01F080
S113306055F9FFF779FE041EBC4200D172E72BE04C
S1133070052205AB1A706DE7012D00D877E7B27809
S11330800220174B002A02D01A69024301E01A6990
S113309082431A616BE7012D00D077E7FFF77AFED0
S11330A070E7B268AB009B58002B0AD01A799207DC
S11330B007D51A68381C99689047002801D0052460
S11330C075730135EDB26CE70BB0F0BDF80100206B
S11330D000E007400040064040420F0080841E008C
S11330E000ED00E008B5064801F0AEF90023012820
S11330F003D00133042800D00A33181C08BDC0468D
S113310000E00740F7B5FF2403681C4A1D0A254068
S11331101C40AB009F581A4A061C9B58281C01935C
S1133120FFF7EAFD211C0022381C01F095F9019BF0
S1133130A4001C19842332795B05234352001A60CE
S1133140802372795B0523431A609023B2795B056F
S1133150234312011A60F3790A4A14431A042260C1
S1133160002B0AD0084B5A5D002A06D01F231340B7
S113317001229A40131C054A1360F7BD2C6100001C
S113318024610000000018183461000000E100E030
S1133190F8B5FF24051C0368114A180A20401C4096
S11331A083009F580F4A9E58FFF7A6FD381C211C28
S11331B0012201F051F96A68381C211C01F05CF904
S11331C088232A7AA40034195B05234392001A60E9
S11331D098235B051C436B7A9B012360F8BDC046B2
S11331E02C6100002461000038B50C1C002802D1B9
S11331F0002C09D112E003680133F9D0051C08350D
S1133200FFF780FF281CF6E72368013306D0251C4E
S1133210201C0C35FFF7BCFF2C1CF5E738BD000063
S1133220FF22030A134002400120904002499B0000
S11332305B5858607047C0462C610000FF22030AA7
S1133240134002400120904002499B005B58986063
S11332507047C0462C61000008B5084B8200D35863
S113326094220233520513431B78002B02D000F042
S113327041FA01E000F096FA08BDC046D8600000AB
S1133280031C80220C33520513431B78002BF7D008
S11332900171704738B50D1C084B8000C458201CC0
S11332A0291C1830FFF71EFB0328F8D0002801D092
S11332B004232374207CC0B238BDC0460802002019
S11332C0F0B589B00290161C820037480593105857
S11332D00EAB019035481B781458002007AA1080C3
S11332E0A27C8F0A04920122E274A2745A425341CE
S11332F01E3FDBB203937B425F41FFB2CDB28742F4
S113330002D0CBB29C460D0A00216D00EDB28F4273
S113331004D1391C002E01D16B46197B0D4307AB38
S11333201D700122002F02D062465A700222A3604F
S1133330E2600198291CFFF7A3FF02980F99FFF799
S1133340A9FF237C002B0CD1002E0AD0059BA6607C
S1133350E36031780198FFF793FF02980F99FFF724
S113336099FF237C002B16D1039B002B13D0002F35
S113337001D1002E0FD000230127A3600198E7603C
S113338001F0D2F8391C01982943FFF779FF02981C
S11333900F99FFF77FFF0023E3746B46207C1B7CAF
S11333A0C0B2A37409B0F0BDD860000008020020C8
S11333B0104A830010B598580F4A9C58E37C002BA0
S11333C005D0237C052B02D0237C042B09D1982221
S11333D0831C5205134300221A7001F0B7F801232D
S11333E06374A37C002B03D0201C1830FFF737FA3A
S11333F010BDC046D860000008020020F7B5194B84
S11334008700FB5801250093174BFE58002E26D148
S11334100C1C24220190081C311C01F0A6F9201C6C
S1133420311C1830FFF714FA0198FFF777FC009865
S113343001F02AF80C4B019AFC500C4B9A5C1F23A8
S113344013402A1C9A40131C094A13609C22009BB7
S113345052050233134380226574351C1A70281CEC
S1133460FEBDC046D860000008020020D6600000FF
S113347000E100E0F7B59C220027051C0D4E8400F6
S1133480A359520501930C4BE358023313431F70A5
S1133490FFF749FC094B01985A5D1F231340012291
S11334A09A40131C064A1830D367FFF7E8F9A7516E
S11334B0F7BDC04608020020D8600000D6600000B6
S11334C004E100E00A4B800070B5C558094BC658AA
S11334D04B68726993420AD00C1CFFF7C9FB0023A6
S11334E0011C6268281C00F0DDFF6368736170BD15
S11334F0D860000008020020F0B587B00FAC334F4D
S1133500334D267884006559E459677C002F02D135
S11335100320207458E0002E01D11E270E97059336
S11335200023A674E360A360237423606374071C00
S113353004920391FFF7C6FF90231021AA1C5B0598
S1133540134319708421EB1C49050B4302211970A4
S113355098235B05134302934023029A281C13709B
S113356000F0E2FF039B381C1988012300930E9B93
S1133570049A0193059BFFF7A3FE0D9B002B15D026
S1133580237C002B0FD10C9B281CA3600D9BE360B4
S11335900C9B1978FFF774FE002E13D0381C0E997B
S11335A0FFF778FE0EE0237C042B0BD100230126C9
S11335B0029A1370EB785B09334202D0281C00F0A6
S11335C0C5FF6674207CC0B207B0F0BD08020020BD
S11335D0D8600000F0B58BB013AC2478364E374D6C
S11335E0039484006559A459667C002E02D10320FB
S11335F020745FE0039E002E01D11E3612960993BB
S1133600109B00262360119BA66063606B461B7BA6
S1133610E660A37426746674079108920490FFF719
S113362051FF9023AF1C5B053B4305931023059A80
S1133630281C13708422EB1C5205134302221A70B7
S113364098235B053B4306934023069A137000F0CE
S11336506BFF079B089A1988129B009601930498A4
S1133660099BFFF72DFE227CD2B2B24212D1059BF8
S113367011991A708C235B053B43012900D1082260
S11336801A702B79039B002B12D004981299FFF720
S113369001FE0DE0237C042B0AD1069B1E7001263B
S11336A0EB785B09334202D0281C00F04FFF6674AC
S11336B0207CC0B20BB0F0BD08020020D86000002E
S11336C01FB5069C0094079C0194089C0294012455
S11336D00394FFF711FF04B010BD1FB5069C0094BE
S11336E0079C0194089C029401240394FFF772FF41
S11336F004B010BD842138B5244B8200D558490547
S1133700EB1C0B4302211970214BD45890226B18E7
S113371052051A431278E978D2B2890634D5942135
S113372049051943097800292ED0012A15D1EB78CF
S1133730134202D0052323740CE0E368013BE360E9
S1133740002B07D0A368281C5A1CA2605978FFF7E5
S113375097FD19E0FFF72CFE16E06268013A6260FB
S1133760002A06D08C214905012A05D10B430822E1
S113377004E0FFF71DFE02E000220B431A702368E9
S11337805A1C22602A791A7038BDC046D8600000DD
S113379008020020842303305B05184302230370CE
S11337A070470000902149050A1CF0B58F4B071C97
S11337B08000C55889B0EB1C0493EB78EE78DBB23B
S11337C00593F3B20693AB1D1A43944612789826D8
S11337D0D2B20792942252051A4314787605621ED7
S11337E09441E2B2824C33430459A81C009008432C
S11337F001921A780178D2B2C9B203910199029068
S113380000292FD0079900290CD010236246281CC8
S11338101370FFF7BFFF236BF8B20121002B00D018
S1133820DCE0E0E0002A1DD04022281C1A70FFF7DB
S1133830B1FF231C2C331B78002B02D1009A1643B2
S11338403370236B002B03D0F8B28021626B98474E
S1133850E37D002B04D0201C80211830FFF711F8E1
S11338600A23BFE0069B281C9E1101231E40FFF77C
S113387091FF0122059B1B11134219D09023049A36
S11338805B05134310221A70002E04D0EB785B07FB
S1133890DB0F10D11AE0082323702C342278002A7D
S11338A000D0A0E0982300995B050B431A709AE0BE
S11338B0002E16D0EAE71023029A1370236B002B14
S11338C06ED0F8B20221626B984769E0029A1370D5
S11338D0236B002B03D0F8B20421626B98472B7939
S11338E081E0039B012B29D1EB78039A134257D033
S11338F0029B1E702B79231C2C331B78002B09D1BF
S1133900019B002B06D19823009A5B0513436A465A
S113391012791A70236B002B03D0F8B20821626B62
S11339209847A37D002B04D0201C08211830FEF7F3
S1133930A8FF00236360E360237554E02B79A26839
S1133940DBB2002A2AD02269137023690133236170
S1133950A368013BA360A368002B44D1019B002B07
S113396013D1231C2C331B78002B06D19823009AE7
S11339705B0513436A4612791A70E37D002B04D069
S1133980201C20211830FEF77CFF0023637523617F
S1133990236BF8B22021002B20D124E0072321E05F
S11339A06368002B1DD0E3681A782B1C80210C332C
S11339B049050B431B78002BF7D02A71E3680133C8
S11339C0E3606368013B63606368002B0BD1E360D1
S11339D02375236B002B06D01021F8B2626B984735
S11339E001E00623237009B0F0BDC046D860000092
S11339F00802002084235B0503431A7800239A42BB
S1133A0009D0802301305B0518430378012B01D0D2
S1133A10024B00E0024B181C7047C04680841E0015
S1133A2000127A0010B50D4A831D13431B78DBB2D4
S1133A30002B10D0012B08D1041CFFF7DBFF084B2F
S1133A4008341C432378D84006E00020022B03D11D
S1133A50044B186800E0044810BDC046000008117B
S1133A60000090100C020020006CDC020B4A831D45
S1133A7013431B78DBB2012B06D0181E0CD0032095
S1133A80022B09D0052007E0802301305B05184391
S1133A9000784342584101307047C0460000081185
S1133AA0021C031C9C20183340050343802018701B
S1133AB00020064B134318700548931D03431B78DD
S1133AC0D8B20028F8D1034B0B60704700000813EC
S1133AD000000811006CDC02F8B5041C0D1C171C56
S1133AE01E1CFFF7C3FF012802D1002D04D007E0FC
S1133AF0022805D1012D03D1201C311CFFF7D0FF72
S1133B008022631C520513431D70842302225B052B
S1133B1023431A70231C0C4A083313437A00D2B28D
S1133B201A704022094B23431A70094AA31D1343F8
S1133B301B78012BF9D1002D01D1064A00E0064A79
S1133B403A4100203260F8BD0000901000000813D4
S1133B500000081180841E0000127A000A4B10B580
S1133B601C681A1C0123002C0CD08024074B03432F
S1133B701C70074C831D23431B78022BF9D1136857
S1133B800B600023181C10BD0C0200200000081359
S1133B90000008119C23C9015B051843C9B20170D8
S1133BA07047942349015B051843C9B201707047FB
S1133BB070B506680C1C301C2049FCF7E5FC1F4955
S1133BC0051C301CFCF766FD0E1C081CE1210901D4
S1133BD0FCF7DAFCE121E0800901301CFCF75AFD16
S1133BE00E1C081C3C21FCF7CFFC3C212081301C1E
S1133BF0FCF750FD6E22124BA1722380FF32238802
S1133C0095420BD9AD1A032201339BB22380B7210D
S1133C1013405A1E93414900CA1AF0E709499B0709
S1133C2000D109490123CA5C954201D8638003E0AD
S1133C300133AD1A0D2BF6D1A58070BD8051010062
S1133C40B207000003610000F660000030B5114ABD
S1133C500188031C8A180020812A19D85A88541E06
S1133C600B2C15D89C88651E1E2D11D8DD88172DA8
S1133C700ED81D893B2D0BD89B7A3B2B08D88B077C
S1133C8001D0054B00E0054B9B5CA3424041C0B210
S1133C9030BDC0464EF8FFFF03610000F66000002F
S1133CA070B5124A838804889A186E23FF336343DD
S1133CB04588D318A2089B180D4A6E00B25A9B1867
S1133CC0A20702D1022D00D8013B0B60E1233C2264
S1133CD0C4881B015C4303895343827AE3189A180E
S1133CE00868044B4343D3180B6070BD4A05F5FFC5
S1133CF0DC60000080510100084B1A6880231B021D
S1133D009A4209D1A02310305B0518430368002BA5
S1133D1002D10133FF3303607047C0460C02002018
S1133D20021C802110B500230124490510320A43E6
S1133D301460136090224360520504601C300243F7
S1133D401360882252050243136084225205024301
S1133D5008431360036010BD031C90221433520502
S1133D60134300221A604260103201601A607047E7
S1133D7003680B6070470000114B820070B5D55882
S1133D808022104B92051A60041C281CFFF7C8FF00
S1133D90281CFFF7B1FF01201F22011C0A4B0B4E08
S1133DA01B5D345D134099402240C0250B1C90409C
S1133DB007496D004B5148510B60086070BDC04607
S1133DC0146100003C80845E1161000010610000F9
S1133DD000E100E0F7B50027114B8000C658081C2D
S1133DE00D1C0197FFF732FF041EBC4216D001A937
S1133DF0281CFFF755FF381CFEF77AFF011C8020B2
S1133E000002814206D0FCF7BFFB011C0198FCF7BD
S1133E10BBFB0190301C0199FFF79EFF201CFEBDE7
S1133E2014610000F7B50025124B8000C4580E1C25
S1133E30201C01A90195FFF79BFF281CFEF758FFE2
S1133E40051C8020000285420ED00B4B291C043433
S1133E501C43FCF799FB2768019C291C4443B8B216
S1133E60FCF792FB20180190311C01A8FFF7A0FE7B
S1133E70F7BDC0461461000000007810F0B50026BC
S1133E80184B800085B0C458081C0F1C019203967F
S1133E90FFF7DCFE051EB54201D100251EE0381CEB
S1133EA003A9FFF7FDFE301C2768FEF721FF011C64
S1133EB080200002814206D0FCF766FB011C0398B7
S1133EC0FCF762FB0390039BBB42E6D3A360882309
S1133ED01C345B051C43019B9B002360281C05B01C
S1133EE0F0BDC046146100008822044B8000C35812
S1133EF052051C3313438900196070471461000094
S1133F008822054B8000C3585205143313431868A4
S1133F10431E9841C0B27047146100006B46E02212
S1133F201B78D2021B04134009071943014BC01824
S1133F30016070474410000008B5084B8200D35854
S1133F4090220333520513431B78002B02D000F058
S1133F5015F901E000F07AF908BDC0461C610000C3
S1133F6008B50C4B8000C2580B4B0021C3589C2051
S1133F700333400518431171017094204005034335
S1133F801970137F8B4203D02032101CFEF767FC9C
S1133F9008BDC046140200201C610000F7B5061CD1
S1133FA01C4B30220C1C8700081C0021FD5800F01B
S1133FB0DCFB301CFEF7A8FEFEF75AFE2060281C2E
S1133FC000F0E1FA201C00212030FEF741FCEB1C3C
S1133FD001939023019A5B0513431022281C1A7045
S1133FE0032100F010FB281C002100F032FB0A4BD7
S1133FF0FC500A4B9A5D1F23134001229A40131C64
S1134000074A13609823019A5B05134340221A70F0
S1134010F7BDC0461C6100001402002018610000B6
S113402000E100E0F8B50D4E84000D4BA759051CC6
S1134030E05800F0A8FA381C2030FEF720FC094BA9
S1134040281C5A5D1F23134001229A40131C064A60
S1134050D367FEF75EFE0023A351F8BD14020020CF
S11340601C6100001861000004E100E00A4B8000BC
S113407070B5C658094B0C1CC358151C301C1A6863
S1134080096800F087FA28602179301C6279A379E5
S113409000F0CCFA70BDC0461C6100001402002080
S11340A0F7B51E4A83009C581D4A9E582279042362
S11340B0002A31D1071C002902D001AAFFF7D6FF3C
S11340C0982300214020F21C5B05134319701870DB
S11340D025698D4203D1381CFFF742FF1BE0012301
S11340E0237194235B053343A161197807230029C5
S11340F012D0A368191E02D019780133A360B171DC
S11341002369013B2361A3690133A3619C235B05FC
S11341101A43802313700023181CFEBD14020020D0
S11341201C610000F8B5134F134C85002C59ED5950
S11341300127069E2777A2602661E3606661FFF788
S1134140AFFF061E14D1201C07992030FEF7CAFBCE
S11341500328F8D000280BD09C210022EB1C490531
S1134160194322710A709421032649050B431A70DE
S1134170301CF8BD1C6100001402002010B51E4B59
S11341808200D3581D4951581A79002A32D05A69ED
S1134190002A11D09C2252050A431278002A0BD01F
S11341A08A79DC68D2B2002C03D02270DA6801323A
S11341B0DA605A69013A5A611A69002A12D09422C3
S11341C052050A431278002A0CD09A68141E02D0B1
S11341D0147801329A608C711A69013A1A619A69E9
S11341E001329A611A69002A04D15B69002B01D15A
S11341F0FFF7B6FE10BDC046140200201C6100008B
S1134200104A80008158002208B50F4B0331C3586F
S1134210581CC2779C2040050843DA621A701A833E
S11342205A629A621A6302709420400501430A702C
S11342301A1C38321278002A03D0181D0121FEF707
S113424020FB08BD1C6100001402002038B5254B7A
S11342508200D35824495258591CC97F00293FD0A1
S1134260D96A002916DB94214905114309780029EC
S113427010D0596A1C7F002905D0DD6A002D02DDAB
S11342800C78013159629471D96A0139D962596B38
S113429001315963D96A002905DA9424D11C6405D3
S11342A0214300240C70196B002911DD9C21490560
S11342B01143097800290BD09279996AD2B2002966
S11342C003D00A709A6A01329A621A6B013A1A632D
S11342D0DA6A002A04DC1B6B002B01DCFFF790FF79
S11342E038BDC046140200201C610000012903D01F
S11342F0032909D1842300E094235B051843007843
S1134300431E9841C0B200E000207047034B0130C7
S113431049011843C9B201707047C04600008812B1
S1134320942302305B0549011843C9B201707047F8
S1134330034B023089011843C9B201707047C0466B
S1134340000008138C2302305B05C9001843C9B26E
S113435001707047F7B5384EC21C164337780B7896
S1134360FFB20122072B65D8041C181C0D1CFCF796
S113437001F904192A0D192A2A3A00232F48013475
S1134380044323703378012BFCD152E00322012F24
S113439050D1402329480134044323703378042B3B
S11343A0FCD146E00021012B01D004230221307806
S11343B0032298423ED1201CFFF7A8FF0421204A83
S11343C013698B4333E00227BB4207D100270B79E3
S11343D0BB4203D04979201CFFF7AAFF19480134D6
S11343E00443277019E004231649621C0A4313701E
S11343F06A78A31C0B431A706B78002B06D1AB7838
S1134400002B03D0E978201CFFF78AFFAB79002B3F
S113441003D0E979201CFFF795FF04213378084A7B
S1134420DBB20193019B0133019313690B431361C5
S113443030BF0022101CFEBD0000301000008812A6
S113444000ED00E000001010024B03301843007828
S1134450C0B270470000301014308023012A04D108
S11344608A401B051843026005E0DB04184301235E
S11344708B40D9430160704701238B40002A01D04F
S1134480436000E0836070470023C22203704370DE
S11344908370C37043718371C371037242728372F8
S11344A0C3727047F0B5002789B00393FA2301253E
S11344B03C1C9B0053430690079102936D42019765
S11344C00123A3400493174B9E1CCA330593049BFA
S11344D0318807985943FCF757F8029B029AC31A8C
S11344E0824200D9131AAB4204D2B21E1778019447
S11344F01D1E03D0059B04369E42E8D10134032CD3
S113450001D0002DDCD1039B002B00D01D603F2384
S11345101F40019B9B011F43069BFFB25F7009B0C4
S1134520F0BDC04636610000942302305B050343AE
S11345301B78002B04D088235B051843042303E075
S113454080231B0518433023037070479422831C77
S113455052051A431278011C0220012A12D180222A
S1134560D2041343CF221A708022D2002023C878A9
S1134570034004D0013A002A03D0C046F6E7181CD1
S113458000E0092070470423C37000238370437044
S113459003717047F0B5130B89B001250493082308
S11345A000266D4203935B190790059106920293CE
S11345B002270024731C191C069879430193FBF706
S11345C0E3FF059B834206D31B1A9D4203D91D1C9E
S11345D004900394029601347F00092C02D0002D2C
S11345E0E8D104E0072E02D0019E002DE0D1702214
S11345F0029B04981B011340039A1343079ADBB2EE
S1134600537009B0F0BD8422C31C52051A43012320
S11346100B405B00DBB2137090238907C90F5B0565
S1134620023009011843C9B20170704710B58C24D7
S113463003306405C9000443C9B221708821920083
S113464049050143D2B20A70802252051043037017
S113465010BD8023012202305B0503430A401A7017
S11346608C238907C90F5B05C9001843C9B20170BF
S11346707047011C002008B5021C031C00F03EF921
S113468008BD0000014B18687047C046A4FFFF1F17
S1134690084B10B5041C002B02D0002100F08AF94D
S11346A0054B1868836A002B00D09847201C00F043
S11346B0F5F9C046B54900000062000038B5074B63
S11346C0074C1D1CE41AA410002C04D0013CA300C8
S11346D0EB589847F8E701F09BFD38BD28620000CD
S11346E02C6200000E4B70B500251E1C0D4CE41A04
S11346F0A410A54204D0AB00F35898470135F8E75D
S113470001F080FD084B00251E1C084CE41AA4107F
S1134710A54204D0AB00F35898470135F8E770BDC3
S11347202462000024620000246200002862000069
S113473008B5034B011C186800F066F808BDC046B4
S1134740A4FFFF1F08B5034B011C186800F016F8FE
S113475008BDC046A4FFFF1F002310B5934203D039
S1134760CC5CC4540133F9E710BD031C8218934296
S113477002D019700133FAE77047000030B5002900
S11347803ED004390B68002B00DAC9181D4A13689F
S1134790141C002B02D14B60116031E099420DD200
S11347A008680A189A4203D11368C3180B60536847
S11347B04B60216024E08A4203D8131C5A68002A03
S11347C0F9D11D685C198C420BD109686918581815
S11347D01960904214D110685268091819605A601F
S11347E00EE08C4202D90C23036009E008680C181F
S11347F0944203D114685268001908604A605960F1
S113480030BDC0461C020020032370B5CC1C9C4361
S11348100834051C0C2C01D20C2405E0002C03DA0E
S11348200C2300202B6042E08C42F9D3204A136809
S1134830101C191C002913D00A68121B0DD40B2A52
S113484002D90A608B181FE08B4202D15A680260B9
S11348501BE04A685A600B1C17E00B1C4968E9E727
S1134860144E3368002B03D1281C00F025F8306067
S1134870281C211C00F020F8031C421CD0D0032269
S1134880C61C964386420AD11C60181C07210B30B3
S11348901A1D8843821A0AD05142995007E0311AEE
S11348A0281C00F009F8431CBAD0331CECE770BD97
S11348B01C0200201802002038B50023064C051CF9
S11348C0081C2360FBF7E2FF431C03D12368002B81
S11348D000D02B6038BDC046B0020020031C0A780B
S11348E001311A700133002AF9D170470023C25CE8
S11348F00133002AFBD1581E70470000F7B52A4D3A
S1134900061C2C680091171C0193002C01D1274C24
S11349102C6063681F2B15DD254B002B02D1012071
S1134920404240E08C20FFF703FF041EF7D02A68C2
S113493000230260021C88324360286013609E4298
S11349400AD128E0002E26D0231C883318680028BA
S113495010D1174B002BE2D084204000FFF7E8FE73
S11349600028DCD0031C0022FC335A609A60231C0C
S113497088331860012261688A408B00C31880C3A1
S1134980FC304168114341600199D967022E02D17C
S113499083681A438260002063685A1C6260023391
S11349A0009A9B001A51FEBDAC0200202002002098
S11349B031470000F0B587B005900391344D2C6861
S11349C0002C63D0231C88331E6863685A1E01922E
S11349D0304A9B189B00F7180433E3180293019B99
S11349E0002B3DDB039B002B07D0002E31D03B1C5A
S11349F080331B68039A93422BD16268029B01990E
S1134A00013A5B68914201D1616002E0002202999F
S1134A104A60002B1DD062680492002E07D0012248
S1134A2001998A40311CFC314868104201D19847F1
S1134A3008E08968114203D105983968984701E074
S1134A4038689847049B62689342B7D12B68A342A5
S1134A50B4D1019B043F013B0193029B043BBDE79E
S1134A600D4B002B12D062682368002A0BD1002B57
S1134A7009D02B60002E02D0301CFFF763FE201CEF
S1134A80FFF760FE9BE7251C1C1C99E707B0F0BDEF
S1134A90AC020020FFFFFF3F45470000FEE7C04691
S1134AA01B5B306D1B5B343B34336D1B5B313B3321
S1134AB0376D0D53616E69747920636865636B208B
S1134AC06661696C6564211B5B306D0A001B5B3099
S1134AD06D1B5B343B34316D1B5B313B33376D0DE8
S1134AE0496E76616C696420737570706C79207698
S1134AF06F6C74616765205B25645D206D56211BB6
S1134B005B306D0A0043757272656E7420697320A0
S1134B10676976656E20617320616E20696E7465C5
S1134B2067657220696E206D41000A0D20256400BE
S1134B304D6561737572656D656E74206E756D6219
S1134B4065722C205254432D3E5453522C205254FF
S1134B50432D3E5450522C00204D4D4138343531B4
S1134B6020782C204D4D413834353120792C204D7E
S1134B704D4138343531207A2C00205254432D3E97
S1134B805453522C205254432D3E5450522C202323
S1134B9020436F6E666967204572726F72730025D9
S1134BA0752C2025642C2025642C002025642C20C1
S1134BB025642C2025640A000D09307825303278CC
S1134BC0202D2D3E205B307825303278203078251A
S1134BD0303278203078253032785D0A000D093083
S1134BE07825303278202D2D3E20307825303278CB
S1134BF00A000D09307825303278202D2D3E202DE5
S1134C002D2D2D0A000D0A0925642F2564207375A6
S1134C10636365737320726174652E0A000D092540
S1134C20642F256420737563636573736573206DE6
S1134C30617463686564207265662E2076616C75A4
S1134C4065206F66203078253032782E0A000D09F1
S1134C5025642062616420636F6D6D616E64732EE0
S1134C600A0A000D0A094144584C33363220526571
S1134C7061642041626F727465642E2044657669B4
S1134C8063652044697361626C6564203A28000D91
S1134C900A4D4D4138343531513A0A0D000D0A0A96
S1134CA0424D4536383020526561642041626F724E
S1134CB07465642E20446576696365204469736174
S1134CC0626C6564203A28000D0A09424D5830355B
S1134CD035616363656C20526561642041626F7263
S1134CE07465642E20446576696365204469736144
S1134CF0626C6564203A2820000D0A09424D583040
S1134D0035356779726F20526561642041626F7234
S1134D107465642E20446576696365204469736113
S1134D20626C6564203A2820000D0A0920424D581F
S1134D303035356D616720526561642041626F7260
S1134D407465642E204465766963652044697361E3
S1134D50626C6564203A2820000D0A094D414733EE
S1134D6031313020526561642041626F7274656430
S1134D702E204465766963652044697361626C65BD
S1134D8064203A2820000D0A094C33474432304845
S1134D9020526561642041626F727465642E204400
S1134DA065766963652044697361626C6564203A61
S1134DB02820000D0A094C505332354820526561B1
S1134DC0642041626F727465642E20446576696361
S1134DD0652044697361626C6564203A2820000D83
S1134DE00A09544353333437323520526561642001
S1134DF041626F727465642E204465766963652030
S1134E0044697361626C6564203A2820000D0A09C4
S1134E1053493437303520526561642041626F72E2
S1134E207465642E20446576696365204469736102
S1134E30626C6564203A2820000D0A094844433115
S1134E4030303020526561642041626F7274656451
S1134E502E204465766963652044697361626C65DC
S1134E6064203A2820000D0A095349373032312092
S1134E70526561642041626F727465642E204465DA
S1134E80766963652044697361626C6564203A28BD
S1134E9020000D0A094343533831312052656164BF
S1134EA02041626F727465642E204465766963657F
S1134EB02044697361626C6564203A2820000D0AFD
S1134EC009414D47383833342052656164204162CA
S1134ED06F727465642E2044657669636520446945
S1134EE07361626C6564203A2820000D0A094153FD
S1134EF03732363220526561642041626F727465C4
S1134F00642E204465766963652044697361626C2C
S1134F106564203A2820000D0A094153373236339C
S1134F2020526561642041626F727465642E20446E
S1134F3065766963652044697361626C6564203ACF
S1134F402820000D09496E76616C696420776172CE
S1134F507053656E736F72446576696365205B2573
S1134F60645D2070617373656420746F2072657072
S1134F7065617452656769737465725265616446EC
S1134F806F72446576696365416E644164647265F9
S1134F9073732E0A000D09506F7765727570206364
S1134FA06F6D6D616E64206661696C65642E20426C
S1134FB04D583035352064697361626C6564200A2C
S1134FC0000D09506F776572646F776E20636F6DA3
S1134FD06D616E64206162616E646F6E65642E2023
S1134FE0424D583035352064697361626C65640ADA
S1134FF0000D09506F776572646F776E20636F6D73
S11350006D616E64206162616E646F6E65642E20F2
S11350104C3347443230482064697361626C656480
S11350200A000D09506F776572646F776E20636FA5
S11350306D6D616E64206162616E646F6E65642E75
S11350402054435333343732352064697361626CBE
S113505065640A000A0A0A0D426F6F74696E67205C
S1135060576172702C20696E20332E2E2E20003250
S11350702E2E2E2000312E2E2E0A0D000D0A0A0A85
S11350800A5B202A0909090957096109720970098B
S1135090287265762E2062290909092A205D0A00F2
S11350A00D5B2020090909092020202020204361CC
S11350B06D627269646765202F2050687973636F2D
S11350C06D706C61622020200909090920205D0AA5
S11350D00A000D09537570706C793D25646D562C6A
S11350E00944656661756C74205461726765742047
S11350F0526561642052656769737465723D3078E6
S1135100253032780A000D094932433D25646B622B
S11351102F732C095350493D25646B622F732C095E
S1135120554152543D25646B622F732C0949324317
S11351302050756C6C2D55703D25640A0A000D09CC
S113514053494D2D3E53434743363D307825303245
S11351507809095254432D3E53523D30782530325C
S11351607809095254432D3E5453523D307825302A
S113517032780A000D094D43475F43313D307825AD
S11351803032780909094D43475F43323D30782571
S113519030327809094D43475F533D30782530322A
S11351A0780A000D094D43475F53433D307825305D
S11351B032780909094D43475F4D433D3078253026
S11351C0327809094F53435F43523D3078253032DA
S11351D0780A000D09534D435F504D50524F543DD2
S11351E0307825303278090909534D435F504D43D7
S11351F054524C3D30782530327809095343422DBE
S11352003E5343523D3078253032780A000D095020
S11352104D435F52454753433D307825303278093A
S1135220090953494D5F53434743343D3078253092
S11352303278095254432D3E5450523D3078253033
S113524032780A0A000D0925647320696E205254CD
S1135250432048616E646C657220746F2D646174C0
S1135260652C09256420506D6772204572726F7237
S1135270730A000D53656C6563743A0A000D2D20A2
S11352802761273A207365742064656661756C74C0
S11352902073656E736F722E0A000D2D202762270E
S11352A03A20736574204932432062617564207228
S11352B06174652E0A000D2D202763273A2073653B
S11352C07420535049206261756420726174652EA4
S11352D00A000D2D202764273A2073657420554158
S11352E05254206261756420726174652E0A000D47
S11352F02D202765273A20736574206465666175DF
S11353006C74207265676973746572206164647279
S11353106573732E0A000D2D202766273A207772B5
S1135320697465206279746520746F2073656E7387
S11353306F722E0A000D2D202767273A207365749B
S11353402064656661756C74205353535550504CFA
S1135350592E0A000D2D202768273A20706F776593
S113536072646F776E20636F6D6D616E6420746F0D
S113537020616C6C2073656E736F72732E0A000D5E
S11353802D202769273A207365742070756C6C2D65
S1135390757020656E61626C652076616C75652E32
S11353A00A000D2D20276A273A2072657065617402
S11353B02072656164207265672030782530327808
S11353C0206F6E2073656E736F72202325642E0A1E
S11353D0000D2D20276B273A20736C6565702075AE
S11353E06E74696C2072657365742E0A000D2D202D
S11353F0276C273A2073656E64207265706561744A
S113540065642062797465206F6E204932432E0AE8
S1135410000D2D20276D273A2073656E6420726578
S11354207065617465642062797465206F6E2053C1
S113543050492E0A000D2D20276E273A20656E61F3
S1135440626C65205353535550504C592E0A000D2D
S11354502D20276F273A2064697361626C6520539D
S113546053535550504C592E0A000D2D20277027A8
S11354703A2073776974636820746F20564C5052D5
S1135480206D6F64652E0A000D2D202772273A20A7
S113549073776974636820746F2052554E206D6F62
S11354A064652E0A000D2D202773273A20706F772C
S11354B0657220757020616C6C2073656E736F72F9
S11354C0732E0A000D2D202774273A2064756D7001
S11354D02070726F636573736F7220737461746587
S11354E02E0A000D2D202775273A20736574204954
S11354F0324320616464726573732E0A000D2D209B
S11355002778273A2064697361626C652053574495
S113551020616E64207370696E20666F7220313072
S113552020736563732E0A000D2D20277A273A20F5
S113553064756D7020616C6C2073656E736F72732B
S113554020646174612E0A000D456E7465722073C7
S1135550656C656374696F6E3E20000D0953656C5C
S11355606563743A0A000D092D2027312720414430
S1135570584C33363209090928307830302D2D3013
S1135580783244293A20312E3656202D2D20332EC0
S113559035562028636F6D70696C6564206F75746F
S11355A029200A000D092D2027322720424D58308A
S11355B03535616363656C20090928307830302DF6
S11355C02D30783346293A20322E3456202D2D2082
S11355D0332E36562028636F6D70696C6564206FB6
S11355E0757429200A000D092D2027332720424DE8
S11355F0583035356779726F0909092830783030A9
S11356002D2D30783346293A20322E3456202D2D34
S113561020332E36562028636F6D70696C656420C4
S11356206F757429200A000D092D20273427204284
S11356304D583035356D61670909092830783430A3
S11356402D2D30783532293A20322E3456202D2D06
S113565020332E36562028636F6D70696C65642084
S11356606F757429200A000D092D20273527204D38
S11356704D41383435315109090928307830302DFD
S11356802D30783331293A20312E393556202D2DBD
S113569020332E36560A000D092D20273627204C9C
S11356A0505332354809090928307830382D2D30C7
S11356B0783234293A20312E3756202D2D20332E9E
S11356C036562028636F6D70696C6564206F75743D
S11356D029200A000D092D20273727204D41473363
S11356E031313009090928307830302D2D307831A6
S11356F031293A20312E393556202D2D20332E369E
S1135700562028636F6D70696C6564206F75742909
S1135710200A000D092D2027382720484443313022
S1135720303009090928307830302D2D3078314651
S1135730293A20332E3056202D2D20352E30562058
S113574028636F6D70696C6564206F757429200A15
S1135750000D092D202739272053493730323109CC
S1135760090928307830302D2D30783046293A20F8
S1135770312E3956202D2D20332E36562028636F96
S11357806D70696C6564206F757429200A000D09B9
S11357902D20276127204C3347443230480909091A
S11357A028307830462D2D30783339293A20322E5E
S11357B03256202D2D20332E36562028636F6D70DF
S11357C0696C6564206F757429200A000D092D2009
S11357D027622720424D4536383009090928307898
S11357E041412D2D30784638293A20312E36562025
S11357F02D2D20332E36562028636F6D70696C650D
S113580064206F757429200A000D092D2027642750
S1135810205443533334373235090909283078305A
S1135820302D2D30783144293A20322E3756202D10
S11358302D20332E33562028636F6D70696C656498
S1135840206F757429200A000D092D202765272053
S1135850534934373035090909286E2F61293A2014
S113586020202020202020322E3756202D2D203598
S11358702E35562028636F6D70696C6564206F75D2
S11358807429200A000D092D202766272050414E37
S113589031333236090909286E2F61292028636FB4
S11358A06D70696C6564206F757429200A000D0998
S11358B02D2027672720434353383131090909280C
S11358C0307830302D2D30784646293A20312E3824
S11358D056202D2D20332E36562028636F6D706987
S11358E06C6564206F757429200A000D092D20272A
S11358F0682720414D47383833340909092830785E
S113590030302D2D3F293A203F56202D2D203F5653
S11359102028636F6D70696C6564206F757429202D
S11359200A000D092D20276A2720415337323632C9
S113593009090928307830302D2D30783242293A3F
S113594020322E3756202D2D20332E365620286314
S11359506F6D70696C6564206F757429200A000D81
S1135960092D20276B272041533732363309090983
S113597028307830302D2D30783242293A20322E9A
S11359803756202D2D20332E36562028636F6D7008
S1135990696C6564206F757429200A000D09456ED1
S11359A07465722073656C656374696F6E3E200064
S11359B00D09496E76616C69642073656C65637466
S11359C0696F6E202725632720210A000D0A0953D9
S11359D06574204932432062617564207261746584
S11359E020696E206B6270732028652E672E2C2030
S11359F0273030303127293E20000D0A094932432F
S1135A00206261756420726174652073657420740A
S1135A106F202564206B622F73000D0A095365748F
S1135A202053504920626175642072617465206955
S1135A306E206B6270732028652E672E2C20273011
S1135A4030303127293E20000D0A09535049206285
S1135A5061756420726174653A202564206B622F3D
S1135A6073000D0A09536574205541525420626134
S1135A707564207261746520696E206B6270732096
S1135A8028652E672E2C20273030303127293E20E0
S1135A90000D0A09554152542062617564207261F7
S1135AA074653A202564206B622F73000D0A094542
S1135AB06E74657220322D6E7962626C6520726537
S1135AC067697374657220686578206164647265BF
S1135AD073732028652E672E2C2027336527293ED3
S1135AE020000D0A09456E7465726564205B307888
S1135AF0253032785D2E0A0A000D0A09456E746558
S1135B00722049324320616464722E2028652E6716
S1135B102E2C202730662729206F72202739392719
S1135B2020666F7220535049203E20000D0A09451B
S1135B306E7465726564205B3078253032785D2E32
S1135B400A000D0A09456E74657220686578206242
S1135B5079746520746F2073656E642028652E67E0
S1135B602E2C2027306627293E20000D0A09535089
S1135B7049207772697465206661696C65642E20BA
S1135B804144584C3336322044697361626C656415
S1135B90000D0A09493243207772697465206661F1
S1135BA0696C65642C206572726F722025642E0AFC
S1135BB00A000D0A094F76657272696465205353B1
S1135BC0535550504C5920696E206D562028652E2F
S1135BD0672E2C20273138303027293E20000D0A2B
S1135BE0094F76657272696465205353535550505A
S1135BF04C592073657420746F202564206D560001
S1135C000D0A094E4F54453A204669727374207048
S1135C106F7765722073656E736F727320616E6443
S1135C2020656E61626C65204932430A0A000D0AE0
S1135C300944656661756C742070756C6C757020B0
S1135C40656E61626C652076616C756520696E2095
S1135C506B696C6F4F686D732028652E672E2C203E
S1135C60273030303027293E20000D0A094932639D
S1135C7050756C6C757056616C7565207365742015
S1135C80746F2025640A000D0A094175746F2D692B
S1135C906E6372656D656E742066726F6D206261ED
S1135CA073652061646472657373203078253032C3
S1135CB0783F205B273027207C202731275D3E203A
S1135CC0000D0A094368756E6B2072656164732068
S1135CD070657220616464726573732028652E6731
S1135CE02E2C20273127293E20000D0A0943686104
S1135CF07474793F205B273027207C202731275D6F
S1135D003E20000D0A09496E7465722D6F7065722C
S1135D106174696F6E207370696E2064656C61795B
S1135D2020696E206D696C6C697365636F6E647352
S1135D302028652E672E2C20273030303027293E2E
S1135D4020000D0A0952657065746974696F6E7379
S1135D502070657220616464726573732028652EF7
S1135D60672E2C20273030303027293E20000D0AA2
S1135D70094D6178696D756D20766F6C7461676526
S1135D8020666F7220616461707469766520737532
S1135D9070706C792028652E672E2C2027303030C7
S1135DA03027293E20000D0A095265666572656E2A
S1135DB06365206279746520666F7220636F6D700D
S1135DC0617269736F6E732028652E672E2C2027ED
S1135DD0336527293E20000D0A09526570656174F8
S1135DE0696E67206465762564204020307825300C
S1135DF032782C20726570733D25642C2070756C8C
S1135E006C3D25642C2064656C61793D25646D735B
S1135E103A0A0A000D0A09536C656570696E6720B9
S1135E20756E74696C2073797374656D2072657313
S1135E3065742E2E2E0A000D0A09427974652074A9
S1135E406F2073656E642028652E672E2C202746EC
S1135E503027293E20000D0A095265706574697463
S1135E60696F6E732028652E672E2C202730303002
S1135E703027293E20000D0A0953656E64696E6758
S1135E802025642072657065746974696F6E73206F
S1135E906F66205B3078253032785D206F6E204944
S1135EA032432C2069326350756C6C7570456E6199
S1135EB0626C653D25642C205353535550504C5906
S1135EC03D25646D560A0A000D0A0953656E64691E
S1135ED06E672025642072657065746974696F6EDD
S1135EE073206F66205B3078253032785D206F6ECA
S1135EF0205350492C205353535550504C593D2551
S1135F00646D560A0A000D0A0943616E6E6F7420AF
S1135F107365742049324320616464726573733A13
S1135F2020466972737420736574207468652064F4
S1135F30656661756C7420493243206465766963D3
S1135F40652E0A000D0A0953657420493243206105
S1135F50646472657373206F66207468652073656A
S1135F606C65637465642073656E736F7228652E47
S1135F70672E2C2027314327293E20000D0A095380
S1135F8070696E6E696E6720666F7220313020739F
S1135F9065636F6E64732E2E2E0A000D09446F6EB6
S1135FA0652E0A0A000D0A09456E61626C696E6706
S1135FB0204932432070696E732E2E2E0A000D0A7A
S1135FC009486578206F7220636F6E766572746518
S1135FD064206D6F64653F2028276827206F722036
S1135FE0276327293E20000D0A095365742074682D
S1135FF0652074696D652064656C617920626574DF
S11360007765656E20656163682072756E20696EC0
S1136010206D696C6C697365636F6E6473202865A9
