:1000000000060020E9040000C10600001105000000
:1000100000000000000000000000000000000000E0
:1000200000000000000000000000000011050000BA
:100030000000000000000000110500001105000094
:100040001105000011050000110500001105000058
:10005000110500001105000011050000D106000087
:100060004918000011050000531800001105000098
:100070001105000011050000110500001105000028
:100080001105000011050000110500001105000018
:1000900099060000B10600001105000011050000DE
:1000A00011050000110500001105000011050000F8
:1000B00011050000110500001105000011050000E8
:10040000FFFFFFFFFFFFFFFFFFFFFFFFFE3DFFFFBF
:1004100010B5064C2378002B07D1054B002B02D0DA
:10042000044800E000BF0123237010BDA0FFFF1FA0
:1004300000000000F439000008B5084B002B03D081
:100440000748084900E000BF07480368002B03D0B5
:10045000064B002B00D0984708BDC04600000000A6
:10046000F4390000A4FFFF1F9CFFFF1F00000000E5
:10047000164B002B00D1144B9D46402292029A1A33
:10048000924600218B460F461348144A121A02F076
:10049000FAFD0F4B002B00D098470E4B002B00D0DD
:1004A00098470020002104000D000D48002802D0CC
:1004B0000C4800E000BF02F0B7FD2000290000F06A
:1004C00003FA02F09BFDC046000008000006002071
:1004D0000000000000000000A0FFFF1F0C02002031
:1004E000000000000000000072B606480649074AF6
:1004F00002600A6001F0B2F901F0F2F962B6FFF7AA
:10050000B7FF000080E100E080E200E0FFFFFFFFB6
:100510000048004711050000002934D001230022C3
:1005200010B488422CD301242407A14204D2814272
:1005300002D209011B01F8E7E400A14204D2814282
:1005400002D249005B00F8E7884201D3401A1A43FF
:100550004C08A04202D3001B5C0822438C08A04236
:1005600002D3001B9C082243CC08A04202D3001BEC
:10057000DC082243002803D01B0901D00909E3E766
:10058000101C10BC7047002801D00020C04307B4E5
:10059000024802A14018029003BDC046D9000000E5
:1005A0000029F0D003B5FFF7B9FF0EBC4243891A0A
:1005B0001847C046002941D010B4041C4C40A44642
:1005C00001230022002900D54942002800D54042DD
:1005D00088422CD301242407A14204D2814202D2B2
:1005E00009011B01F8E7E400A14204D2814202D2D2
:1005F00049005B00F8E7884201D3401A1A434C08CF
:10060000A04202D3001B5C0822438C08A04202D304
:10061000001B9C082243CC08A04202D3001BDC082C
:100620002243002803D01B0901D00909E3E7101C6D
:100630006446002C00D5404210BC7047002806D00C
:1006400003DB0020C043400801E08020000607B41F
:10065000024802A14018029003BDC04619000000E4
:100660000029EBD003B5FFF7A7FF0EBC4243891A60
:100670001847C0467047C0468378022098428041A0
:1006800040427047437A0020013B012B03D90B788D
:10069000012001330B70704708B5002002F0CAF941
:1006A000002803D00020011C02F0B8F908BD0000AA
:1006B000024B1A6801321A607047C046F8FFFF1FEC
:1006C00008B50020014901F0B2F808BD0832000069
:1006D00008B50020014901F0AAF808BD2232000047
:1006E00037B5002001F03AFB0E4AC0239B0013608F
:1006F0000D4A0E4C13600E4A002513600D4B2571F8
:100700006571A5711A68FA239B005343281C0A4996
:10071000236002F0DFF9281C211C01AA02F01CFA58
:1007200037BDC046189014541C901454F0FFFF1F9E
:1007300000A014540CFEFF1FFCFFFF1F08B5002093
:1007400001F011FB054A80239B001360044A00203E
:100750001360044901F0BEFC08BDC0460CA014544F
:1007600010A01454BCFFFF1F364A08B500231360C5
:10077000354A01211360354A80235B001360344AF7
:100780001360344A1360344A1360344A1360344AA5
:100790001360344A1360344A10780140101C334A05
:1007A000002901D0136000E01160314A3149136023
:1007B00000220A6030490A60304A1360304A1360F0
:1007C000304A1360304A1360304A1360304A136075
:1007D0000378DA0703D50220FF3001F08DFB0920F2
:1007E00001F098FB0C2001F095FB052001F092FB35
:1007F000082001F08FFB0620FF3001F08BFB0E205C
:10080000FF3001F087FB8320400001F083FB0820CC
:10081000FF3001F07FFB0C20FF3001F06DFB8220E8
:10082000400001F077FB0420FF3001F073FB07204C
:1008300001F070FB062001F06DFB8020400001F00C
:1008400069FB08BD0C901454109014541490145467
:10085000189014541C901454209014542490145440
:100860003090145400A0145400FEFF1F04A0145430
:1008700008A014540CA0145410A0145414A0145420
:1008800018A014541CA0145428A014542CA01454C0
:1008900034A0145408B5092001F03CFB08BD08B58C
:1008A0000C2001F037FB08BD08B5FFF7F3FFFFF799
:1008B000F6FF8320400001F01FFB024B186801F097
:1008C000D2F808BD04FEFF1FF0B5BFB01EAD002179
:1008D0000722281C02F0D7FB10AA279216AA0EA9FD
:1008E0002B921CAA269112AB14A92E92E04A2993AE
:1008F0002A9118AB1AA901262C932D9123AB032121
:10090000239200200CAA197125920D932E70289520
:1009100001F01CFA301C01F019FAD64B80210902B3
:10092000196001F0BDF80020021C031C0096011C98
:1009300000F094FDD049002000F084FDC82001F0B3
:1009400092F8CE49002000F07DFDC82001F08BF820
:10095000CB49002000F076FDC82001F084F8331C5C
:10096000C84A0221C84801F0BFF8311C301C01F010
:10097000C7F8002001F0FCFFFC2320A9DB000022C7
:1009800000200B804E808E80CA800A818A7202F01D
:100990001DF8321C00210CA802F075FB291C07224F
:1009A00012A802F067FB12AB032119700722291C61
:1009B00014A802F05FFB052314AA1370291C072258
:1009C0000EA802F057FB02230EA90B700722291C68
:1009D00010A802F04FFB042310AA1370291C072251
:1009E00016A802F047FB082316A90B700722291C42
:1009F00018A802F03FFB092318AA1370291C07222C
:100A00001AA802F037FB0A231AA90B701CAA0023AC
:100A100013700921331C0DAA26A801F0BDF99B49CA
:100A20009B4801F04DFAFFF79FFE0820FF3001F0D0
:100A300063FAC82001F017F80820FF3001F06AFAC5
:100A4000C82001F010F80820FF3001F055FAC82046
:100A500001F009F80820FF3001F05CFAC82001F02D
:100A600002F80820FF3001F047FAC82000F0FBFF31
:100A70000820FF3001F04EFA86491D2000F080F971
:100A8000FFF712FF80200002FFF758FE8022311C82
:100A90001202002000F079F900F036FA7E490020B9
:100AA00000F0C5FEFA20800000F0DDFF00260020E7
:100AB00000F0AAF92FAD7053C01987B2002000F0E2
:100AC000C1F90299AD196880401880B202900020E7
:100AD00000F0D6F90636A88004196420A4B200F00C
:100AE000C2FF3C2EE3D102993AB20BB221B200917F
:100AF00000206A4900F09BFE00220125039200209D
:100B000000F082F983B204900020059300F09AF976
:100B10000690002000F0B4F9059A81B20790089180
:100B200038B20A2116B2FFF745FD301A02F061FA19
:100B30000299069B061C9BB208B20A210993FFF793
:100B400039FD099A089B101A80B21BB20A900A213B
:100B500020B20B93FFF72EFD0B9936B2081A02F064
:100B600048FAFA2380B2DB009E4232DD00B298429E
:100B700000DCBAE0042D0CDD002400F08BFA251C0B
:100B800000F088FA271C00F085FA00F083FA02943E
:100B900002E00020424963E0002000F035F92FAE6A
:100BA000A853C01987B2002000F04CF9029A7619B8
:100BB0007080801880B20290002000F061F9063544
:100BC000B08004196420A4B200F04DFF3C2DE3D1A5
:100BD000AFE00A990AB29A422BDD00B2984200DCDB
:100BE00083E0042D02DC00202E4939E0002400F0CF
:100BF000FDFA251C0294271C002000F005F92FAEF9
:100C0000A853C01987B2002000F01CF9029A761987
:100C10007080801880B20290002000F031F9063513
:100C2000B08004196420A4B200F01DFF3C2DE3D174
:100C30007FE01D498A4258DA00B2984255DD042D02
:100C40000CDD002400F07AFA251C00F077FA271C4E
:100C500000F074FA00F072FA029429E013490020BF
:100C600000F0E5FD6420013500F0FDFE62E0C046C5
:100C70008506000000020020CD320000E8320000AE
:100C8000EE32000020FEFF1F24FFFF1F34FEFF1F77
:100C900024FEFF1FE0FFFF1FF532000009330000B4
:100CA0002F3300003F33000030F8FFFF4F330000C8
:100CB000002000F0A9F82FAEA853C01987B2002079
:100CC00000F0C0F8029B76197080C01880B20290C4
:100CD000002000F0D5F80635B08004196420A4B2D5
:100CE00000F0C1FE3C2DE3D123E0039B06267343B5
:100CF00005992FAD5953069A08990398EB185A8015
:100D0000998001300A21FFF7ABFC4E43049B03910D
:100D1000FA18735B0999D31A9FB2029BAD19CA18CE
:100D20006B880799D31A9BB20293AB886418E41AB4
:100D3000A4B20025642000F096FEE0E610B50D4B4D
:100D400088B01B780C1C06A90B800B4B05AA1B68EE
:100D500010700A484B60006804AB1C7000930123BC
:100D600002900193002001F0F9FA431E98414000DF
:100D700008B010BDE0FFFF1F08FEFF1F10FEFF1FA1
:100D8000C223FF3308704B60704738B5031C0D1C3D
:100D90000920191CFFF7D2FF291C041C2A20FFF789
:100DA000CDFF0443E0B238BD30B589B005AAFF23BA
:100DB0001370182804D8092806D206281BD803E087
:100DC000031C1D3B142B16D80C4C06AB2578107059
:100DD0001D800B480B4D08342D680068019102906E
:100DE000191C009401230020079501F0C4FA431E4A
:100DF0009841400000E0032009B030BDE0FFFF1F34
:100E000010FEFF1F08FEFF1F10B502210120FFF793
:100E1000CBFF094B09491A7A5C7A9301A4081C4359
:100E200080239B015C40064B0020E418221C00F04C
:100E3000FEFC201C10BDC046E0FFFF1FDC3300009D
:100E400000E0FFFF10B502210320FFF7ADFF094BC3
:100E500009491A7A5C7A9301A4081C4380239B01F8
:100E60005C40064B0020E418221C00F0E0FC201C33
:100E700010BDC046E0FFFF1FDC33000000E0FFFFB5
:100E800010B502210520FFF78FFF094B09491A7A97
:100E90005C7A9301A4081C4380239B015C40064BB1
:100EA0000020E418221C00F0C2FC201C10BDC0462B
:100EB000E0FFFF1FE933000000E0FFFF37B50E241D
:100EC000FF34051C201C01F017F80A2000F0CBFDB0
:100ED000201C01F01FF80C2001F01CF8084A012327
:100EE00015700093FA239B0000200193011C054B11
:100EF00001F090FE051C201C00F0FEFF281C3EBDEA
:100F00002D0000202C000020544AC0239B0010B567
:100F10001360534A80241360FFF7E2FB514B6400D7
:100F20001C60514B201C1C60504B1C6000F0E4FF07
:100F3000642000F098FD201C00F0ECFF642000F01D
:100F400092FD201C00F0D8FF642000F08CFDAE2044
:100F5000FFF7B4FFA020FFF7B1FF7220FFF7AEFF4D
:100F6000A120FFF7ABFF0020FFF7A8FFA220FFF7AB
:100F7000A5FF0020FFF7A2FFA420FFF79FFFA820F6
:100F8000FFF79CFF3F20FFF799FFAD20FFF796FF8B
:100F90008E20FFF793FFB020FFF790FF0B20FFF7A5
:100FA0008DFFB120FFF78AFF3120FFF787FFB320C5
:100FB000FFF784FFF020FFF781FF8A20FFF77EFF15
:100FC0006420FFF77BFF8B20FFF778FF7820FFF787
:100FD00075FF8A20FFF772FF6420FFF76FFFBB20C9
:100FE000FFF76CFF3A20FFF769FFBE20FFF766FFAF
:100FF0003E20FFF763FF8720FFF760FF0620FFF723
:101000005DFF8120FFF75AFF9120FFF757FF8220F5
:10101000FFF754FF5020FFF751FF8320FFF74EFFEB
:101020007D20FFF74BFFAF20FFF748FF2620FFF79B
:1010300045FF0120FFF742FF2520FFF73FFF00207B
:10104000FFF73CFF0020FFF739FF5F20FFF736FF77
:101050003F20FFF733FF002010BDC04620901454FE
:101060002490145434A014543090145400A01454F8
:1010700008B52520FFF722FF0020FFF71FFF002003
:10108000FFF71CFF5F20FFF719FF3F20FFF716FF58
:10109000002008BDF0B5284B9BB002AF191C3A1CCC
:1010A00031C931C251C951C208AD1A1C0095291C61
:1010B000183251CA51C161CA61C11A1C0EAE303218
:1010C000311C31CA31C131CA31C114AD48332A1C77
:1010D00013CB13C213CB13C200242220FFF7EEFE62
:1010E000385DFFF7EBFE305DFFF7E8FE08A9085D0D
:1010F000FFF7E4FE285DFFF7E1FE0020FFF7DEFECC
:10110000FF20FFF7DBFE0020FFF7D8FE0020FFF7EF
:10111000D5FEFF20FFF7D2FE04340020FFF7CEFEFD
:10112000182CDAD1FA20400000F09DFCFFF7A0FF58
:1011300000201BB0F0BDC046B8300000F0B5294B10
:101140009BB01A1C02AF6032391C31CA31C131CA9E
:1011500031C108AD78332A1C13CB13C213CB13C291
:1011600021480EAE021C1032311C844619CA19C126
:1011700019CA19C114AC63460194221C283313CB3D
:1011800013C213CB13C200242220FFF797FE385D51
:10119000FFF794FE305DFFF791FE285DFFF78EFEAE
:1011A00014A9085DFFF78AFE0020FFF787FEFF20E5
:1011B000FFF784FE0020FFF781FE0020FFF77EFE90
:1011C000FF20FFF77BFE04340020FFF777FE182C8A
:1011D000DAD1FA20400000F046FCFFF749FF00207A
:1011E0001BB0F0BDB830000038310000F0B52C4B1A
:1011F000A7B01A1C02AE4032311C31CA31C131CA0B
:1012000031C131CA31C10BAC0194221C643323CBF0
:1012100023C231CB31C232CB32C2224B14AF1A1CA3
:101220000832391C31CA31C131CA31C131CA31C168
:101230001DAD2C332A1C13CB13C213CB13C213CBFB
:1012400013C200242220FFF739FE385DFFF736FE77
:10125000305DFFF733FE285DFFF730FE0BA9085D18
:10126000FFF72CFEFF20FFF729FE0020FFF726FEE8
:101270000020FFF723FEFF20FFF720FE0020FFF7EE
:101280001DFE04340020FFF719FE242CDAD1064895
:1012900000F0E9FBFFF7ECFE002027B0F0BDC046F0
:1012A00038310000B8310000881300000269C368BB
:1012B0009A4204D8806810180138C01A01E0013A37
:1012C000D01A7047F7B58368C668041C406801915E
:1012D000151C9F1B8019974203D901F0CBFEAD1955
:1012E0000AE001993A1C01F0C5FE019BED1BD919DA
:1012F00060682A1C01F0BEFEE560F7BDF7B5171C5B
:10130000C4680022061C019100923369B568A342AB
:1013100000D85B19013B1B1B2D1BBD4200D93D1C96
:101320009D4200D91D1C73682A1C1819019901F0EF
:10133000A1FE009A019B52190092B2685B196419D0
:101340000193A31A5A1E93415B421C407F1BF46019
:10135000DBD10098FEBD000010B5104C104A0223EE
:10136000236163610F4BA261A2640F4AE361C8234A
:101370002362E26400230422A3626362E362A36542
:101380006365E3652265E01D084901F084FE201CC9
:10139000074901F080FE2023A37110BDFC0000204E
:1013A000A0380000320000202E000020A9380000E4
:1013B000AD380000F8B5013018256843134D0F1CF7
:1013C0002D186E69141C012E0ED0002E06D0022E90
:1013D00016D1281CFFF792FF041C14E0281CFFF70D
:1013E00065FFA0420ED305E0281CFFF75FFF844293
:1013F00000D9041C281C391C221CFFF763FF02E0E3
:10140000002400E0341C201CF8BDC046FC00002075
:10141000F8B50B4B071C1B780E1C151C002B01D1BB
:10142000FFF79AFFEFF31084012181F31088381C35
:10143000311C2A1CFFF7BEFF84F31088F8BDC0469C
:10144000FC00002038B5051C081C0C1C01F02BFE0C
:10145000211C021C281CFFF7DBFF38BDF7B5164C1A
:1014600001932378051C0F1C161C002B01D1FFF7DC
:1014700073FF226995421CD2EFF31080012181F3A2
:101480001088002D0CD018236A1C5A436B43A750B8
:10149000A2185660019AE3181A6200229A625A62F0
:1014A00018235D43089B6419E36280F310880020D1
:1014B00001E001204042FEBDFC000020826810B522
:1014C000041C4068531C834205D820688154A360E3
:1014D000E3680133E360A26863689A420CD1206933
:1014E0002168FFF795FFA368984203D001235B4270
:1014F000E36001E00023A36010BD0000F0B585B0FB
:101500000A9C051C009101921F1C081C0126019ACF
:10151000904204D30199FEF7FFFF0136F7E70296E8
:10152000BE4200D202970B9A01231A40039219D1AE
:10153000002C01D1002415E00B9B20269B070ED523
:101540003026002F0BD0202609E0281C311CFFF785
:10155000B5FFEA68013C002A04DB002CEAD0029BBC
:10156000A342F2D3EA680126002A34DB012F01D915
:10157000013F06E00098311CFEF7CEFF019B984228
:1015800008D3019A5643F1E7301C0199FEF7C4FFD6
:10159000061E10D00098311CFEF7BEFF331C4343DB
:1015A000009AD21A0D4B0092195C281CFFF786FF97
:1015B000EB68002BE8DA039A002A0CD0002C0AD042
:1015C000029AA24207D2281C2021FFF777FFEB687E
:1015D000013C002BF2DA05B0F0BDC046B438000083
:1015E000F0B59DB00CAB0793402308930023059002
:1015F000161C09930B900A930B784C1C002B04D1FA
:101600000A9B002B00DD04E10EE1252B00D0F6E063
:10161000023100254F1E3B782B2B0CD003D8232BF7
:101620000DD1082308E02D2B03D0302B07D1022346
:1016300002E0012300E004231D430131EAE7002416
:101640003B781A1C303A092A05D80A225443303C08
:101650000137E418F4E7002102912E2B0DD1013758
:101660003B781A1C303A092A07D802990A224A43C1
:10167000303AD21801370292F2E7397804230A1C73
:101680009A43682A01D10137F7E7642925D008D8A1
:10169000582900D193E063291AD0252900D0ACE065
:1016A000A8E0732900D193E00DD8702900D0A4E000
:1016B000336807A81A1D19683260082300220192B6
:1016C0000093102293E075296FD0782977D094E0A9
:1016D00033681A1D326019788CE033681A1D1B6854
:1016E0003260D91758180122049348400392092800
:1016F00006DD0A21FEF75EFF039B01330393F6E745
:101700000399029A914200D20392002C05D0049BC7
:10171000002B01DB690700D5013CAA0702D5029B1B
:10172000002B10D0E9070ED4002C01D100240AE0D0
:10173000039AA24207D207A82021FFF7BFFE0A9B07
:10174000013C002BF0DA0A9B002B56DB04990029A0
:1017500004DA4942049107A82D2103E06A0703D562
:1017600007A82B21FFF7AAFE0A9B002B45DB0323CA
:101770002B40022B11D1029900290ED1002C01D14E
:1017800000240AE0039AA24207D207A83021FFF7FB
:1017900095FE0A9B013C002BF0DA0A9B002B2CDB08
:1017A0000094019507A8049906E0336807A81A1D5C
:1017B00019683260009401950A22029B17E0336891
:1017C00007A81A1D19683260009401951022F4E7E9
:1017D00033681A1D32601C682178013400290CD04E
:1017E00007A8FFF76BFE0A990029F5DA05E0FFF775
:1017F00085FE02E007A8FFF761FE7C1C03E007A856
:10180000191CFFF75BFE0A9A002A00DAF8E6211C91
:10181000F2E6099A002A03D005980CA9FFF7F8FD13
:101820000A99099A8B180A930A981DB0F0BD0EB454
:1018300003B503AB04CB111C01AA0193FFF7D0FE43
:1018400002B008BC03B0184708B5002000F070FBD8
:1018500008BD08B5002001F00BF908BD10B5174B05
:1018600008229978114202D099780A439A70144B51
:101870008821002249015A50124922200870124939
:1018800080204002585018681049014019601049E2
:1018900010485C582040C024A404204358500E4BEC
:1018A00080211A72197601211A7059700B490A7039
:1018B00099790C221142FBD110BDC04600D00740DF
:1018C0000070044000E0074044100000FFFFF3FFF9
:1018D00004100000FFFFFFF00040064000500640EB
:1018E000154B164930B51A1E8A420CD0144C0023F1
:1018F000A408A34204D098000D5801331550F8E70E
:10190000104B9A6001E00F4A93600F4A0F49002381
:10191000891A8B4204D0D45C0D48C4540133F8E7D3
:101920000C4A0D490023891A8B4204D0D018002498
:1019300004700133F8E730BD000000000000000033
:101940000000000000ED00E01C3A0000BC3B00007D
:1019500000FEFF1FA0FFFF1F0C020020031C4170B0
:101960000020187058609860704710B54378041CC8
:101970000120FF2B08D000F007FA63780133DBB2B7
:10198000637000F0F5F9002010BD38B5041C0D1C83
:1019900000F0FAF9E3681D43E56000F0E9F9002082
:1019A00038BD00000A4B00229A641A1C40329A6328
:1019B0001A1C30329A621A1C20329A611A1C103298
:1019C0009A60044A1360044B9B60DB607047C0461A
:1019D000880100208401002074010020024B0022B5
:1019E0001A60186880B270470C007C5070B543785C
:1019F000041C0E1C002B0AD000F0C6F963780025E9
:101A0000013BDBB26370257000F0B2F929E00225DA
:101A1000002926D00378002B16D0FFF7DFFF63687C
:101A2000A268984201D3C31A03E08021C31A490275
:101A30005B1803259A4214D200F0A6F90023237004
:101A400000F096F902250CE003254B1C09D000F0AC
:101A50009BF90123237000F08BF9FFF7BFFFA6600D
:101A60006060281C70BD38B5051CFFF7B7FF041C6B
:101A7000FFF7B4FF031BA04203D28022001B5202D7
:101A800083189D42F4D238BD08B5012801D100F079
:101A90007BF908BD08B5012801D100F069F908BD3E
:101AA00010B5FFF77FFF094A012313600849094A6F
:101AB0000020094C1060086004212160074C21605F
:101AC00007490B6007490860136010BD3880045057
:101AD0000000845000000450000004510400045130
:101AE00004000C500000045310B5044C2060217118
:101AF0000020A2602373637310BDC046D80100208C
:101B0000F0B585B003AD374C009001912870697035
:101B10002379009904208B4261D9237B00266373CB
:101B20000123AB70371C237BBB4215D9A268BB00D5
:101B30009B58002B0DD01A79D1070AD59968281C1B
:101B40001B689847002804D0019A67730526002A6D
:101B500032D00137FFB2E6E7002E02D0019B012B05
:101B60002AD10120FFF790FF00990C2048432268FA
:101B70000027101800F08AF8009B01206371FFF71E
:101B800089FF0223AB70237BBB4225D9A168BB0030
:101B90005B58002B0DD01A7991070AD59968281C3B
:101BA0001B689847002804D0019A6773002A15D053
:101BB00006260137FFB2E6E70023AB70013FFFB214
:101BC000FF2F09D0A168BB005B58002BF6D09968A5
:101BD000281C1B689847F1E7301C00E0062005B080
:101BE000F0BDC046D801002013B503780021041CC5
:101BF0000191022B07D0032B0BD0012B0ED10279C0
:101C0000191C134801E00279114801AB00F0B2FD44
:101C100008E001A90E4800F0EFFD03E00C4801A91F
:101C200000F08CFD002812D1A2790A4BD201D2B269
:101C30001A706278084B5200D2B21A70A278074B21
:101C40001A70E278064B1A706279064B1A7016BD4C
:101C50000040064018408653004086500040065021
:101C600001400650184016501F2303408021DA051A
:101C7000490511434209044892001218081C1043F8
:101C800001229A40026070472880044073B5124DCB
:101C900000220723041C0093281C131C012100F0C0
:101CA000D7FE201CFFF7A0FF637A0022217A009361
:101CB000281C131C00F0CCFEE279084B92041A6039
:101CC000074BA17A1D68281C00F0B2FD281CE17AA0
:101CD00000F0B5FD002076BD0070044000700C5986
:101CE0001039000008B5054800F0E8FC044B1968FD
:101CF000C9B20131FEF710FC08BDC04600400640E5
:101D0000448014580C4B1868C0B202280FD0032826
:101D100002D000280ED102E0FA2080000BE0074B31
:101D200080221B681202934205D1181C03E0044B69
:101D3000186800E00020704700700C590002002075
:101D40000402002008B5FFF7DDFF08BD08B5024B0F
:101D5000185CFFF789FF08BDC438000008B576207D
:101D6000FFF782FF08BD08B56620FFF77DFF08BDBD
:101D7000044A1368002B04D0013B1360002B00D1F0
:101D800062B67047E801002072B6024B1A68013251
:101D90001A607047E8010020F7B5071C0E1C151CDF
:101DA00001930120002F15D0002913D0FFF76CFEFE
:101DB000094C0021201C102201F065F927602671D2
:101DC000002D03D0019BA560237363730120FFF7EF
:101DD00061FE0020FEBDC046EC0100200368F7B59F
:101DE0001D0AFF2635401B4A1E40AB009F581A4A69
:101DF000041C9A58281C0192FFF7A8FF311C0022EE
:101E0000381C00F0EDFF019BB6009E192279842357
:101E10005B05334352001A60802362795B053343CC
:101E20001A60A27990235B05334312011A60E379AB
:101E30000A4A16431A043260002B0AD0084B5B5D35
:101E4000002B06D01F22134001229A40131C054A82
:101E50001360F7BD1C390000143900000000181889
:101E60002439000000E100E0F8B50368041CFF25F8
:101E7000180A2840104A1D4083009E580F4A9F5858
:101E8000FFF764FF301C291C012200F0A9FF301C61
:101E9000291C626800F0B4FFAD00227A88237D1906
:101EA0005B052B4392001A6098235B051D43637A00
:101EB0009B012B60F8BDC0461C390000143900009E
:101EC00038B50C1C002802D1002C09D112E003689F
:101ED0000133F9D0051C0835FFF780FF281CF6E711
:101EE0002368013306D0251C201C0C35FFF7BCFFEE
:101EF0002C1CF5E738BD0000010AFF231940044AF5
:101F0000890003408A580120984050607047C046BD
:101F10001C390000010AFF231940044A89000340CC
:101F20008A580120984090607047C0461C390000D4
:101F300008B5084B8200D258942302325B05134344
:101F40001B78002B02D000F023FA01E000F078FAB1
:101F500008BDC046C8380000021C80230C325B0557
:101F600013431B78002BF7D00171704738B5094B2C
:101F70008000C4580D1C201C1830291CFFF736FDAA
:101F80000328F8D0002801D004232374207CC0B299
:101F900038BDC046FC010020F0B589B005930EABFA
:101FA0000290161C1A78830035488D0A18581E3D79
:101FB00001903448CFB21C58002007AB1880012391
:101FC000A07CE374A37453425341DBB203936B428E
:101FD0005D41EDB20490002D02D00F0AC9B28C46CB
:101FE0007F000023FFB29D4204D12B1C002E01D1A3
:101FF000039AD3B21F4307AB1F700122002D02D0FA
:10200000604658700222A360E2600198391CFFF715
:10201000A3FF02980F99FFF7A9FF237C002B0CD197
:10202000002E0AD0059AA660E26031780198FFF789
:1020300093FF02980F99FFF799FF237C002B16D18D
:10204000039B002B13D0002D01D1002E0FD00023B5
:102050000125A3600198E56000F026FF291C3943A3
:102060000198FFF779FF02980F99FFF77FFF049817
:102070000023A074207CE374C0B209B0F0BDC04658
:10208000C8380000FC010020104A830010B59858A1
:102090000F4A9C58E37C002B05D0237C052B02D0F3
:1020A000237C042B09D19823821C5B051343002257
:1020B0001A7000F00BFF01236374A37C002B03D084
:1020C000201C1830FFF751FC10BDC046C838000076
:1020D000FC010020F7B5194B8200D358061C019370
:1020E000174B0D1CD75800920124002F24D1242215
:1020F000081C391C00F0C7FF281C391C1830FFF7DA
:102100002DFC301CFFF72FFE019800F081FE009A95
:102110000B4BD5500B4B9A5D1F231A40231C934049
:102120001A1C094B1A60019A9C2302325B05134367
:1021300080226C741A703C1C201CFEBDC838000044
:10214000FC010020C638000000E100E00A4A8300DC
:1021500070B59E58094A0C1C9D584A686B699A4292
:1021600009D0FFF7BFFD6268011C0023301C00F09E
:102170005DFE64686C6170BDC8380000FC01002021
:10218000F0B587B005930FAB1B780492334A0293E6
:1021900083009E58324A03919C58071C637C002B95
:1021A00002D10320207456E0029B002B01D11E2394
:1021B0000E930023E360A360237423606374029B87
:1021C000381CA3740399FFF7C1FF9022B31C52057A
:1021D0001A431021117098258422F11C52056D05B7
:1021E0000A431D43022140231170301C2B7000F064
:1021F0005BFE039B381C1988012300930E9B049AF5
:102200000193059BFFF7C8FE0D9B002B16D0237C86
:10221000002B10D10C9B301CA3600D9BE3600C9B2A
:102220001978FFF799FE029B002B12D0381C0E99EB
:10223000FFF79CFE0DE0237C042B0AD100232B70BA
:10224000F37801255B092B4202D0301C00F03EFEE2
:102250006574207CC0B207B0F0BDC046C83800002D
:10226000FC010020F0B58BB0099313AB1B780892EA
:10227000384A049383009D58374A07919C58061C9E
:10228000637C002B02D10320207461E004990029B3
:1022900001D11E221292109B1199049A00276160AD
:1022A0002360E760A2742774301C0799A7606774E5
:1022B000FFF74CFFAB1C0393039990235B05194375
:1022C00010230B708423EA1C5B05134302221A704F
:1022D000039A98235B051A4340231370281C059129
:1022E000069200F0E1FD079B129A1988301C0192BA
:1022F000099B0097089AFFF74FFE237CDBB2BB4295
:1023000016D105998C220B7011995205012903D120
:10231000039B1A43082301E003990A431370049AAC
:102320002B79002A12D0301C1299FFF71FFE0DE006
:10233000237C042B0AD1069B01261F70EB785B09D6
:10234000334202D0281C00F0C1FD6674207CC0B26C
:102350000BB0F0BDC8380000FC0100201FB5069C82
:102360000094079C0194089C029401240394FFF7B5
:1023700007FF04B010BD1FB5069C0094079C019494
:10238000089C029401240394FFF76CFF04B010BD75
:10239000254A830070B59D588422E91C52050A43E2
:1023A00002211170214A9C5890226B1852051A4341
:1023B0001278E978D2B28E0634D5942149051943B2
:1023C000097800292ED0012A15D1EB78134202D0CA
:1023D000052323740CE0E368013BE360002B07D086
:1023E000A368281C5A1CA2605978FFF7B5FD19E0B4
:1023F000FFF74AFE16E06268013A6260002A06D0E2
:102400008C214905012A05D10B43082204E0FFF77E
:102410003BFE02E00B4300221A7023685A1C226024
:102420002A791A7070BDC046C8380000FC0100202F
:10243000C31C84204005184302230370704700002A
:10244000F0B5904B8100CD589022EB7889B05205C1
:10245000DBB2071C0593101CAB1D1843EE788446B5
:102460000078EC1CC0B20790942040051843007817
:102470000494F6B2441EA041834C06969826760535
:102480000C59A91CC0B23343009111430290187833
:102490000A78C0B2D2B20392029A0191002A30D0D7
:1024A000079900290DD0102362461370281CFFF7EE
:1024B000BFFF236B002B00D1E1E0F8B2626B01217A
:1024C000D9E000281DD040221A70281CFFF7B0FF69
:1024D000231C2C331B78002B02D100980643337049
:1024E000236B002B03D0F8B28021626B9847E37D09
:1024F000002B04D0201C18308021FFF746FA0A2355
:10250000BCE0069901228E11281C1640FFF790FFAF
:102510000598012103110B4219D0049A90235B0501
:10252000134310221A70002E04D0EB785B07DB0FE8
:1025300010D11AE0082323702C342378002B00D00C
:102540009DE09822009C52052243137097E0002ED4
:1025500016D0EAE7019810230370236B002B6BD091
:10256000F8B20221626B984766E001990B70236B09
:10257000002B03D0F8B2626B042198472B797EE0E0
:10258000039A012A26D1EB78134255D0019B1E7085
:102590002B79231C2C331B78002B07D102980028A1
:1025A00004D1982300995B050B431870236B002B13
:1025B00003D0F8B20821626B9847A37D002B04D0AA
:1025C000201C18300821FFF7E0F900236360E36066
:1025D000237554E02B79A268DBB2002A2AD0226945
:1025E0001370236901332361A368013BA360A368CF
:1025F000002B44D1029B002B12D1231C2C331B78BF
:10260000002B05D1982300985B05029903431970AC
:10261000E37D002B04D0201C18302021FFF7B5F9F2
:10262000002363752361236B002B28D0F8B2626B03
:10263000202120E0072321E06368002B1DD0E26801
:102640001378291C80220C3152050A431278002A83
:10265000F7D02B71E3680133E3606368013B63608B
:102660006368002B0BD1E3602375236B002B06D02E
:10267000626BF8B21021984701E00623237009B07D
:10268000F0BDC046C8380000FC01002084235B0573
:1026900003431A7800239A4209D080235B05013056
:1026A00018430378012B01D1024B00E0024B181CA8
:1026B0007047C04600127A0080841E0010B50D4A93
:1026C000831D13431B78041CDBB2002B0FD0012B9E
:1026D00007D1FFF7DBFF084B08341C432378D840B1
:1026E00006E00020022B03D1044B186800E00448E8
:1026F00010BDC0460000081100009010000200202C
:10270000006CDC020C4A831D13431B78DBB2012BE7
:1027100008D0002B04D00320022B0CD005200AE0A7
:10272000181C08E080235B05013018430078431E25
:1027300098410223181A7047000008119C22031CBC
:1027400052051830024380201070074A00201A43B7
:10275000107006489A1D02431078C0B20028F8D1C4
:10276000034B0B607047C0460000081300000811BF
:10277000006CDC02F8B5041C0D1C171C1E1CFFF7B6
:10278000C1FF012802D1002D04D007E0022805D1A5
:10279000012D03D1201C311CFFF7D0FF8023621CC8
:1027A0005B0513431D7084235B05234302221A70CB
:1027B0000C4A231C083313437A00D2B21A700A4B16
:1027C000402223431A70094AA31D13431B78012B8F
:1027D000F9D1002D01D1064B00E0064B3B4133609F
:1027E0000020F8BD00009010000008130000081140
:1027F00080841E0000127A000A4A10B51468031C77
:102800000120002C0CD00848802418430470074C89
:10281000981D204300780228F9D1126800200A6030
:1028200010BDC0460002002000000813000008117F
:102830009C235B05C9011843C9B2017070479423FA
:102840005B0549011843C9B20170704730B51149A1
:102850000488031C62180020812A19D85A88511E46
:102860000B2915D899884D1E1E2D11D8DD88172DDE
:102870000ED81D893B2D0BD89B7A3B2B08D8A3077C
:1028800001D0054B00E0054B9B5C8B424041C0B240
:1028900030BDC0464EF8FFFFF3380000E6380000B8
:1028A00070B5124A85880388AD186E22FF325A43EC
:1028B0004488AA189D0852190D4D6600755B52197F
:1028C0009D0702D1022C00D8013A0A60C488E12297
:1028D0000389120162433C246343D318827A086857
:1028E0009B18044A42439B180B6070BD4A05F5FFD4
:1028F000CC38000080510100084B1A6880231B026D
:102900009A420AD1031CA0201033400518430368E3
:10291000002B02D180235B0003607047000200207F
:1029200010B58022041C52051034002314430121E9
:10293000216023604360016090211C304905014300
:102940000B608821490501430B608421490501433F
:1029500010430B60036010BD021C902314325B0512
:10296000134300221A604260102201601A6070470F
:10297000114B820070B5D558104B802292051A6019
:10298000041C281CFFF7CCFF281CFFF7B5FF0C4BDD
:102990000C4E195D01251F221140345D2B1C8B400C
:1029A000191C2240084BC020A840954019501D50CA
:1029B00019601D6070BDC046043900003C80845E13
:1029C000013900000039000000E100E0F7B5124BCA
:1029D0008000C7580025081C0E1C0195FFF736FF24
:1029E000041EAC4216D001A9301CFFF759FF281C69
:1029F000FFF7A8F9011C80200002814206D0FDF7F4
:102A00008BFD011C0198FDF787FD0190381C019991
:102A1000FFF7A2FF201CFEBD04390000044B80001C
:102A2000C25888231C325B05134389001960704724
:102A300004390000054B8000C258882314325B051E
:102A400013431868431E9841C0B270470439000010
:102A50006B461A78E023DB0212041A400B07111CA4
:102A60001943024BC01801607047C0464410000073
:102A700008B5084B8200D258902303325B051343FC
:102A80001B78002B02D000F0F1F801E000F058F9BB
:102A900008BDC0460C3900000C4A08B580000C4B3C
:102AA0008158C3589C2003314005002208431A7105
:102AB00002709420400501430A701A7F002A03D057
:102AC000181C2030FEF751FF08BDC0460C3900002D
:102AD000080200201C4BF7B53022061C0C1C870096
:102AE000081C0021FD5800F0CEFA301CFFF736F923
:102AF000FFF7F8F82060281C00F005FA201C0021E0
:102B00002030FEF72BFF9023EA1C5B051343019254
:102B100010221A70281C032100F035FA281C00210D
:102B200000F057FA094BFC50094B9A5D1F231A40DD
:102B3000012393401A1C074B1A60019A98235B05E6
:102B4000134340221A70F7BD0C3900000802002020
:102B50000839000000E100E00A4B800070B5C5585C
:102B6000094B0C1CC358161C281C1A68096800F075
:102B7000D1F930602179281C6279A37900F016FA26
:102B800070BDC0460C39000008020020F7B51F4A8E
:102B900083009C581E4A061C9D5822790420002A56
:102BA00033D1002903D0301C01AAFFF7D5FF9821AB
:102BB000EA1C49051143002340200B700870276967
:102BC0009F4203D1301CFFF767FF1DE001212171F7
:102BD000A36194235B052B4319780720002914D0A7
:102BE000A368002B03D019780133A36000E0191CFF
:102BF000A9712369013B2361A3690133A3619C236C
:102C00005B051A43802313700020FEBD08020020DC
:102C10000C390000F8B5134C8600134F3459069D4B
:102C2000F65901272777A2602561E3606561FFF708
:102C3000ADFF051E14D1201C20300799FEF7D6FEEB
:102C40000328F8D000280BD09C220336520500231D
:102C500032432371137094225205164333700325B7
:102C6000281CF8BD080200200C39000010B51F4BCD
:102C70008200D3581E4952581979002934D0596915
:102C8000002911D09C2149051143097800290BD056
:102C90009479D968E4B2002903D00C70D968013165
:102CA000D9605969013959611969002914D09421F1
:102CB00049051143097800290ED09968002903D0ED
:102CC0000C780131996000E00C1C94711A69013A8A
:102CD0001A619A6901329A611A69002A04D15B6902
:102CE000002B01D1FFF7D8FE10BDC046080200201E
:102CF0000C39000008B5104B8000C3580F4A8158AA
:102D00000022581CC2779C20033140050843DA6238
:102D10001A701A835A629A621A63027094204005EC
:102D200001430A701A1C38321278002A03D0181D89
:102D30000121FEF72AFE08BD080200200C39000020
:102D400038B5254B8200D35824495258591CC97FA5
:102D500000293FD0D96A002916DB94214905114387
:102D60000978002910D0596A1C7F002905D0DD6A36
:102D7000002D02DD0C78013159629471D96A013954
:102D8000D962596B01315963D96A002905DA942156
:102D9000D41C4905214300240C70196B002911DD56
:102DA0009C2149051143097800290BD091799A6A31
:102DB000C9B2002A03D011709A6A01329A621A6B62
:102DC000013A1A63DA6A002A04DC1B6B002B01DC6F
:102DD000FFF790FF38BDC046080200200C39000004
:102DE00014308023012A04D11B058A401843111C8A
:102DF00004E0DB04184301238B40D9430160704792
:102E000001238B40002A01D0436000E083607047BB
:102E10000023C222037043708370C37043718371B7
:102E2000C371037242728372C3727047F0B587B088
:102E30000293FA239B005343002701250490059138
:102E400001936D423C1C00970123A340039300268D
:102E5000144A059893195988039B5943FDF75CFB65
:102E6000019A831A824200D9131AAB4204D20D4A46
:102E70000094975D1D1E02D00436C82EE8D101349F
:102E8000032C01D0002DDFD1029B002B00D01D6050
:102E9000009A3F231F4093011F43049BFFB25F70C2
:102EA00007B0F0BD26390000942302305B050343D0
:102EB0001B78002B04D088235B051843042303E010
:102EC00080231B0518433023037070479422831C12
:102ED00052051A431278011C0220012A12D18022C5
:102EE000D2041343CF221A708023DB00C87820223B
:102EF000024004D0013B002B03D0C046F6E7101C73
:102F000000E0092070470423C370002383704370DE
:102F100003717047F0B589B00692120B0392012637
:102F2000082307220790059100257642029301921B
:102F3000022700246B1C191C794306980493FDF7A3
:102F4000EBFA059A824206D3131A9E4203D91E1C3D
:102F500003900294019501347F00092C01D0002ECA
:102F6000E8D1072D03D0002E01D0049DE0E7019B9E
:102F700003981A0170231340029A1343079ADBB295
:102F8000537009B0F0BD8423C21C5B0513430122BA
:102F90000A405200D2B289071A70C90F90235B050C
:102FA000023009011843C9B20170704710B58C2472
:102FB00003306405C9000443C9B221708821490562
:102FC00092000143D2B20A7080225205104303706E
:102FD00010BD802302305B05012203430A408907AC
:102FE0001A70C90F8C235B05C9001843C9B2017060
:102FF0007047C317C018584070470000084B10B501
:10300000041C002B02D0002100E000BF054B186813
:10301000836A002B00D09847201C00F04BF8C04674
:1030200000000000F039000070B50E4B0E4D00247A
:10303000ED1AAD101E1CAC4204D0A300F358984703
:103040000134F8E700F0D6FC084B094D0024ED1AD6
:10305000AD101E1CAC4204D0A300F35898470134B5
:10306000F8E770BD143A0000143A0000143A00006A
:10307000183A000010B50023934203D0CC5CC4542E
:103080000133F9E710BD031C8218934202D0197076
:103090000133FAE77047031C0A7801311A700133D3
:1030A000002AF9D170470023C25C0133002AFBD10A
:1030B000581E7047FEE7C0460F00000032000000B7
:1030C000370000003C000000410000004600000006
:1030D00032000000370000003C000000410000000A
:1030E000460000004B000000150000000B0000002F
:1030F00010000000150000001A0000001E00000073
:1031000029000000330000002E000000290000000C
:103110002400000020000000250000001B0000002B
:1031200020000000250000002A0000002E00000002
:1031300039000000430000003E000000390000009C
:10314000340000002F0000000400000022000000F6
:10315000270000002C0000003100000036000000B5
:1031600022000000270000002C00000031000000B9
:10317000360000003B000000100000000B000000C3
:103180000600000001000000010000000100000036
:10319000060000000B000000100000002E000000E0
:1031A00033000000380000003D0000003D0000003A
:1031B0003D00000038000000330000002E00000039
:1031C00011000000180000001F0000002600000091
:1031D0002C00000032000000380000003F0000001A
:1031E00046000000180000001F000000260000003C
:1031F0002C00000032000000380000003F000000FA
:10320000460000004D00000068656C6C6F2069206E
:10321000616D204E4D4920696E74657272757074CF
:103220000A0068656C6C6F206920616D204C4C57FA
:103230005520696E746572727570740A001B5B307C
:103240006D1B5B343B34336D1B5B313B33376D0D92
:1032500053616E69747920636865636B2066616988
:103260006C6564211B5B306D0A001B5B306D1B5B62
:10327000343B34316D1B5B313B33376D0D496E761A
:10328000616C696420737570706C7920766F6C74F2
:10329000616765205B25645D206D56211B5B306D89
:1032A0000A0043757272656E7420697320676976CF
:1032B000656E20617320616E20696E74656765724A
:1032C00020696E206D41000A0D202564000A0A0A5B
:1032D0000D426F6F74696E6720576172702C2069A0
:1032E0006E20332E2E2E2000322E2E2E2000312E38
:1032F0002E2E0A0D00646973706C617920696E6905
:1033000074616C697A65640A006465766963652036
:10331000696E697469616C697A65642C207820250E
:10332000642C20792025642C207A2025640A00430F
:1033300048414E474520464F52205455524E004377
:1033400048414E474520464F522053544F5000436A
:1033500048414E474520464F522052494748542045
:103360005455524E004D6561737572656D656E748E
:10337000206E756D6265722C205254432D3E54535D
:10338000522C205254432D3E5450522C00204D4D6F
:10339000413834353120782C204D4D413834353189
:1033A00020792C204D4D4138343531207A2C0020A5
:1033B0005254432D3E5453522C205254432D3E54CC
:1033C00050522C202320436F6E666967204572722D
:1033D0006F72730025752C2025642C2025642C0029
:1033E0002025642C2025642C2025640A000D09303A
:1033F0007825303278202D2D3E205B3078253032F4
:103400007820307825303278203078253032785D59
:103410000A000D09307825303278202D2D3E2030DD
:1034200078253032780A000D09307825303278203E
:103430002D2D3E202D2D2D2D0A000D0A0925642F3E
:103440002564207375636365737320726174652EE0
:103450000A000D0925642F25642073756363657365
:10346000736573206D617463686564207265662E90
:103470002076616C7565206F662030782530327853
:103480002E0A000D0925642062616420636F6D6D52
:10349000616E64732E0A0A000D0A094144584C33C8
:1034A000363220526561642041626F727465642E09
:1034B000204465766963652044697361626C656464
:1034C000203A28000D0A4D4D4138343531513A0A21
:1034D0000D000D0A0A424D453638302052656164B0
:1034E0002041626F727465642E204465766963655D
:1034F0002044697361626C6564203A28000D0A09F2
:10350000424D58303535616363656C2052656164A6
:103510002041626F727465642E204465766963652C
:103520002044697361626C6564203A2820000D0AAA
:1035300009424D583035356779726F2052656164A4
:103540002041626F727465642E20446576696365FC
:103550002044697361626C6564203A2820000D0A7A
:103560000920424D583035356D61672052656164E0
:103570002041626F727465642E20446576696365CC
:103580002044697361626C6564203A2820000D0A4A
:10359000094D414733313130205265616420416229
:1035A0006F727465642E2044657669636520446992
:1035B0007361626C6564203A2820000D0A094C335F
:1035C000474432304820526561642041626F727412
:1035D00065642E2044657669636520446973616281
:1035E0006C6564203A2820000D0A094C505332358E
:1035F0004820526561642041626F727465642E20B8
:103600004465766963652044697361626C65642012
:103610003A2820000D0A09544353333437323520F9
:10362000526561642041626F727465642E20446546
:10363000766963652044697361626C6564203A2829
:1036400020000D0A09534934373035205265616432
:103650002041626F727465642E20446576696365EB
:103660002044697361626C6564203A2820000D0A69
:103670000948444331303030205265616420416252
:103680006F727465642E20446576696365204469B1
:103690007361626C6564203A2820000D0A09534961
:1036A0003730323120526561642041626F72746537
:1036B000642E204465766963652044697361626C99
:1036C0006564203A2820000D0A09434353383131FC
:1036D00020526561642041626F727465642E2044DB
:1036E00065766963652044697361626C6564203A3C
:1036F0002820000D0A09414D4738383334205265DF
:1037000061642041626F727465642E20446576693D
:1037100063652044697361626C6564203A28200007
:103720000D0A094153373236322052656164204117
:10373000626F727465642E20446576696365204407
:10374000697361626C6564203A2820000D0A0941A2
:10375000533732363320526561642041626F727490
:1037600065642E20446576696365204469736162EF
:103770006C6564203A2820000D09496E76616C69F9
:1037800064207761727053656E736F7244657669F9
:103790006365205B25645D207061737365642074CC
:1037A0006F207265706561745265676973746572C4
:1037B00052656164466F72446576696365416E6403
:1037C000416464726573732E0A000D09506F77654A
:1037D00072757020636F6D6D616E64206661696CD7
:1037E00065642E20424D583035352064697361621E
:1037F0006C6564200A000D09506F776572646F77FD
:103800006E20636F6D6D616E64206162616E646FC6
:103810006E65642E20424D583035352064697361E1
:10382000626C65640A000D09506F776572646F778A
:103830006E20636F6D6D616E64206162616E646F96
:103840006E65642E204C33474432304820646973DF
:1038500061626C65640A000D09506F776572646F70
:10386000776E20636F6D6D616E64206162616E645E
:103870006F6E65642E2054435333343732352064E1
:10388000697361626C65640A00202D2D2D2D2C005A
:1038900020307825303278203078253032782C006E
:1038A0005465726D696E616C005254540053454703
:1038B000474552003031323334353637383941429A
:1038C00043444546898A0800006006400000000025
:1038D0001F003B005A0078009700B500D400F300A9
:1038E000110130014E01001F1D1F1E1F1E1F1F1E34
:1038F0001F1E1F001F1C1F1E1F1E1F1F1E1F1E1FFF
:103900001514000000D003400A00000000600740CA
:10391000005006400090044000A0044000F00F401A
:1039200040F00F401E1F00001400010016000200AE
:10393000180003001A0004001C0005001E00090006
:103940002000060022000A002400070028000C00C6
:103950002C001000300011003800120040000F0051
:1039600044001300480014005000150058001900CE
:103970006000160068001A007000170080001C002C
:1039800090001D00A0001E00C0002200E0001F00EB
:10399000F000230000012400200125004001260042
:1039A00080012A00C0012700E0012B0000022C004A
:1039B00040022D0080022E000003320080032F0001
:1039C000C0033300000434008004350000053600D5
:1039D00000063A000007370080073B0000083C0063
:1039E00000093D00000A3E00000C3F00000F4300AC
:1039F0003CFFFF1FF8B5C046F8BC08BC9E467047A8
:0C3A0000F8B5C046F8BC08BC9E467047F4
:083A0C0064CAFF7F0100000005
:043A14003904000071
:043A18001104000095
:103A1C000100000001000000C8000000C800000008
:103A2C000500000079060000030000000000000003
:103A3C0014FEFF1F0101000001010000FFFFFFFF4A
:103A4C000000000000000000010000000100000068
:103A5C000100000001000000010000000200000055
:103A6C000100000001000000050000000100000042
:103A7C00010000000800000001000000010000002F
:103A8C000C0000000100000001000000000100001B
:103A9C000100000001000000050100000100000011
:103AAC000100000006010000010000000100000000
:103ABC000701000001000000010000000A010000E5
:103ACC0001000000010000000B01000001000000DB
:103ADC00010000000D0100000100000001000000C9
:103AEC0002010000010000000100000003010000C1
:103AFC0001000000010000000401000001000000B2
:103B0C0001000000060000000100000001000000A0
:103B1C000700000001000000010000000900000087
:103B2C000100000001000000FFFFFFFF000000008B
:103B3C000000000001010000000000000001000076
:103B4C000000000000000100000100000000000067
:103B5C000000000000000000000000000000000059
:103B6C00000000000000000000000000EE39000022
:103B7C000000000000000000000000000000000039
:103B8C000000000000000000000000000000000029
:103B9C000000000000000000000000000000000019
:103BAC000000000000000000000000000000000009
:04000003000004E90C
:00000001FF
