S02B00002F686F6D652F6B673437322F576172702D6669726D776172652F6275696C642F6B73646B312E312F31
S113000000060020310500005905000059050000D4
S113001000000000000000000000000000000000DC
S1130020000000000000000000000000590500006E
S11300300000000000000000590500005905000000
S11300405905000059050000590500005905000034
S11300505905000059050000590500005905000024
S1130060BD2A000059050000C72A000059050000F8
S11300705905000059050000590500005905000004
S113008059050000590500005905000059050000F4
S1130090E5080000FD0800005905000059050000AE
S11300A059050000590500005905000059050000D4
S11300B059050000590500005905000059050000C4
S1130400FFFFFFFFFFFFFFFFFFFFFFFFFE3DFFFFBB
S113041008B5054B054803331B1A062B03D9044BB7
S1130420002B00D0984708BDACFFFF1FACFFFF1F97
S1130430000000000648074908B5091A8910CB0FC7
S11304405918491003D0044B002B00D0984708BD1D
S1130450ACFFFF1FACFFFF1F0000000010B5074CEE
S11304602378002B09D1FFF7D3FF054B002B02D0D3
S1130470044800E000BF0123237010BDACFFFF1F40
S113048000000000C476000008B5094B002B03D01F
S11304900848094900E000BF08480368002B02D15E
S11304A0FFF7C8FF08BD064B002BF9D09847F7E7C4
S11304B000000000C4760000B0FFFF1FA8FFFF1F6C
S11304C000000000144B002B00D1124B9D4640222B
S11304D092029A1A924600218B460F461148124AFC
S11304E0121A04F03EFE0D4B002B00D098470C4B23
S11304F0002B00D098470020002104000D000B4879
S113050004F077FA04F092FD2000290000F09AFE2E
S113051004F07EFA0000080000060020000000003D
S113052000000000ACFFFF1FC8020020D54D0000F2
S113053072B606480649074A02600A6002F0C8FA21
S113054002F008FB62B6FFF7BDFF000080E100E0A7
S113055080E200E0FFFFFFFF00480047590500006C
S113056002B4714649084900095649008E4402BC48
S11305707047C04602B4714649084900095C490005
S11305808E4402BC7047C046002243088B4274D399
S113059003098B425FD3030A8B4244D3030B8B4280
S11305A028D3030C8B420DD3FF22090212BA030C89
S11305B08B4202D31212090265D0030B8B4219D36A
S11305C000E0090AC30B8B4201D3CB03C01A52418A
S11305D0830B8B4201D38B03C01A5241430B8B42D2
S11305E001D34B03C01A5241030B8B4201D30B03BB
S11305F0C01A5241C30A8B4201D3CB02C01A5241E2
S1130600830A8B4201D38B02C01A5241430A8B42A4
S113061001D34B02C01A5241030A8B4201D30B028D
S1130620C01A5241CDD2C3098B4201D3CB01C01AA7
S1130630524183098B4201D38B01C01A52414309B1
S11306408B4201D34B01C01A524103098B4201D39F
S11306500B01C01A5241C3088B4201D3CB00C01A0C
S1130660524183088B4201D38B00C01A5241430884
S11306708B4201D34B00C01A5241411A00D20146A9
S1130680524110467047FFE701B5002000F0FCF826
S113069002BDC0460029F7D003B5FFF775FF0EBCB5
S11306A04243891A1847C04603460B437FD40022AD
S11306B043088B4274D303098B425FD3030A8B42F2
S11306C044D3030B8B4228D3030C8B420DD3FF225C
S11306D0090212BA030C8B4202D31212090265D02A
S11306E0030B8B4219D300E0090AC30B8B4201D3DD
S11306F0CB03C01A5241830B8B4201D38B03C01A24
S11307005241430B8B4201D34B03C01A5241030B9A
S11307108B4201D30B03C01A5241C30A8B4201D34B
S1130720CB02C01A5241830A8B4201D38B02C01AF6
S11307305241430A8B4201D34B02C01A5241030A6D
S11307408B4201D30B02C01A5241CDD2C3098B4252
S113075001D3CB01C01A524183098B4201D38B01CF
S1130760C01A524143098B4201D34B01C01A524172
S113077003098B4201D30B01C01A5241C3088B42B7
S113078001D3CB00C01A524183088B4201D38B00A2
S1130790C01A524143088B4201D34B00C01A524144
S11307A0411A00D201465241104670475DE0CA0F1B
S11307B000D04942031000D34042534000229C46DB
S11307C003098B422DD3030A8B4212D3FC228901E5
S11307D012BA030A8B420CD3890192118B4208D3BB
S11307E0890192118B4204D389013AD0921100E01D
S11307F08909C3098B4201D3CB01C01A5241830931
S11308008B4201D38B01C01A524143098B4201D35D
S11308104B01C01A524103098B4201D30B01C01A88
S11308205241C3088B4201D3CB00C01A5241830802
S11308308B4201D38B00C01A5241D9D243088B4258
S113084001D34B00C01A5241411A00D201466346FB
S113085052415B10104601D34042002B00D549425F
S1130860704763465B1000D3404201B5002000F09E
S11308700BF802BD0029F8D003B5FFF715FF0EBC35
S11308804243891A1847C0467047C04608B50A4B08
S11308901A68002A01D1094A1A601A68084910180E
S11308A0884206D904F0AEF80C23036001204042CC
S11308B001E01860101C08BDC8FFFF1FC80200201B
S11308C0C80200200223807883428041404270475E
S11308D0437A0020013B012B03D901200B7801331B
S11308E00B70704708B5002003F0CAFC002803D041
S11308F00020011C03F0B8FC08BD0000024A136884
S1130900013313607047C0461800002037B500203B
S113091002F0BAFBC02300250D4A9B0013600D4A68
S11309200D4C13600D4A281C13600D4B2571657125
S1130930A5711A68FA239B0053430A49236003F004
S1130940EDFC281C211C01AA03F050FD37BDC04654
S1130950189014541C9014540000002000A0145447
S113096018FEFF1F1C00002010B58024002003F097
S113097019FD0A4B64001C60094B07201C60094BDD
S11309801C6002F01BFE062002F018FE201C02F080
S113099015FE002002F07DFB10BDC04618901454D3
S11309A01C90145400A0145408B5002002F076FBE7
S11309B08023054A9B001360044A00201360044905
S11309C002F0DCFE08BDC0460CA0145410A0145460
S11309D0CCFFFF1F08B5002002F00CFF802382200B
S11309E0074A5B001360074A4000136002F0E6FD0B
S11309F00420FF3002F0E2FD002002F054FB08BDA9
S1130A000CA0145410A0145408B50023354A3649D8
S1130A101360364A1360364A0133FF331360354A94
S1130A201360354A1360354A1360354A1360354AFA
S1130A301360354A1360012208780240081C3349C8
S1130A40002A01D00B6000E00A60314A314913608A
S1130A5000220A6030490A60304A1360304A136049
S1130A60304A1360304A1360304A1360304A1360CE
S1130A700378DB0703D50220FF3002F091FD092043
S1130A8002F09CFD0C2002F099FD052002F096FD79
S1130A90082002F093FD0620FF3002F08FFD0E20A7
S1130AA0FF3002F08BFD8320400002F087FD082018
S1130AB0FF3002F083FD0C20FF3002F071FD822034
S1130AC0400002F07BFD0420FF3002F077FD072098
S1130AD002F074FD062002F071FD8020400002F057
S1130AE06DFD08BD0C90145410FEFF1F109014549B
S1130AF014901454189014541C90145420901454AA
S1130B00249014543090145400A0145404A0145489
S1130B1008A014540CA0145410A0145414A0145479
S1130B2018A014541CA0145428A014542CA0145419
S1130B3034A0145408B5092002F040FD08BD08B5DE
S1130B400C2002F03BFD08BD08B5384B984259D043
S1130B5013D8374B984243D007D8364B984230D0FD
S1130B606433984238D0C83B12E0334B98423ED0AD
S1130B706433984242D0314B15E0314B98422FD028
S1130B800CD8304B98421CD06433984224D02E4B5E
S1130B90984242D1052002F011FD15E02B4B9842FA
S1130BA025D006D82A4B984237D1052002F006FDFD
S1130BB020E0C8231B01984220D0264B984221D024
S1130BC02BE0052002F0ECFC082002F0F7FC0620E4
S1130BD0FF3002F0F3FC24E0052002F0EFFC02E019
S1130BE0052002F0DDFC082002F0DAFCEFE7052026
S1130BF002F0D6FC082002F0E1FC09E0052002F036
S1130C00DDFC02E0052002F0CBFC082002F0C8FC69
S1130C100620FF3002F0C4FC03E000200E4901F07E
S1130C2041FF0E4B186802F059F808BDC4090000D2
S1130C30340800006C070000FC080000980800005D
S1130C40540B00008C0A0000280A00001C0C000051
S1130C50B80B0000E40C00004A5E00000CFEFF1F0D
S1130C6008B5FFF771FF092002F09AFC0C2002F08E
S1130C70A5FC8320400002F0A1FC08BD08B5FFF7E5
S1130C8063FF092002F09AFC0C2002F089FC832007
S1130C90400002F085FC08BDAF2108B50B4B021CD7
S1130CA0C3189BB289008B4202D8FFF7D9FF0BE02F
S1130CB0074BC3189BB28B4202D8FFF7DFFF03E058
S1130CC00020044901F0EEFE08BDC046F8F8FFFF1D
S1130CD0D8F5FFFF775E000008B5FFF72BFFFFF79D
S1130CE02EFF8320400002F05BFC024B186801F0E9
S1130CF0F5FF08BD0CFEFF1F10B5041C002901D030
S1130D00FFF782FE0021022001F086F8211C042056
S1130D1001F082F810BD08B501200021FFF7ECFFB7
S1130D203C200121FFF7E8FFF6E70000F0B585B0AD
S1130D300391041C161C00209AB2012101F009F948
S1130D40071C002C1CD01C49002001F09BFC1B4CF0
S1130D50206801F0C3FF1A49002001F093FC2068C9
S1130D6001F0BCFF1749002001F08CFC206801F061
S1130D70B5FF0020144901F085FC206801F0AEFFA6
S1130D800025124C124923686268002000922A1C34
S1130D9001F088FE039801F01DF9226800206368C1
S1130DA00C49009701F07EFE002E02DD301C01F09C
S1130DB095FF0135E5E7C046AF5E000000FEFF1F6A
S1130DC0D75E0000F95E0000756E000000D003409D
S1130DD01E5F00002A5F0000F0B591B01D1C16AB29
S1130DE00C91197817AB05921A7818AB1B78041C70
S1130DF00D931CAB1B780EA80E931DAB1B88089398
S1130E0021231B18DB7F09931FAB1B880F9320AB97
S1130E101B780A930B1C914200D9131CDFB2059B6B
S1130E20002D02D1002B06D101E0002B03D00020BD
S1130E30544901F037FE0898FFF72EFF211C0020CB
S1130E4001F020FC0023089C02930393079304936E
S1130E5000230693069A199B93426BDB00261A9B88
S1130E609E4264DABB190B932C226B469B181878AC
S1130E7001210C9B9847002838D1049B013304932B
S1130E80089B9C4204D9643CA4B2201CFFF704FFD5
S1130E90002D16D0099A6B7BD31A5A425341039AF8
S1130EA0D31803930A9B002B39D0EB7A287B697BF8
S1130EB000900191DBB2F2193349002001F0F2FDF8
S1130EC02DE0059B099A1B7AD31A5A425341039A7F
S1130ED0D31803930A9B002B21D0059BF2191B7A8C
S1130EE0281CDBB2294901F0DDFD18E0022810D1ED
S1130EF0002027490B9A01F0D5FD079B0133079386
S1130F000F9B9C420BD26434A4B2201CFFF7C4FE96
S1130F1005E0033843425841029B1B1802931B9B74
S1130F20002B02DD181C01F0D9FE013697E7069B61
S1130F3001338EE70E9B002B04D07B1CDFB20D9B8C
S1130F409F4285D9049A079B944612496344002022
S1130F5001F0A8FD322001F0C1FE099B039A009321
S1130F600D49049B002001F09DFD322001F0B6FEE6
S1130F700A49029A002001F095FD322001F0AEFEEC
S1130F8011B0F0BD4A5E0000375F00005C5F0000F6
S1130F90715F0000845F00009C5F0000CD5F000073
S1130FA0F0B591B01D1C16AB40CB041C1B780F1C74
S1130FB00C931AAB1B880D931BAB1B880E931CABB5
S1130FC01B780F93002810D0101CFFF7EDFC601E57
S1130FD0112858D8FFF7CEFA0D26292C2F57323571
S1130FE0383B3E41444A47574D502B4901F04AFB98
S1130FF04FE0312200230292199A00970392189A23
S1131000019305920D9A049607920F9A06950892F9
S11310100E9A224809920C9A21490A92214AFFF712
S1131020DBFE2DE00020204928E000201F4925E0B8
S113103000201F4922E000201E491FE000201E4915
S11310401CE000201D4919E000201D4916E0002085
S11310501C4913E000201C4910E000201B490DE04E
S113106000201B490AE000201A4907E000201A4921
S113107004E00020194901E00020194901F002FBB5
S1131080FFF7A8FC05E01749221C002001F00AFD27
S1131090F6E711B0F0BDC046E25F00000E6000004C
S11310A0711F0000F0FFFF1F1C600000476000007C
S11310B078600000A8600000D860000005610000AE
S11310C0326100005E6100008C610000B8610000C4
S11310D0E5610000116200003D6200006A620000E8
S11310E096620000C2620000031C303B021C181E02
S11310F009280CD9131C613B052B01D8573A05E08C
S1131100131C413B0020052B01D8373A101C7047B3
S113111070B501F0D2FA051C01F0CFFAFF24061CC9
S1131120281C2040FFF7E0FF051C301C2040FFF77F
S1131130DBFF2D012818C0B270BD70B501F0BDFAF7
S1131140041C01F0BAFA061C01F0B7FA051C01F000
S1131150B4FAFF23FA221C401D409200303C544351
S113116064212A1C1E40303E4E43303A5A394A43C9
S1131170A4190340A218303BD01870BD70B50C1CE4
S1131180161C88B00CAA157806A908800A4A05A876
S113119005700A4D12682D684A6004AA1670009002
S11311A001930295231C002002F04AFC431E98413F
S11311B0400008B070BDC04614FEFF1F08FEFF1FAC
S11311C0F7B56A46CB1DDB08DB00D31A02AF9D4698
S11311D0051C0C1CFFF79AFBFA23002002AE9B00AF
S11311E02A1C00940193011C331C03F05BF9041CBA
S11311F0FFF7BAFB201CBD46441EA0418000F2BD8F
S113120008B50020014901F03DFA08BD146300004F
S113121010B5094C0020211C01F034FA211C0020D7
S113122001F030FA0549002001F02CFA04490020AD
S113123001F028FA10BDC04640630000706300004E
S1131240A1630000F0B5B9B025AC00210722201C31
S113125003F087FFFA4A01252C92032215AB2F9342
S113126017AB309319AB32931DAB34931FAB35934B
S113127021AB369323AB37932CAB1BAF1A710020F1
S113128011AA2E92149333972570319401F0F4FE31
S1131290281C01F0F1FE8022EA4B12021A6001F0D0
S11312A03BFD00200095021C031C011C01F00CFAFC
S11312B0E549002001F0E6F9C82001F00FFDE349FB
S11312C0002001F0DFF9C82001F008FDE04900200A
S11312D001F0D8F9C82001F001FDDE4A2B1C0221DF
S11312E0DD4801F03DFD291C281C01F045FD0020CE
S11312F002F002FF0026FC2329A9DB00301C0B802E
S11313004D808D80CE800E818E7202F023FF311CC1
S11313102A1C11A803F025FF4820259B08A919932E
S1131320A28809180A80A279023008A909180A704B
S1131330442108AA5218413911701B93A28808A9A4
S1131340BA80A2791038BA7105223A701593A2882E
S113135002270A87A27909180A70342108AA5218A8
S113136017701793A288063008A909180A80A27971
S1131370C01908A909180A700422063808A909180E
S11313800A701D93A2881C3008A909180A80A27942
S1131390C01908A909180A700822063808A90918EA
S11313A00A701F93A2880C3008A909180A80C01972
S11313B0A27908A909180A700921063808AA12187E
S11313C011702193A3880C3008AA12181380A379F2
S11313D0C01908AA121813700A23063808AA12188A
S11313E013706C2208AB9B181E7014AA2B1C2FA818
S11313F001F0A2FE311C381C00F00EFD97499848FC
S113140002F0B2F8FFF700FB0820FF3002F0C8F842
S1131410C82001F063FC0820FF3002F0CFF8C82098
S113142001F05CFC0820FF3002F0BAF8C82001F09B
S113143055FC0820FF3002F0C1F8C82001F04EFC32
S11314400820FF3002F0ACF8C82001F047FC082067
S1131450FF3002F0B3F81D20824900F075FD824987
S1131460402000F029FEFFF737FC00F005FF802044
S11314700002FFF799FA00F021FEFFF7ABFA802390
S11314801B020A93331C089609960C9603330B939C
S11314907649002001F0F6F8754C764F206801F08B
S11314A01DFC7549002001F0EDF8206801F016FCE0
S11314B07249089A099B002001F0F4FA206801F0AF
S11314C00DFC6F4D6F4E70492A683368096800201F
S11314D000910A9901916D4901F0E4FA206801F044
S11314E0FDFB6B4B6B4A0020D2587B693968009135
S11314F0694901F0D7FA206801F0F0FB674B6749AE
S11315001A785B788979D2B2DBB200910020644901
S113151001F0C8FA206801F0E1FB604B61491A7AD6
S11315201B7E0978D2B2DBB2009100205E4901F043
S1131530B9FA206801F0D2FB5C4B5D491A785B78FC
S11315400969D2B2DBB2009100205A4901F0AAFA2B
S1131550206801F0C3FB584B4E499A78574BD2B2DE
S1131560CB58796800200091554901F09BFA206816
S113157001F0B4FB534B54491A6811AB1B7800209B
S113158001F090FA206801F0A9FB5049002001F015
S113159079F8206801F0A2FB4D49002001F072F8AF
S11315A0206801F09BFB4B49002001F06BF8206898
S11315B001F094FB4849002001F064F8206801F030
S11315C08DFB4649002001F05DF8206801F086FBA0
S11315D04349002001F056F8206801F07FFB41499F
S11315E0002001F04FF8206801F078FB3E4900200C
S11315F001F048F8206801F071FB3C49002001F03B
S113160041F8206801F06AFB3949002001F03AF8FA
S1131610206801F063FB099A0B9B3649002001F016
S113162041FA206801F05AFB3349002001F02AF8FE
S1131630206801F053FB3149002001F023F85FE0FA
S1131640D108000020020020D3630000EE630000F4
S1131650F463000028FEFF1F2CFFFF1F3CFEFF1F4A
S11316602CFEFF1FF0FFFF1F08000020FB6300009B
S113167000FEFF1F00D003401F64000051640000FF
S113168014FEFF1F18FEFF1F04FEFF1F85640000E9
S11316903C10000000700440BD640000004006409F
S11316A0F3640000005006402265000000E007409B
S11316B000ED00E05265000000D007403410000047
S11316C08C65000018000020C4650000F26500006D
S11316D0FC650000196600003566000051660000D4
S11316E06E66000095660000B4660000D3660000D4
S11316F0FE66000021670000506700006C67000070
S1131700206801F0EBFAE149002000F0BBFF2068FB
S113171001F0E4FADE49002000F0B4FF206801F093
S1131720DDFADC49002000F0ADFF206801F0D6FAB4
S1131730D949002000F0A6FF206801F0CFFAD7496C
S1131740002000F09FFF206801F0C8FAD44900206F
S113175000F098FF206801F0C1FAD249002000F09F
S113176091FF206801F0BAFACF49002000F08AFF07
S1131770206801F0B3FACD49002000F083FF20680F
S113178001F0ACFACA49002000F07CFF206801F0A7
S1131790A5FAC849002000F075FF206801F09EFA00
S11317A000F08BFFFF22071C02406B2A00D152E29B
S11317B000DD94E0652A00D1ECE11CDC622A00D152
S11317C0C6E106DC0A2A00D1BDE2612A00D1CFE0DD
S11317D0BFE2632A00D1CCE1642A00D0B9E2B64961
S11317E0002000F04FFFFFF7A8FCB44BB449186089
S11317F01A680020AFE2682A00D118E211DC662AD8
S113180000D1D2E1672A00D0A3E2AE49002000F063
S113181039FFFFF792FC83B208931A1C0020AA49EF
S113182099E2692A00D10AE26A2A00D091E2099A6F
S1131830A649002001F036F900F03FFFA449041C3A
S1131840002000F01FFF00F038FFA2490D90002097
S113185000F018FF00F031FF9F490E90002000F0C7
S113186011FFFFF76AFC9D49051C002000F00AFFE8
S1131870FFF763FC9A49061C002000F003FFFFF702
S11318805CFC98490F90002000F0FCFEFFF740FC40
S11318900A9B071C0193029593490B9A099B009696
S11318A0002001F0FFF8231C0D9A303B303A0092DF
S11318B00E9A1C1C303A511E8A410192089A631EEA
S11318C09C4104926A4602950396958FE3B205956E
S11318D006970B9809990A9AFFF762FBD8E5722AD2
S11318E000D108E20CDC6E2A00D1FBE100DAB8E199
S11318F06F2A00D1FBE10220702A00D1FCE128E22A
S1131900752A00D105E206DC732A00D1F9E1742AB4
S113191000D1BDE51DE2782A00D10AE27A2A00D07E
S113192017E27249002000F0ADFE0A98FFF73CF878
S11319306F49002000F0A6FE00F0BFFE6D49051CB3
S1131940002000F09FFEFFF7F8FB86B26A49321CC4
S1131950002001F0A7F8206801F0C0F9E9B2683965
S11319604D4269410120C9B2321C0A9BFFF7DEF9DE
S11319706249002000F086FE6149002000F082FEEA
S1131980206801F0ABF95F49002000F07BFE5E495E
S1131990002000F077FE5D49002000F073FE20680F
S11319A001F09CF95A49002000F06CFE206801F017
S11319B095F95849002000F065FE206801F08EF981
S11319C05549002000F05EFE206801F087F9534974
S11319D0002000F057FE206801F080F950490020F3
S11319E000F050FE206801F079F94E49002000F023
S11319F049FE206801F072F94B49002000F042FED4
S1131A00206801F06BF94949002000F03BFE206892
S1131A1001F064F94649002000F034FE206801F02A
S1131A205DF94449002000F02DFE206801F056F9CC
S1131A304149002000F026FE206801F04FF93F499B
S1131A40002000F01FFE206801F048F93C49002006
S1131A5000F018FE206801F041F93A49002000F036
S1131A6011FE206801F03AF93749002000F00AFE1F
S1131A70206801F033F900F020FEFF220240352AED
S1131A8000D066E1314B0C93012300E59067000020
S1131A90B4670000CE670000E96700000768000033
S1131AA02468000043680000626800007C6800004D
S1131AB0A7680000C7680000E16D000004FEFF1F76
S1131AC0106E0000316F00005D6F000006700000B2
S1131AD0407000006970000082700000C170000056
S1131AE0ED700000257100005671000024730000A1
S1131AF03D73000066730000AE730000DA680000F6
S1131B00E56800002369000065690000A66900001B
S1131B10E6690000166A0000536A0000926A000039
S1131B20D06A00000D6B00004B6B0000886B000056
S1131B30C76B0000046C00002D6C00006A6C000090
S1131B40A16C0000DE6C00001B6D0000F0FFFF1FA5
S1131B508349002000F096FDFFF7EFFA28602A6819
S1131B60804B9A4201D1804B2B602A6800207F4928
S1131B70F1E07F49002000F085FDFFF7DEFA3060D8
S1131B803268784B9A4201D1774B33603268002037
S1131B907849E0E07849002000F074FDFFF7B8FAD6
S1131BA0099076490020099AD5E07549002000F093
S1131BB069FDFFF7ADFA061C724C321C211C002093
S1131BC000F070FF7049002000F05CFDFFF7A0FA00
S1131BD012AF021C3870211C002000F063FF992E04
S1131BE002D100206949B0E02B6827AC08982893FB
S1131BF02680FFF751F80A98FEF7D6FE24216B469B
S1131C005B181B7813AA1370614B00201968012319
S1131C10029100970193211C01F012FF021E03D0D0
S1131C2000205C4900F03EFFFEF7D4FE30E45A4940
S1131C30002000F027FD0120FFF7EAFA28E45749C5
S1131C40002000F01FFDFFF778FA83B20A931A1CF4
S1131C50002053497FE05349002000F013FDFFF7B3
S1131C605AF84D49002000F00DFD4F49002000F0C6
S1131C7009FDFFF74DFA27AD28704C49002000F00C
S1131C8001FDFFF75AFAFFB2041C2B786C2F17D111
S1131C900A9A00200092089A45490192221C00F0F9
S1131CA001FF0025A54201DBFFF7F2FB27AB1A7801
S1131CB00023FF2000930121FFF760FA0135F1E7CB
S1131CC0089A002000923B49221C00F0EBFE0025FC
S1131CD0A54201DBFFF7DCFB27A80121FFF770FA1F
S1131CE00135F5E70898FEF7D7FFFFF7D1FBFEF7BC
S1131CF0F3FFFFF7CDFB0820002100F08DF8FFF77C
S1131D00C7FB2549002000F0BDFCFFF779FAFFF777
S1131D10BFFB0C9B002B02D1181C274915E0274957
S1131D20002000F0AFFCFFF7F3F90C9B1870FFF7ED
S1131D30AFFB2349002000F0A5FC0B4800F0CEFFC8
S1131D400020204901E000201F4900F09BFCFFF720
S1131D509FFB00201D4900F0A5FEFFF799FBC0463C
S1131D604B6D00000F27000010270000796D000064
S1131D70996D0000C76D00002B6E0000616E0000BD
S1131D80786E0000AB6E0000C16E0000EA6E0000C9
S1131D9008FEFF1F106F00007F6F0000AD6F000092
S1131DA0E96F000093710000B6710000D571000066
S1131DB0F57100004772000085720000C3720000D4
S1131DC0FB7200001A730000E67300002F6D000020
S1131DD01FB5041C01A9002002F0E4F901A869461A
S1131DE002F01EF9009B68461C1901A9009402F038
S1131DF09FF801A90122002002F000FA1FBD000093
S1131E000022034B1A608022024B1206DA677047E5
S1131E1000A01C5804E100E010B50A2308286FD87C
S1131E200C1CFEF7A7FB051B283C486264665700A0
S1131E3001F018FB0523012862D0FFF7E1FF201C05
S1131E40FFF7C6FF0020011C01F09AF9041C0020D2
S1131E50012100F091FF002C4FD150E001F002FB72
S1131E60062301284CD0FFF7CBFF201CFFF7B0FF5F
S1131E7001200021E8E701F0F5FA082301283FD00A
S1131E8001F002F8002803D00020012100F074FFC3
S1131E900220002101F074F900282ED12FE001F076
S1131EA0E1FA072300282BD0FFF7AAFF201CFFF735
S1131EB08FFF032005E0FFF7A3FF201CFFF788FF37
S1131EC00420002101F05CF9041C01F0CBFA002885
S1131ED0C1D1BDE70820002101F052F900280CD13E
S1131EE00120011C00F048FF09E0052002E0062063
S1131EF000E00720002101F043F9092300E000235A
S1131F00181C10BD10B50C1C0C4B88B01B7806A90E
S1131F100B800B4B05AA1B6810700A484B6004AB7E
S1131F201C7000680093012302900193002001F0CB
S1131F3087FD431E9841400008B010BDF0FFFF1F0D
S1131F4014FEFF1F08FEFF1FC223FF3308704B60FF
S1131F50704738B5031C0D1C0920191CFFF7D2FF6C
S1131F60291C041C2A20FFF7CDFF0443E0B238BD2E
S1131F70FF2310B588B005AA1370182804D80928BF
S1131F8006D206281BD803E0031C1D3B142B16D8CD
S1131F900C4B10701C7806AB1C800B4C0B4824684F
S1131FA0006807940A4C01910290191C00940123C3
S1131FB0002001F052FD431E9841400000E0032040
S1131FC008B010BDF0FFFF1F14FEFF1F08FEFF1F27
S1131FD0F8FFFF1F38B50221041C0120FFF7C8FFDA
S1131FE0304D2A7A6B7AD2B2DBB2002804D02E4963
S1131FF0002000F047FB11E0002C03D02B4900F037
S113200051FD0BE092019B081343802292015A4038
S1132010274B201CD218274900F044FD022103203D
S1132020FFF7A6FF2A7A697AD2B2CBB2002804D08D
S11320301D49002000F026FB11E0002C03D01B49B1
S113204000F030FD0BE092019B08134380229201C3
S11320505A40174B201CD218164900F023FD0221C8
S11320600520FFF785FF2A7A697AD2B2CBB200281D
S113207004D00D49002000F005FB11E0002C03D032
S11320800A4900F00FFD0BE092019B0813438022E4
S113209092015A40064B201CD218064900F002FD5A
S11320A038BDC046F0FFFF1F187400001F74000005
S11320B000E0FFFF255F000008707047F0B58BB0AB
S11320C007AC4B490222201C03F042F8494B08AFED
S11320D01B7800203B80484B02221B6806AD7B60C6
S11320E0FF2323706370454B28701B68391C0192D1
S11320F0029300942A1C012301F0A2FC061E01D0C5
S1132100022072E03E4900F0CDFC052302222B7030
S11321100B332370394B66701B68301C0192029399
S11321200094391C2A1C012301F08AFC061EE7D105
S1132130344900F0B7FC04232B7001232F4A237089
S113214012686370301C009401960292391C2A1C98
S113215001F076FC301C2C4900F0A4FC04232B482D
S11321602B492B7002F088FE1424061C294B0020F6
S1132170009302230193F333FF33021C029308A953
S1132180031C01F06AFC1B4D0590287A6B7A00024F
S113219018430A21FEF788FA071C2A7A6B7AD2B20E
S11321A0DBB21D49002000F07DFC1C493A1C0020D4
S11321B000F078FC013C301C19493A1C02F068FE1E
S11321C0002CD3D1301C02F091FC059B002B97D13D
S11321D01449201C00F066FC2B7A06AADBB21278A4
S11321E0201C114900F05EFC201C0BB0F0BDC04661
S11321F0485E00000800002014FEFF1F08FEFF1FB9
S11322002F74000051740000717400008B7400007E
S1132210A374000010000020A6740000B274000033
S1132220B8740000BC740000C474000037B50E24F8
S1132230FF34051C201C01F0B3F90A2000F04EFD08
S1132240201C01F0BBF90C2001F0B8F90123084A65
S1132250002015700093FA239B000193011C054B89
S113226002F020F9051C201C01F09AF9281C3EBD3F
S11322704D0000204C000020C02310B58024634A88
S11322809B001360624A64001360FEF73FFB614BDE
S1132290201C1C60604B1C60604B1C6001F080F9CA
S11322A0642000F01BFD201C01F088F9642000F07C
S11322B015FD201C01F074F9642000F00FFDAE2020
S11322C0FFF7B4FFA020FFF7B1FF7220FFF7AEFFC6
S11322D0A120FFF7ABFF0020FFF7A8FFA220FFF724
S11322E0A5FF0020FFF7A2FFA420FFF79FFFA8206F
S11322F0FFF79CFF3F20FFF799FFAD20FFF796FF04
S11323008E20FFF793FFB020FFF790FF0B20FFF71D
S11323108DFFB120FFF78AFF3120FFF787FFB3203D
S1132320FFF784FFF020FFF781FF8A20FFF77EFF8D
S11323306420FFF77BFF8B20FFF778FF7820FFF7FF
S113234075FF8A20FFF772FF6420FFF76FFFBB2041
S1132350FFF76CFF3A20FFF769FFBE20FFF766FF27
S11323603E20FFF763FF8720FFF760FF0620FFF79B
S11323705DFF8120FFF75AFF9120FFF757FF82206E
S1132380FFF754FF5020FFF751FF8320FFF74EFF64
S11323907D20FFF74BFFAF20FFF748FF2620FFF714
S11323A045FF0120FFF742FF2520FFF73FFF0020F4
S11323B0FFF73CFF0020FFF739FF5F20FFF736FFF0
S11323C03F20FFF733FF2220FFF730FF0020FFF705
S11323D02DFF0020FFF72AFF5F20FFF727FF3F2094
S11323E0FFF724FF0020FFF721FFFF20FFF71EFF68
S11323F00020FFF71BFF0020FFF718FFFF20FFF767
S113240015FF0020FFF712FF002010BD2090145488
S11324102490145434A014543090145400A0145430
S11324200269C3689A4203D880681018013800E032
S1132430501EC01A7047F7B58368C668051C40680B
S11324400191141C9F1B8019974203D902F080FE4E
S1132450A4190AE001993A1C02F07AFE019BE41BDC
S1132460D9196868221C02F073FEEC60F7BD0023E2
S1132470F7B5061C171CC568019100933369B4684D
S1132480AB4200D81B19013B5B1B641BBC4200D947
S11324903C1C9C4200D91C1C7368221C58190199CD
S11324A002F056FE009B2D191B190093019B3F1B44
S11324B01B190193B368EB1A5A1E93415B421D40EA
S11324C0F560002FDAD10098FEBD0000022310B59C
S11324D00F4C104A236163610F4BA261E361C8236F
S11324E0A2640E4A2362E26400230422A3626362AC
S11324F0E362A3656365E3652265E01D084903F0B3
S113250007FA201C074903F003FA2023A37110BD26
S11325101C010020D6740000520000204E00002050
S1132520DF740000E3740000F0B5294B171C1A781F
S113253085B0009001910293002A01D1FFF7C6FFF4
S11325401823009A00255343029AD3181A1C5032B8
S113255052689C6D039294421BD91B6D3D1C1B1B3E
S11325609F4200D91D1C1826009B2A1C5E43029B17
S113257001989E19F36C7F1B191902F0E9FD019B68
S113258064195B190193336DE31A5A1E93415B423C
S11325901C40039B1E1BBE4200D93E1C002E0CD0C7
S11325A01823009A01985343029AAD19D318D96C91
S11325B0321C091902F0CCFDA419002D05D01823F2
S11325C0009A5343024AD3189C65281C05B0F0BDF9
S11325D01C01002010B50B1CEFF31084012181F3C2
S11325E01088191CFFF7A0FF84F3108810BD0000A9
S11325F0F8B51823451C5D434343141C134A0E1CB1
S1132600D018C76A5519012F0FD0002F07D0022FF9
S113261017D1221C281CFFF72AFF041C14E0281CD5
S1132620FFF7FEFEA0420ED305E0281CFFF7F8FEDC
S1132630844200D9041C281C311C221CFFF7FBFE19
S113264002E0002400E03C1C201CF8BD1C0100201A
S1132650F8B50B4B071C1B780E1C151C002B01D165
S1132660FFF734FFEFF31084012181F31088381C45
S1132670311C2A1CFFF7BCFF84F31088F8BDC04648
S11326801C01002038B5051C081C0C1C03F048F97B
S1132690211C021C281CFFF7DBFF38BD13B56B4659
S11326A0DC1D0020211C0122FFF794FF012801D129
S11326B0207801E00120404216BD08B5FFF7EEFF87
S11326C00028FBDB08BD0000F7B5164C0193237806
S11326D0051C0F1C161C002B01D1FFF7F7FE236904
S11326E09D421CD2EFF31082012181F31088002D4A
S11326F00CD01823691C59436B43675061184E6012
S11327000199E318196200219962596218235D4303
S1132710089B6419E36282F31088002001E0012021
S11327204042FEBD1C010020826810B5041C4068B4
S1132730531C834205D820688154A360E3680133A5
S1132740E360A26863689A420CD120692168FFF7AC
S11327507FFFA368984203D001235B42E36001E05A
S11327600023A36010BD0000F0B5051C1F1C081C4D
S1132770012685B00A9C00910192019B984204D3E2
S11327800199FDF701FF0136F7E70296BE4200D238
S1132790029701230B9A1A40039218D1002C01D1FD
S11327A0002414E00B9B20269B070DD5002F0BD192
S11327B0103609E0281C311CFFF7B6FFEB68013C1A
S11327C0002B04DB002CEBD0029BA342F2D3EB687A
S11327D0002B35DB0126012F01D9013F06E00098CB
S11327E0311CFDF7D1FE019B984208D3019B5E4347
S11327F0F1E7301C0199FDF7C7FE061E10D00098C2
S1132800311CFDF7C1FE331C4343009AD31A0093D5
S11328100C4B195C281CFFF787FFEB68002BE8DAE8
S1132820039B002B0CD0002C0AD0029BA34207D29E
S1132830281C2021FFF778FFEB68013C002BF2DA1B
S113284005B0F0BDEA740000F0B59FB00EAB09937B
S113285040230A930023161C06900B930D900C93AF
S11328600B784C1C002B04D10C9B0393002B22DC13
S113287015E1252B16D1002502314F1E3B782B2B59
S11328800CD003D8232B27D1082308E02D2B03D009
S1132890302B21D1022302E0012300E004231D4355
S11328A00131EAE7191C09A8FFF73EFF211C0C9B24
S11328B0002BD5DAD8E70B9A002A03D006980EA984
S11328C0FFF7C6FE0C9B03930B9B0493049A039B94
S11328D0944663440C93E2E000243A78131C303BA2
S11328E0092B05D80A235C43303C0137A418F4E7CC
S11328F0002303932E2A0DD101373A78131C303B61
S1132900092B07D80A23039901374B43303B9B1803
S11329100393F2E7397804230A1C9A43682A01D105
S11329200137F7E7642926D008D8582900D195E063
S113293063291AD0252900D0AFE0ABE0732900D178
S113294095E00DD8702900D0A7E032680021131D4E
S11329503360082301910093116809A8102296E0BE
S1132960752971D0782979D097E0336819681A1DD0
S11329703260C9B28EE033681A1D1B683260DA1700
S113298098180493012350400593092805DD0A2172
S1132990FDF78AFE059B0133F6E7059B039A9342F4
S11329A000D20592002C05D0049B002B01DB6B07A1
S11329B000D5013CAB0702D5039B002B10D0EB07DD
S11329C00ED4002C01D100240AE0059BA34207D2B7
S11329D009A82021FFF7A8FE0C9B013C002BF0DA8C
S11329E00C9B0793002B58DB049B002B04DA5B42FF
S11329F0049309A82D2103E06B0703D52B2109A813
S1132A00FFF792FE0C9B002B47DB03232B40022B8A
S1132A1011D1039B002B0ED1002C01D100240AE01C
S1132A20059BA34207D209A83021FFF77DFE0C9B2A
S1132A30013C002BF0DA0C9B0593002B2DDB00945A
S1132A40019509A8049906E03368009401951A1DBC
S1132A501968326009A80A22039B18E033680094BD
S1132A601A1D0195326009A819681022F4E7336829
S1132A701A1D32601C682178013400290DD009A880
S1132A80FFF752FE0C9B0393002BF4DA05E0FFF7EB
S1132A906BFE02E009A8FFF747FE791C07E70C98D4
S1132AA01FB0F0BD0EB403B503AB02CB01AA019372
S1132AB0FFF7CAFE02B008BC03B0184708B50020EF
S1132AC000F08AFD08BD08B5002001F0F5FB08BD43
S1132AD0082110B5164B9A780A4202D09A780A4314
S1132AE09A70882200212220124B52019950124AD6
S1132AF010708020114A400298501868104A024011
S1132B0010481A601C58104A2240C024A4042243CE
S1132B101A5080220D4B19721A767F3A19705A7026
S1132B200B4A11700C2299791142FBD110BDC04699
S1132B3000D007400070044000E00740441000004B
S1132B40FFFFF3FF04100000FFFFFFF0004006400A
S1132B5000500640154B164810B5191E81420CD082
S1132B600022144B9B089B009A4203D084588C503B
S1132B700432F9E7104B996001E00F4A9360002397
S1132B800E4A0F49891A8B4204D0D45C0D48C454B0
S1132B900133F8E700230C4A0C49891A8B4204D00C
S1132BA00024D01804700133F8E710BD00000000C1
S1132BB0000000000000000000ED00E0EC760000E2
S1132BC09878000000FEFF1FACFFFF1FC802002022
S1132BD000234170436003708360181C704710B574
S1132BE04378041C0120FF2B08D000F06DFA6378B1
S1132BF00133DBB2637000F05BFA002010BD0020EB
S1132C00704738B5041C0D1C00F05EFAE1682943D6
S1132C10E16000F04DFA002038BD000000220A4BAC
S1132C209A641A1C40329A631A1C30329A621A1C33
S1132C3020329A611A1C10329A60044A1360044BC1
S1132C409B60DB607047C046A8010020A4010020FF
S1132C50940100200022024B1A60186880B2704769
S1132C600C007C5038B54378041C0D1C002B0BD091
S1132C70002500F029FA6378013BDBB2637025700C
S1132C8000F016FA281C28E00220002925D0237819
S1132C90002B15D0FFF7DEFF6368A268984201D3CA
S1132CA0C01A03E0C01A80235B02C018824213D208
S1132CB000F00AFA0023237000F0FAF902200CE075
S1132CC04B1C09D000F000FA0123237000F0F0F946
S1132CD0FFF7C0FFA5606060032038BD38B5051C50
S1132CE0FFF7B8FF041CFFF7B5FFA04201D3001B98
S1132CF003E08023001B5B02C0188542F3D238BD79
S1132D0008B5012801D100F0DFF908BD08B5012894
S1132D1001D100F0CDF908BD10B5FFF77FFF012305
S1132D200020084A08491360084A094C10600860EA
S1132D3004212160074C216007490B6007490860A2
S1132D40136010BD3880045000008450000004500B
S1132D50000004510400045104000C50000004530A
S1132D6010B5044C206021710020A26023736373AA
S1132D7010BDC046F8010020F0B587B06B46029044
S1132D801B7A05AC23706B4603911B7B3D4D63702E
S1132D902B79029A0420934271D92B7B6B73012304
S1132DA0A37000230193374E0093337B009A371CA2
S1132DB093421AD9009BB2689B009B58002B10D0F9
S1132DC01A79D2070DD51A68201C996890470028F3
S1132DD007D06B461B787373039B002B3AD00523F3
S1132DE00193009B0133DBB2DDE7019E002E02D08C
S1132DF0039B012B2FD10120FFF782FF0C20029BA4
S1132E0058432B68181800F0A7F86B461B7A01206A
S1132E106B71FFF77BFF02230025A3703B7BAB4262
S1132E2016D9BA68AB009B58002B0ED01A799207BA
S1132E300BD51A68201C99689047002805D0039B7D
S1132E407D73002B1AD0062301930135EDB2E5E71B
S1132E50019814E005260023009FA370013FFFB2F0
S1132E60FF2F09D0AA68BB009B58002BF6D01A6824
S1132E70201C99689047F1E7301C00E0062007B059
S1132E80F0BDC046F8010020014B58797047C04698
S1132E90F801002013B500210378041C0191022BD2
S1132EA007D0032B0BD0012B0ED10279191C134828
S1132EB001E00279114801AB00F0CEFF08E001A95E
S1132EC00E4801F00BF803E00C4801A900F0A8FF3C
S1132ED0002812D1A3790A4ADB01DBB213706378AC
S1132EE0084A5B00DBB21370A278074B1A70E278D1
S1132EF0064B1A706279064B1A7016BD00400640E4
S1132F001840865300408650004006500140065049
S1132F10184016501F22802302405B05D2051A4335
S1132F20034943099B005B181A430023136070474D
S1132F30288004401F2280210240D30549051943FB
S1132F40430904489B001B1819430123081C9340A0
S1132F5003607047288004400022072373B5041CD3
S1132F60104D0093281C131C012101F097F9201C1B
S1132F70FFF790FF0022637A217A0093281C131C28
S1132F8001F08CF9E379084A9B041360074BA17A9A
S1132F901D68281C00F0BEFF281CE17A00F0C1FF68
S1132FA0002076BD0070044000700C594875000084
S1132FB008B5054800F0F6FE044B1968C9B20131A2
S1132FC0FDF7E2FA08BDC0460040064044801C5E9E
S1132FD008B5054800F0E6FE044B1968C9B2013192
S1132FE0FDF7D2FA08BDC0460040064044801C5E8E
S1132FF008B5054800F0D6FE044B1968C9B2013182
S1133000FDF7C2FA08BDC04600400640448014588B
S113301008B5054800F0C6FE044B1968C9B2013171
S1133020FDF7B2FA08BDC04600400640448014587B
S11330300C4B1B68DBB2022B0DD0032B0ED0002BE4
S113304001D000200CE08021074A09021268101EFA
S11330508842F6D104E0054B186801E0FA208000AC
S11330607047C04600700C59200200202402002042
S113307008B5FFF7DDFF08BD08B5024B185CFFF784
S113308059FF08BDFA74000008B57620FFF752FF17
S113309008BD08B57620FFF73DFF08BD08B56620DA
S11330A0FFF748FF08BD08B56620FFF733FF08BDEA
S11330B0044A1368002B04D0013B1360002B00D199
S11330C062B670470802002072B6024A13680133E0
S11330D0136070470802002010B50B4B0B4A12789E
S11330E0002A04D1013B002BF8D103200AE0064C4E
S11330F0074801F069FB012803D0013C002CF7D1FB
S1133100F3E7002010BDC046EA03000002D00751D7
S113311000E0074010B5064C064801F055FB0428B2
S113312004D0013C002CF7D1032000E0002010BDA6
S1133130EA03000000E00740F7B5071C0E1C151C4D
S113314001930120002F18D0002916D0FFF7D8FDD5
S11331500A4C0021201C102202F003F8276026717B
S1133160002D06D06B461B79A56023736B461B7933
S113317063730120FFF7CAFD0020FEBD0C0200208E
S1133180F0B5B24C8BB002900191237B01206373A4
S1133190FFF7B6FD2379029A934204D80120FFF782
S11331A0B5FD022050E1029A23689200D6586B467E
S11331B01B7907AC357823726B461B7A2A1C237063
S11331C002239A4366600392012A01D0052D0AD195
S11331D001219F4801F04AFA002809D10120FFF794
S11331E095FD012030E1072D02D999480321F1E72B
S11331F00123637200240094944F009A3B7B934212
S11332001AD9009BBA689B009B58002B0FD01A79DF
S1133210D2070CD51A6807A899689047002806D0E9
S11332206B461B7804247B73019B012B04D1009B08
S11332300133DBB20093DFE70120FFF767FD854828
S113324000F0D4FD039B012B1DD10138C0B202282C
S113325011D8FFF7DDFE804B98420CD8FFF7A8FE8B
S11332607E4FB84207D8FFF7C3FEB84203D8FFF732
S1133270AFFEB84207D9019B012B01D1062407E018
S1133280002C05D1FAE7019B012B52D0002C50D021
S11332900120FFF735FD002307AE009D7372013D49
S11332A0EDB2FF2D40D0694BAA009B68D358002B88
S11332B0F5D01A79D207F2D51A68301C996890476C
S11332C0EDE7072205AB1A7000225A70F2789A7063
S11332D03279DA702B1C083B05A9022B03D87379C9
S11332E08B71B379CB717378002B00D084E058488C
S11332F001F0F0F9002800D00324002D00D08AE06A
S1133300FFF7EAFE0024002800D09DE00120FFF72B
S1133310F7FC6B464D4E1B7A0025B373022307AFAF
S11333207B72337BAB427CD80120FFF7EFFC201C7F
S11333308AE003200A2D00D986E0281CFDF710F945
S113334006080A1940583339C1282D00002250E0DC
S113335003224EE03E4801F037FA012807D03C48EA
S1133360002101F093F9FFF7B7FE041E6CD101228E
S11333703FE0374801F028FA042807D034480221F6
S113338001F084F9FFF7C6FE041E5DD1042230E08B
S1133390072205AB1A70063A03E0072205AB1A7040
S11333A0043A5A7096E7022205AB1A70013A1A7170
S11333B004E00222012105AB1A7019715A7189E7E0
S11333C00222002705AB1A702148013A1A715F7175
S11333D001F0FAF9012800D17CE71D48391C01F0FD
S11333E055F9FFF779FE041EBC4200D172E72BE0C9
S11333F0052205AB1A706DE7012D00D877E7B27886
S11334000220174B002A02D01A69024301E01A690C
S113341082431A616BE7012D00D077E7FFF77AFE4C
S113342070E7B268AB009B58002B0AD01A79920758
S113343007D51A68381C99689047002801D00524DC
S113344075730135EDB26CE70BB0F0BD0C020020D2
S113345000E007400040064040420F0080841E0008
S113346000ED00E008B5064801F0AEF9002301289C
S113347003D00133042800D00A33181C08BDC04609
S113348000E00740F7B5FF2403681C4A1D0A2540E5
S11334901C40AB009F581A4A061C9B58281C0193D9
S11334A0FFF7EAFD211C0022381C01F095F9019B6D
S11334B0A4001C19842332795B05234352001A604B
S11334C0802372795B0523431A609023B2795B05EC
S11334D0234312011A60F3790A4A14431A0422603E
S11334E0002B0AD0084B5A5D002A06D01F23134034
S11334F001229A40131C054A1360F7BD547500005D
S11335004C750000000018185C75000000E100E034
S1133510F8B5FF24051C0368114A180A20401C4012
S113352083009F580F4A9E58FFF7A6FD381C211CA4
S1133530012201F051F96A68381C211C01F05CF980
S113354088232A7AA40034195B05234392001A6065
S113355098235B051C436B7A9B012360F8BDC0462E
S1133560547500004C75000038B50C1C002802D1BD
S1133570002C09D112E003680133F9D0051C083589
S1133580FFF780FF281CF6E72368013306D0251CCB
S1133590201C0C35FFF7BCFF2C1CF5E738BD0000E0
S11335A0FF22030A134002400120904002499B007D
S11335B05B5858607047C04654750000FF22030AE8
S11335C0134002400120904002499B005B589860E0
S11335D07047C0465475000008B5084B8200D358A4
S11335E094220233520513431B78002B02D000F0BF
S11335F041FA01E000F096FA08BDC04600750000EB
S1133600031C80220C33520513431B78002BF7D084
S11336100171704738B50D1C084B8000C458201C3C
S1133620291C1830FFF71EFB0328F8D0002801D00E
S113363004232374207CC0B238BDC0461C02002081
S1133640F0B589B00290161C8200374805931058D3
S11336500EAB019035481B781458002007AA10803F
S1133660A27C8F0A04920122E274A2745A4253414A
S11336701E3FDBB203937B425F41FFB2CDB2874270
S113368002D0CBB29C460D0A00216D00EDB28F42F0
S113369004D1391C002E01D16B46197B0D4307ABB5
S11336A01D700122002F02D062465A700222A360CC
S11336B0E2600198291CFFF7A3FF02980F99FFF716
S11336C0A9FF237C002B0CD1002E0AD0059BA660F9
S11336D0E36031780198FFF793FF02980F99FFF7A1
S11336E099FF237C002B16D1039B002B13D0002FB2
S11336F001D1002E0FD000230127A3600198E760B9
S113370001F0D2F8391C01982943FFF779FF029898
S11337100F99FFF77FFF0023E3746B46207C1B7C2B
S1133720C0B2A37409B0F0BD007500001C020020F3
S1133730104A830010B598580F4A9C58E37C002B1C
S113374005D0237C052B02D0237C042B09D198229D
S1133750831C5205134300221A7001F0B7F80123A9
S11337606374A37C002B03D0201C1830FFF737FAB6
S113377010BDC046007500001C020020F7B5194BAF
S11337808700FB5801250093174BFE58002E26D1C5
S11337900C1C24220190081C311C01F0E2FC201CAA
S11337A0311C1830FFF714FA0198FFF777FC0098E2
S11337B001F02AF80C4B019AFC500C4B9A5C1F2325
S11337C013402A1C9A40131C094A13609C22009B34
S11337D052050233134380226574351C1A70281C69
S11337E0FEBDC046007500001C020020FC740000F1
S11337F000E100E0F7B59C220027051C0D4E840073
S1133800A359520501930C4BE358023313431F7021
S1133810FFF749FC094B01985A5D1F23134001220D
S11338209A40131C064A1830D367FFF7E8F9A751EA
S1133830F7BDC0461C02002000750000FC740000A7
S113384004E100E00A4B800070B5C558094BC65826
S11338504B68726993420AD00C1CFFF7C9FB002322
S1133860011C6268281C00F0DDFF6368736170BD91
S1133870007500001C020020F0B587B00FAC334F78
S1133880334D267884006559E459677C002F02D1B2
S11338900320207458E0002E01D11E270E970593B3
S11338A00023A674E360A360237423606374071C7D
S11338B004920391FFF7C6FF90231021AA1C5B0515
S11338C0134319708421EB1C49050B430221197021
S11338D098235B05134302934023029A281C137018
S11338E000F0E2FF039B381C1988012300930E9B10
S11338F0049A0193059BFFF7A3FE0D9B002B15D0A3
S1133900237C002B0FD10C9B281CA3600D9BE36030
S11339100C9B1978FFF774FE002E13D0381C0E99F7
S1133920FFF778FE0EE0237C042B0BD10023012645
S1133930029A1370EB785B09334202D0281C00F022
S1133940C5FF6674207CC0B207B0F0BD1C02002025
S113395000750000F0B58BB013AC2478364E374DAB
S1133960039484006559A459667C002E02D1032077
S113397020745FE0039E002E01D11E361296099337
S1133980109B00262360119BA66063606B461B7B23
S1133990E660A37426746674079108920490FFF796
S11339A051FF9023AF1C5B053B4305931023059AFD
S11339B0281C13708422EB1C5205134302221A7034
S11339C098235B053B4306934023069A137000F04B
S11339D06BFF079B089A1988129B00960193049821
S11339E0099BFFF72DFE227CD2B2B24212D1059B75
S11339F011991A708C235B053B43012900D10822DD
S1133A001A702B79039B002B12D004981299FFF79C
S1133A1001FE0DE0237C042B0AD1069B1E700126B7
S1133A20EB785B09334202D0281C00F04FFF667428
S1133A30207CC0B20BB0F0BD1C0200200075000059
S1133A401FB5069C0094079C0194089C02940124D1
S1133A500394FFF711FF04B010BD1FB5069C00943A
S1133A60079C0194089C029401240394FFF772FFBD
S1133A7004B010BD842138B5244B8200D5584905C3
S1133A80EB1C0B4302211970214BD45890226B1864
S1133A9052051A431278E978D2B2890634D59421B2
S1133AA049051943097800292ED0012A15D1EB784C
S1133AB0134202D0052323740CE0E368013BE36066
S1133AC0002B07D0A368281C5A1CA2605978FFF762
S1133AD097FD19E0FFF72CFE16E06268013A626078
S1133AE0002A06D08C214905012A05D10B4308225E
S1133AF004E0FFF71DFE02E000220B431A70236866
S1133B005A1C22602A791A7038BDC046007500001C
S1133B101C020020842303305B0518430223037036
S1133B2070470000902149050A1CF0B58F4B071C13
S1133B308000C55889B0EB1C0493EB78EE78DBB2B7
S1133B400593F3B20693AB1D1A4394461278982654
S1133B50D2B20792942252051A4314787605621E53
S1133B609441E2B2824C33430459A81C00900843A8
S1133B7001921A780178D2B2C9B2039101990290E4
S1133B8000292FD0079900290CD010236246281C45
S1133B901370FFF7BFFF236BF8B20121002B00D095
S1133BA0DCE0E0E0002A1DD04022281C1A70FFF758
S1133BB0B1FF231C2C331B78002B02D1009A16432F
S1133BC03370236B002B03D0F8B28021626B9847CB
S1133BD0E37D002B04D0201C80211830FFF711F85E
S1133BE00A23BFE0069B281C9E1101231E40FFF7F9
S1133BF091FF0122059B1B11134219D09023049AB3
S1133C005B05134310221A70002E04D0EB785B0777
S1133C10DB0F10D11AE0082323702C342278002AF9
S1133C2000D0A0E0982300995B050B431A709AE03A
S1133C30002E16D0EAE71023029A1370236B002B90
S1133C406ED0F8B20221626B984769E0029A137051
S1133C50236B002B03D0F8B20421626B98472B79B5
S1133C6081E0039B012B29D1EB78039A134257D0AF
S1133C70029B1E702B79231C2C331B78002B09D13B
S1133C80019B002B06D19823009A5B0513436A46D7
S1133C9012791A70236B002B03D0F8B20821626BDF
S1133CA09847A37D002B04D0201C08211830FEF770
S1133CB0A8FF00236360E360237554E02B79A268B6
S1133CC0DBB2002A2AD022691370236901332361ED
S1133CD0A368013BA360A368002B44D1019B002B84
S1133CE013D1231C2C331B78002B06D19823009A64
S1133CF05B0513436A4612791A70E37D002B04D0E6
S1133D00201C20211830FEF77CFF002363752361FB
S1133D10236BF8B22021002B20D124E0072321E0DB
S1133D206368002B1DD0E3681A782B1C80210C33A8
S1133D3049050B431B78002BF7D02A71E368013344
S1133D40E3606368013B63606368002B0BD1E3604D
S1133D502375236B002B06D01021F8B2626B9847B1
S1133D6001E00623237009B0F0BDC04600750000D1
S1133D701C02002084235B0503431A7800239A4223
S1133D8009D0802301305B0518430378012B01D04F
S1133D90024B00E0024B181C7047C04680841E0092
S1133DA000127A0010B50D4A831D13431B78DBB251
S1133DB0002B10D0012B08D1041CFFF7DBFF084BAC
S1133DC008341C432378D84006E00020022B03D19A
S1133DD0044B186800E0044810BDC04600000811F8
S1133DE00000901020020020006CDC020B4A831DAE
S1133DF013431B78DBB2012B06D0181E0CD0032012
S1133E00022B09D0052007E0802301305B0518430D
S1133E1000784342584101307047C0460000081101
S1133E20021C031C9C201833400503438020187097
S1133E300020064B134318700548931D03431B7859
S1133E40D8B20028F8D1034B0B6070470000081368
S1133E5000000811006CDC02F8B5041C0D1C171CD2
S1133E601E1CFFF7C3FF012802D1002D04D007E078
S1133E70022805D1012D03D1201C311CFFF7D0FFEE
S1133E808022631C520513431D70842302225B05A8
S1133E9023431A70231C0C4A083313437A00D2B20A
S1133EA01A704022094B23431A70094AA31D134375
S1133EB01B78012BF9D1002D01D1064A00E0064AF6
S1133EC03A4100203260F8BD000090100000081351
S1133ED00000081180841E0000127A000A4B10B5FD
S1133EE01C681A1C0123002C0CD08024074B0343AC
S1133EF01C70074C831D23431B78022BF9D11368D4
S1133F000B600023181C10BD2002002000000813C1
S1133F10000008119C23C9015B051843C9B2017054
S1133F207047942349015B051843C9B20170704777
S1133F3070B506680C1C301C2049FCF725FB1F4992
S1133F40051C301CFCF7A6FB0E1C081CE121090112
S1133F50FCF71AFBE121E0800901301CFCF79AFB15
S1133F600E1C081C3C21FCF70FFB3C212081301C5B
S1133F70FCF790FB6E22124BA1722380FF32238840
S1133F8095420BD9AD1A032201339BB22380B7218A
S1133F9013405A1E93414900CA1AF0E709499B0786
S1133FA000D109490123CA5C954201D8638003E02A
S1133FB00133AD1A0D2BF6D1A58070BD80510100DF
S1133FC0B20700002B7500001E75000030B5114AC1
S1133FD00188031C8A180020812A19D85A88541E83
S1133FE00B2C15D89C88651E1E2D11D8DD88172D25
S1133FF00ED81D893B2D0BD89B7A3B2B08D88B07F9
S113400001D0054B00E0054B9B5CA3424041C0B28C
S113401030BDC0464EF8FFFF2B7500001E75000032
S113402070B5124A838804889A186E23FF33634359
S11340304588D318A2089B180D4A6E00B25A9B18E3
S1134040A20702D1022D00D8013B0B60E1233C22E0
S1134050C4881B015C4303895343827AE3189A188A
S11340600868044B4343D3180B6070BD4A05F5FF41
S11340700475000080510100084B1A6880231B025C
S11340809A4209D1A02310305B0518430368002B22
S113409002D10133FF3303607047C0462002002081
S11340A0021C802110B500230124490510320A4363
S11340B01460136090224360520504601C30024374
S11340C0136088225205024313608422520502437E
S11340D008431360036010BD031C9022143352057F
S11340E0134300221A604260103201601A60704764
S11340F003680B6070470000114B820070B5D558FF
S11341008022104B92051A60041C281CFFF7C8FF7C
S1134110281CFFF7B1FF01201F22011C0A4B0B4E84
S11341201B5D345D134099402240C0250B1C904018
S113413007496D004B5148510B60086070BDC04683
S11341403C7500003C80845E3975000038750000C1
S113415000E100E0F7B50027114B8000C658081CA9
S11341600D1C0197FFF732FF041EBC4216D001A9B3
S1134170281CFFF755FF381CFEF77AFF011C80202E
S11341800002814206D0FCF7FFF9011C0198FCF7FC
S1134190FBF90190301C0199FFF79EFF201CFEBD26
S11341A03C750000F7B50025124B8000C4580E1C66
S11341B0201C01A90195FFF79BFF281CFEF758FF5F
S11341C0051C8020000285420ED00B4B291C0434B0
S11341D01C43FCF7D9F92768019C291C4443B8B255
S11341E0FCF7D2F920180190311C01A8FFF7A0FEBA
S11341F0F7BDC0463C75000000007810F0B50026FD
S1134200184B800085B0C458081C0F1C01920396FB
S1134210FFF7DCFE051EB54201D100251EE0381C67
S113422003A9FFF7FDFE301C2768FEF721FF011CE0
S113423080200002814206D0FCF7A6F9011C0398F5
S1134240FCF7A2F90390039BBB42E6D3A360882347
S11342501C345B051C43019B9B002360281C05B098
S1134260F0BDC0463C7500008822044B8000C35852
S113427052051C3313438900196070473C750000D4
S11342808822054B8000C358520514331343186821
S1134290431E9841C0B270473C7500006B46E02253
S11342A01B78D2021B04134009071943014BC018A1
S11342B0016070474410000008B5084B8200D358D1
S11342C090220333520513431B78002B02D000F0D5
S11342D015F901E000F07AF908BDC0464475000004
S11342E008B50C4B8000C2580B4B0021C3589C20CE
S11342F003334005184311710170942040050343B2
S11343001970137F8B4203D02032101CFEF767FC18
S113431008BDC0462802002044750000F7B5061CFD
S11343201C4B30220C1C8700081C0021FD5800F097
S113433018FF301CFEF7A8FEFEF75AFE2060281C6A
S113434000F0E1FA201C00212030FEF741FCEB1CB8
S113435001939023019A5B0513431022281C1A70C1
S1134360032100F010FB281C002100F032FB0A4B53
S1134370FC500A4B9A5D1F23134001229A40131CE0
S1134380074A13609823019A5B05134340221A706D
S1134390F7BDC046447500002802002040750000A7
S11343A000E100E0F8B50D4E84000D4BA759051C43
S11343B0E05800F0A8FA381C2030FEF720FC094B26
S11343C0281C5A5D1F23134001229A40131C064ADD
S11343D0D367FEF75EFE0023A351F8BD2802002038
S11343E0447500004075000004E100E00A4B8000C1
S11343F070B5C658094B0C1CC358151C301C1A68E0
S1134400096800F087FA28602179301C6279A37961
S113441000F0CCFA70BDC0464475000028020020AC
S1134420F7B51E4A83009C581D4A9E5822790423DE
S1134430002A31D1071C002902D001AAFFF7D6FFB8
S1134440982300214020F21C5B0513431970187057
S113445025698D4203D1381CFFF742FF1BE001237D
S1134460237194235B053343A16119780723002941
S113447012D0A368191E02D019780133A360B17158
S11344802369013B2361A3690133A3619C235B0579
S11344901A43802313700023181CFEBD2802002039
S11344A044750000F8B5134F134C85002C59ED5991
S11344B00127069E2777A2602661E3606661FFF705
S11344C0AFFF061E14D1201C07992030FEF7CAFB4B
S11344D00328F8D000280BD09C210022EB1C4905AE
S11344E0194322710A709421032649050B431A705B
S11344F0301CF8BD447500002802002010B51E4B86
S11345008200D3581D4951581A79002A32D05A6969
S1134510002A11D09C2252050A431278002A0BD09B
S11345208A79DC68D2B2002C03D02270DA680132B6
S1134530DA605A69013A5A611A69002A12D094223F
S113454052050A431278002A0CD09A68141E02D02D
S1134550147801329A608C711A69013A1A619A6965
S113456001329A611A69002A04D15B69002B01D1D6
S1134570FFF7B6FE10BDC0462802002044750000B7
S1134580104A80008158002208B50F4B0331C358EC
S1134590581CC2779C2040050843DA621A701A83BB
S11345A05A629A621A6302709420400501430A70A9
S11345B01A1C38321278002A03D0181D0121FEF784
S11345C020FB08BD447500002802002038B5254BA7
S11345D08200D35824495258591CC97F00293FD01E
S11345E0D96A002916DB9421490511430978002969
S11345F010D0596A1C7F002905D0DD6A002D02DD28
S11346000C78013159629471D96A0139D962596BB4
S113461001315963D96A002905DA9424D11C64054F
S1134620214300240C70196B002911DD9C214905DC
S11346301143097800290BD09279996AD2B20029E2
S113464003D00A709A6A01329A621A6B013A1A63A9
S1134650DA6A002A04DC1B6B002B01DCFFF790FFF5
S113466038BDC0462802002044750000012903D04B
S1134670032909D1842300E094235B0518430078BF
S1134680431E9841C0B200E000207047034B013044
S113469049011843C9B201707047C046000088122E
S11346A0942302305B0549011843C9B20170704775
S11346B0034B023089011843C9B201707047C046E8
S11346C0000008138C2302305B05C9001843C9B2EB
S11346D001707047F7B5384EC21C164337780B7813
S11346E0FFB20122072B65D8041C181C0D1CFBF714
S11346F041FF04192A0D192A2A3A00232F480134AC
S1134700044323703378012BFCD152E00322012FA0
S113471050D1402329480134044323703378042BB7
S1134720FCD146E00021012B01D004230221307882
S1134730032298423ED1201CFFF7A8FF0421204AFF
S113474013698B4333E00227BB4207D100270B795F
S1134750BB4203D04979201CFFF7AAFF1948013452
S11347600443277019E004231649621C0A4313709A
S11347706A78A31C0B431A706B78002B06D1AB78B4
S1134780002B03D0E978201CFFF78AFFAB79002BBC
S113479003D0E979201CFFF795FF04213378084AF8
S11347A0DBB20193019B0133019313690B43136142
S11347B030BF0022101CFEBD000030100000881223
S11347C000ED00E000001010024B033018430078A5
S11347D0C0B270470000301014308023012A04D185
S11347E08A401B051843026005E0DB0418430123DB
S11347F08B40D9430160704701238B40002A01D0CC
S1134800436000E0836070470023C222037043705A
S11348108370C37043718371C37103724272837274
S1134820C3727047F0B5002789B00393FA230125BA
S11348303C1C9B0053430690079102936D420197E1
S11348400123A3400493174B9E1CCA330593049B76
S1134850318807985943FBF797FE029B029AC31AC3
S1134860824200D9131AAB4204D2B21E17780194C3
S11348701D1E03D0059B04369E42E8D10134032C4F
S113488001D0002DDCD1039B002B00D01D603F2301
S11348901F40019B9B011F43069BFFB25F7009B041
S11348A0F0BDC0465E750000942302305B050343EF
S11348B01B78002B04D088235B051843042303E0F2
S11348C080231B0518433023037070479422831CF4
S11348D052051A431278011C0220012A12D18022A7
S11348E0D2041343CF221A708022D2002023C87826
S11348F0034004D0013A002A03D0C046F6E7181C4E
S113490000E0092070470423C370002383704370C0
S113491003717047F0B5130B89B001250493082384
S113492000266D4203935B1907900591069202934A
S113493002270024731C191C069879430193FBF782
S113494023FE059B834206D31B1A9D4203D91D1CDB
S113495004900394029601347F00092C02D0002DA8
S1134960E8D104E0072E02D0019E002DE0D1702290
S1134970029B04981B011340039A1343079ADBB26A
S1134980537009B0F0BD8422C31C52051A4301239D
S11349900B405B00DBB2137090238907C90F5B05E2
S11349A0023009011843C9B20170704710B58C2454
S11349B003306405C9000443C9B221708821920000
S11349C049050143D2B20A70802252051043037094
S11349D010BD8023012202305B0503430A401A7094
S11349E08C238907C90F5B05C9001843C9B201703C
S11349F07047011C002008B5021C031C01F078F864
S1134A0008BD0000014B18687047C046A4FFFF1F93
S1134A10084B10B5041C002B02D0002101F0C4F88F
S1134A20054B1868836A002B00D09847201C01F0BE
S1134A3009FAC046A95B00008C76000070B5051C1D
S1134A400C1E01D1002049E0002804D08369002B0A
S1134A5001D100F04DF9224B9C4201D16C6808E071
S1134A60204B9C4201D1AC6803E01F4B9C4200D117
S1134A70EC680C22A35E002BE4D0281C211C00F05F
S1134A803FF8236B061C002B06D0281C216A98478C
S1134A90002801DA01267642A3891B0603D5281CC7
S1134AA0216900F067FB616B002908D0231C4433A3
S1134AB0994202D0281C00F05DFB00236363A16CC3
S1134AC0002904D0281C00F055FB0023A36400F047
S1134AD07FF90023A38100F07CF9301C70BDC0462F
S1134AE028760000487600006876000008B5034B7D
S1134AF0011C1868FFF7A2FF08BDC046A4FFFF1FF2
S1134B00F7B58A89051C0C1C13075ED44B68002B6F
S1134B1002DC0B6C002B1ADDE76A002F17D0002390
S1134B202E682B6080235B011A4001D0626D15E072
S1134B30281C216A0123B847021C431C0ED12B6890
S1134B40002B0BD01D2B01D0162B02D12E60002080
S1134B505EE04021A3890B43A38159E0A3895B074D
S1134B6006D56368D21A636B002B01D0236CD21A6A
S1134B700023281C216AE76AB847A389421C06D18E
S1134B802A68002A03D01D2A01D0162A19D100222E
S1134B90626022692260DB0405D5431C02D12B68C4
S1134BA0002B00D16065616B2E600029CFD0231CDF
S1134BB04433994202D0281C00F0DCFA00206063E0
S1134BC026E040221343A38122E00F69002FBED0C8
S1134BD00B680F60DB1B01930023920700D14B6924
S1134BE0A360019B002BB2DD281C216A3A1C019BA7
S1134BF0A66AB047002806DC40220120A38940426F
S1134C001343A38104E0019B3F181B1A0193E8E7B7
S1134C10FEBD000038B50B69051C0C1C002B01D12E
S1134C2000201CE0002804D08369002B01D100F08F
S1134C305FF80B4B9C4201D16C6808E0094B9C4225
S1134C4001D1AC6803E0084B9C4200D1EC680C2213
S1134C50A35E002BE4D0281C211CFFF751FF38BDB4
S1134C6028760000487600006876000008B50249FE
S1134C7000F0BAF908BDC046154C0000002310B579
S1134C80041C03604360836081814366C2810361C5
S1134C9043618361191C08225C3000F062FA054B01
S1134CA024626362044BA362044BE362044B2363F8
S1134CB010BDC04679580000A1580000D958000022
S1134CC00559000070B568254B1E5D430E1C291C58
S1134CD0743100F095FA041E08D000212A1C0160EA
S1134CE046600C30A060683200F03BFA201C70BDB6
S1134CF0836913B5002B28D18364C3640365134B04
S1134D00134A1B6882620193984201D10123836193
S1134D10041C00F01FF86060201C00F01BF8A06069
S1134D20201C00F017F80421E06000226068FFF7FF
S1134D30A5FFA06809210122FFF7A0FFE068122166
S1134D400222FFF79BFF0123A36113BD8C760000B1
S1134D506D4C0000F8B51D4B061C1D68AB69002B9B
S1134D6002D1281CFFF7C4FF4835AC686B68013BCF
S1134D7005D40C22A75E002F10D06834F7E72B6807
S1134D80002B06D1301C0421FFF79CFF286000286B
S1134D9001D02D68E9E70C23336016E00123201CC1
S1134DA05B42E3810233A38167662760A760676083
S1134DB027616761A7615C30391C082200F0D1F9D2
S1134DC0201C6763A763A764E764F8BD8C760000C2
S1134DD07047704738B5074B074C1D1CE41AA410E4
S1134DE0002C04D0013CA300EB589847F8E702F0EC
S1134DF06FFC38BDE8760000EC760000F7B50F1CB8
S1134E00111C01AA051C00F055FF061E01D1002447
S1134E1027E0281CFFF79EFF041EF8D0DB23281C84
S1134E20391C019A5B0000F001FD002806DA002518
S1134E30FFF7CEFFA581FFF7CCFFE8E70A4BE0813F
S1134E4063620A4BA681A362094B2462E362094BA5
S1134E502363F30505D5281C211C0022022300F03E
S1134E6027F8201CFEBDC04679580000A158000058
S1134E70D95800000559000008B5031C0A1C034951
S1134E800868191CFFF7BAFF08BDC046A4FFFF1F3E
S1134E900EB403B5011C03AB044804CB00680193B2
S1134EA000F02EFA02B008BC03B01847A4FFFF1F9D
S1134EB008B500F001F808BDF7B5051C0C1C0192FB
S1134EC01E1C002804D08369002B01D1FFF710FFBA
S1134ED0414B9C4201D16C6808E0404B9C4201D19B
S1134EE0AC6803E03E4B9C4200D1EC688422A38969
S1134EF052001340934203D1281C211CFFF78AFE61
S1134F00E36A0093002B01D11D3331E0012E05D05B
S1134F10022E31D01623002E2AD12DE0281C211C6C
S1134F20FFF778FE8023A2895B011A4001D0606DEF
S1134F3006E0331C281C216A009EB047431C18D08D
S1134F40A3895A0707D56368C01A636B002B0AD07C
S1134F50236CC01A07E01B0705D52368002B02D079
S1134F6022699B1AC018019B00261B18019303E0B9
S1134F702B6001277F422DE02369002B03D1281CDD
S1134F80211C00F079F8281C211CFFF743FE071EA2
S1134F90EFD1331C281C216A019A009EB047431CA0
S1134FA0E7D0616B002908D0231C4433994202D016
S1134FB0281C00F0DFF8002363630021201C236910
S1134FC0A2892360074B61601340A3815C300822EF
S1134FD000F0C7F8381CFEBD2876000048760000B3
S1134FE068760000DFF7FFFFF7B5041C071C0026F6
S1134FF001914834002C16D06368A5680093009B87
S1135000013B00930DD4AB89012B08D90E22AB5E72
S1135010013304D0381C291C019B9847064368358A
S1135020EDE72468E6E7301CFEBD00000E4B70B5CA
S113503000251E1C0D4CE41AA410A54204D0AB009C
S1135040F35898470135F8E702F03CFB084B00257C
S11350501E1C084CE41AA410A54204D0AB00F3585B
S113506098470135F8E770BDE4760000E476000067
S1135070E4760000E8760000F0B58B8991B09B07D8
S113508006D50B1C47330B600B6101234B6145E0D4
S11350900C1C0E23C95E061C002904DA8023A58992
S11350A01D4010D10CE001AA00F03CFE0028F5DB05
S11350B0F023029D1B021D40194BED186B425D410C
S11350C08027FF0001E000254027301C391C00F038
S11350D097F800280CD1A3899A051FD40222134300
S11350E0A381231C4733236023610123636115E0FB
S11350F080220C4BB362A38920601343A3812061F7
S11351006761002D0AD00E23E15E301C00F01CFE06
S1135110002803D00122A3891343A38111B0F0BD59
S113512000E0FFFF6D4C000008B5034B011C18683C
S113513000F066F808BDC046A4FFFF1F08B5034B86
S1135140011C186800F016F808BDC046A4FFFF1F34
S1135150002310B5934203D0CC5CC4540133F9E767
S113516010BD031C8218934202D019700133FAE770
S11351707047000030B500293ED004390B68002B7D
S113518000DAC9181D4A1368141C002B02D14B60A5
S1135190116031E099420DD208680A189A4203D18D
S11351A01368C3180B6053684B60216024E08A4283
S11351B003D8131C5A68002AF9D11D685C198C4263
S11351C00BD10968691858181960904214D11068F5
S11351D05268091819605A600EE08C4202D90C23F7
S11351E0036009E008680C18944203D114685268FB
S11351F0001908604A60596030BDC0463002002082
S1135200032370B5CC1C9C430834051C0C2C01D220
S11352100C2405E0002C03DA0C2300202B6042E070
S11352208C42F9D3204A1368101C191C002913D08E
S11352300A68121B0DD40B2A02D90A608B181FE0CE
S11352408B4202D15A6802601BE04A685A600B1C08
S113525017E00B1C4968E9E7144E3368002B03D1AF
S1135260281C00F0F7FA3060281C211C00F0F2FA28
S1135270031C421CD0D00322C61C964386420AD18A
S11352801C60181C07210B301A1D8843821A0AD08F
S11352905142995007E0311A281C00F0DBFA431CF4
S11352A0BAD0331CECE770BD300200202C02002081
S11352B0936810B5013B9360002B05DA9469A3420F
S11352C008DBCBB20A2B05D01368581C1060197088
S11352D0C8B201E000F02CFB10BDF8B5061C0F1C91
S11352E0141CD518AC4208D02178301C3A1CFFF7A6
S11352F0DFFF0134431CF5D100E00020F8BD0000BD
S1135300F0B59FB0061C0F1C02920593002804D030
S11353108369002B01D1FFF7EBFC794B9F4201D14C
S1135320776808E0774B9F4201D1B76803E0764B7A
S11353309F4200D1F768BB891B070AD53B69002B44
S113534007D0002306AD6B6120336B761033AB7648
S11353503DE0301C391C00F057FB0028F1D001203F
S11353604042CAE0059A111D12680591002A7EDBAD
S11353700992013423782E2B00D189E021786348E7
S1135380032200F007FD002808D0604B0134C01A46
S113539040238340181C2B68184328602178631C21
S11353A05B4806220293297600F0F4FC002800D121
S11353B091E0584B002B00D084E00722059B073373
S11353C09343083305936B69039A9B186B61029CA2
S11353D02378002B04D1029BE31A049311D003E039
S11353E0252BF8D00134F3E7049B301C391C029AB6
S11353F0FFF773FF431C7BD06A69049B94466344A4
S11354006B612378002B73D00122002352426A601F
S113541002A95432521801342B60EB60AB60137054
S1135420AB6521783C48052200F0B4FC002809D083
S1135430394B0134C01A01238340181C2B681843CC
S11354402860EEE72B68DA0604D55322202102A84F
S1135450121811701A0704D553222B2102A812180E
S1135460117022782A2A00D17CE7099B05E0524278
S1135470EA60022213432B607BE72278303A092A40
S113548004D80A214B4301349B18F6E7099371E7CA
S113549063782A2B09D1059B02341A1D1B680592D7
S11354A0002B0DDA01235B420AE000230134227849
S11354B0303A092A04D80A214B4301349B18F6E7F1
S11354C007935BE705AB0093301C291C3A1C134B74
S11354D000E000BF07E005AB0093301C291C3A1C18
S11354E00E4B00F08BF80390039B013300D06AE766
S11354F0BB895B0600D532E70B981FB0F0BDC046F0
S11355002876000048760000687600009676000051
S11355109A7600000000000090760000DB52000044
S1135520F7B5171C01930A698B6800900C1C934211
S113553000DA131C221C3B6043321278002A01D08B
S113554001333B6023689B0602D53B6802333B6012
S1135550062523681D401ED0231C43331B785A1E86
S11355609341226892061CD53020E1184031C8705E
S1135570211C5A1C45310978A21840320233D170DB
S11355800FE0221C0123009801991932089EB047AC
S1135590431C0ED00135E3683A689B1A9D42F0DB48
S11355A0DAE7221C009801994332089DA847431C5E
S11355B002D10120404220E006232068E1683A68D5
S11355C003400025042B03D18D1AEB43DB171D4048
S11355D0A3682269934201DD9B1AED180027AF42AC
S11355E00ADA221C0123009801991A32089EB04756
S11355F0431CDED00137F2E70020FEBDF0B58BB0CE
S113560006920A1C43320793059004920A7E0C1CEE
S1135610109B6E2A00D1A8E011D8632A22D009D8A1
S1135620002A00D1B2E0582A00D0C2E045310A7005
S11356307C4A4FE0642A1DD0692A1BD0B9E0732A42
S113564000D1A7E009D86F2A29D0702A00D0B0E091
S1135650202209680A43226037E0752A1FD0782A7D
S113566033D0A6E00E1C1A684236111D1960136867
S11356703370A1E021681A68080606D4490604D5E7
S1135680111D19600023D55E02E0111D1960156813
S1135690002D3BDA2D23049A6D42137036E0216805
S11356A01A68080606D4490604D51568111D196040
S11356B0ADB202E0111D196015685A4B227E0393A6
S11356C00A276F2A1DD108271BE0221C78214532A6
S11356D01170554A19680392081D226818600D68F4
S11356E0100602D4500600D5ADB2D30702D520234C
S11356F01A4322601027002D03D1202322689A43E5
S11357002260231C002243331A7002E00A27454B0F
S113571003936368A360002B03DB04222168914395
S11357202160002D02D1049E002B0ED0049E281C63
S1135730391CFAF7AFFF039B013E5B5C281C3370F6
S1135740391CFAF721FF051EF1D1082F09D123686E
S1135750DB0706D563682269934202DC3023013EED
S11357603370049B9B1B23612BE009681A680806AD
S113577007D4490605D5111D19601368A28A1A8039
S113578004E0111D1960136862691A600023049E05
S1135790236116E01A68111D196016680021301C77
S11357A0626800F0F7FA002801D0801B606063682B
S11357B003E0261C42363270012323610023049A3D
S11357C01370079B05980093211C069B09AAFFF7F9
S11357D0A7FE431C02D10120404221E02369059821
S11357E00699321C079DA847431CF4D023689B07E5
S11357F005D4099BE068984212DA181C10E00025D1
S1135800E368099A9B1A9D42F3DA221C0123059846
S113581006991932079EB047431CDCD00135EFE7E7
S11358200BB0F0BDA1760000B276000038B5051CBF
S11358300020074C2060081C111C1A1C00F0EAFA16
S1135840431C03D12368002B00D02B6038BDC04615
S1135850C402002038B50023064C051C081C236034
S1135860FBF714F8431C03D12368002B00D02B60F2
S113587038BDC046C402002038B50C1C0E25495F53
S113588000F094FA002803DB636D1B18636503E0E2
S1135890A289024B1340A38138BDC046FFEFFFFF2E
S11358A0F8B51E1C8B89051C0C1C171CDB0505D5C3
S11358B00E23C95E0022022300F058FAA289054B88
S11358C0281C1340A3813A1C0E23E15E331C00F014
S11358D087F8F8BDFFEFFFFF38B50C1C0E25495FB4
S11358E000F044FAA389421C03D1054A1340A38162
S11358F004E0802252011343A381606538BDC04691
S1135900FFEFFFFF08B50E23C95E00F0C1F908BD23
S1135910031C0A7801311A700133002AF9D1704747
S11359200023C25C0133002AFBD1581E70470000DB
S113593070B5051C0E1C141C002804D08369002BB0
S113594001D1FFF7D5F9234B9C4201D16C6808E0E3
S1135950214B9C4201D1AC6803E0204B9C4200D116
S1135960EC68A369A360A3891B070AD52369002BEC
S113597007D023682269F6B2981A636998420FDB4C
S113598008E0281C211C00F03FF80028F1D0012079
S113599040421DE0281C211CFFF73CF90028F6D1E9
S11359A0A3680130013BA36023685A1C22601E7067
S11359B06369984205D0A389301CDB0708D50A2EF9
S11359C006D1281C211CFFF725F90028DFD1301C43
S11359D070BDC04628760000487600006876000056
S11359E038B5051C0020074C2060081C111C1A1C2B
S11359F000F020FA431C03D12368002B00D02B6055
S1135A0038BDC046C4020020354B70B51D68061C65
S1135A100C1C002D05D0AB69002B02D1281CFFF70C
S1135A2067F9304B9C4201D16C6808E02E4B9C42D4
S1135A3001D1AC6803E02D4B9C4200D1EC68A389F2
S1135A409AB2110723D4D10607D409220120326067
S1135A5037321343A381404240E0530713D5616BAF
S1135A60002908D0231C4433994202D0301CFFF78C
S1135A7081FB002363632422A3899343A38100232E
S1135A806360236923600822A3891343A3812369E4
S1135A90002B0BD1A023A2899B00134080229200EB
S1135AA0934203D0301C211CFFF7E6FA0123A2899C
S1135AB0134005D00023A36063695B42A36103E044
S1135AC0910700D46369A36000202369834205D150
S1135AD0130603D540231A43A281013870BDC04682
S1135AE0A4FFFF1F287600004876000068760000B7
S1135AF0F7B52A4D061C2C680091171C0193002C45
S1135B0001D1274C2C6063681F2B15DD254B002B1E
S1135B1002D10120404240E08C20FFF705FB041E27
S1135B20F7D02A6800230260021C88324360286090
S1135B3013609E420AD128E0002E26D0231C88330D
S1135B401868002810D1174B002BE2D084204000A5
S1135B50FFF7EAFA0028DCD0031C0022FC335A6069
S1135B609A60231C88331860012261688A408B0084
S1135B70C31880C3FC304168114341600199D9675F
S1135B80022E02D183681A438260002063685A1C83
S1135B9062600233009A9B001A51FEBDC0020020CD
S1135BA03402002029510000F0B587B0059003911C
S1135BB0344D2C68002C63D0231C88331E68636822
S1135BC05A1E0192304A9B189B00F7180433E318BD
S1135BD00293019B002B3DDB039B002B07D0002E7F
S1135BE031D03B1C80331B68039A93422BD16268EB
S1135BF0029B0199013A5B68914201D1616002E024
S1135C00002202994A60002B1DD062680492002E83
S1135C1007D0012201998A40311CFC3148681042A6
S1135C2001D1984708E08968114203D10598396881
S1135C30984701E038689847049B62689342B7D15B
S1135C402B68A342B4D1019B043F013B0193029B07
S1135C50043BBDE70D4B002B12D062682368002A79
S1135C600BD1002B09D02B60002E02D0301CFFF783
S1135C7065FA201CFFF762FA9BE7251C1C1C99E7B8
S1135C8007B0F0BDC0020020FFFFFF3F3D51000000
S1135C9038B50023064C051C081C236000F09AF854
S1135CA0431C03D12368002B00D02B6038BDC046B1
S1135CB0C40200200B7830B5722B0ED0772B07D09E
S1135CC0612B0ED182258420AD00012340001BE00E
S1135CD0C0250123ED00082016E0002504202B1C1C
S1135CE012E01623036000201BE0622C11D0782CF4
S1135CF012D02B2C08D10F3CA0430C3C20430D3C6C
S1135D00A3431C1C0223234301310C78002CECD147
S1135D1005E080246402F6E780242401F3E72B43A2
S1135D20136030BD38B50023064C051C081C111C3B
S1135D30236000F057F8431C03D12368002B00D0E4
S1135D402B6038BDC402002038B50023064C051C66
S1135D50081C236000F04EF8431C03D12368002B79
S1135D6000D02B6038BDC046C402002038B5051CE5
S1135D700020074C2060081C111C1A1C00F042F87B
S1135D80431C03D12368002B00D02B6038BDC046D0
S1135D90C4020020C9B28218904204D003788B4216
S1135DA002D00130F8E700207047000038B5051C28
S1135DB00020074C2060081C111C1A1C00F032F84B
S1135DC0431C03D12368002B00D02B6038BDC04690
S1135DD0C402002058220120014B40421A6070473F
S1135DE0C402002058220120014B40421A6070472F
S1135DF0C40200205822024B00201A607047C0469B
S1135E00C402002058220120014B40421A6070470E
S1135E10C402002058220120014B40421A607047FE
S1135E20C402002058220120014B40421A607047EE
S1135E30C402002058220120014B40421A607047DE
S1135E40C4020020FEE7C046FFFF1B5B306D1B5BF6
S1135E50343B34336D1B5B313B33376D0D53616E13
S1135E6069747920636865636B206661696C656435
S1135E70211B5B306D0A001B5B306D1B5B343B34B4
S1135E80316D1B5B313B33376D0D496E76616C6947
S1135E906420737570706C7920766F6C74616765BB
S1135EA0205B25645D206D56211B5B306D0A004D1F
S1135EB06561737572656D656E74206E756D62656E
S1135EC0722C205254432D3E5453522C205254438E
S1135ED02D3E5450522C00204D4D41383435312044
S1135EE0782C204D4D413834353120792C204D4DBE
S1135EF04138343531207A2C00205254432D3E54FD
S1135F0053522C205254432D3E5450522C202320C3
S1135F10436F6E666967204572726F7273002575F0
S1135F202C2025642C2025642C002025642C20257D
S1135F30642C2025640A000D09307825303278203D
S1135F402D2D3E205B307825303278203078253076
S1135F503278203078253032785D0A000D093078A7
S1135F6025303278202D2D3E203078253032780AA5
S1135F70000D09307825303278202D2D3E202D2D2E
S1135F802D2D0A000D0A0925642F256420737563DD
S1135F906365737320726174652E0A000D092564AC
S1135FA02F256420737563636573736573206D6156
S1135FB07463686564207265662E2076616C75650D
S1135FC0206F66203078253032782E0A000D09259E
S1135FD0642062616420636F6D6D616E64732E0A68
S1135FE00A000D0A094144584C3336322052656187
S1135FF0642041626F727465642E2044657669631F
S1136000652044697361626C6564203A28000D0A56
S11360104D4D4138343531513A0A0D000D0A0A42CA
